{
	"data": {
		"bytecode": {
			"linkReferences": {},
			"object": "608060405234801561000f575f80fd5b5060405161552d38038061552d83398101604081905261002e91610250565b600180556001600160a01b03821661009e5760405162461bcd60e51b815260206004820152602860248201527f41646d696e20616464726573732063616e6e6f7420626520746865207a65726f604482015267206164647265737360c01b60648201526084015b60405180910390fd5b6001600160a01b03811661010a5760405162461bcd60e51b815260206004820152602d60248201527f4665652077616c6c657420616464726573732063616e6e6f742062652074686560448201526c207a65726f206164647265737360981b6064820152608401610095565b6101145f8361018c565b5061013f7f97667070c54ef182b0f5858b034beac1b6f3089aa2d3188bb1e8929f4fa9b9298361018c565b50620f42406009819055600c80546001600160a01b0319166001600160a01b03841617905561017090602890610281565b600b5561018160c8620f4240610281565b600a55506102a09050565b5f828152602081815260408083206001600160a01b038516845290915281205460ff1661022c575f838152602081815260408083206001600160a01b03861684529091529020805460ff191660011790556101e43390565b6001600160a01b0316826001600160a01b0316847f2f8788117e7eff1d82e926ec794901d17c78024a50270940304540a733656f0d60405160405180910390a450600161022f565b505f5b92915050565b80516001600160a01b038116811461024b575f80fd5b919050565b5f8060408385031215610261575f80fd5b61026a83610235565b915061027860208401610235565b90509250929050565b5f8261029b57634e487b7160e01b5f52601260045260245ffd5b500490565b615280806102ad5f395ff3fe608060405260043610610341575f3560e01c806379502c55116101bd578063cfcdeb7e116100f2578063e7a7594911610092578063f1ee8fdd1161006d578063f1ee8fdd14610f02578063f564f0ae14610f21578063f5b541a614610f34578063ffb1267614610f54575f80fd5b8063e7a7594914610d9a578063ef706adf14610dc8578063f017015014610de7575f80fd5b8063dc8beea9116100cd578063dc8beea914610cdf578063deb2ec6a14610d2e578063e3df748a14610d4d578063e4cb62c014610d7b575f80fd5b8063cfcdeb7e14610c70578063d547741f14610c8f578063d843b2c714610cae575f80fd5b8063985a7c1d1161015d578063a85c38ef11610138578063a85c38ef14610b6a578063aaab596a14610bfa578063bc205ad314610c19578063bff4945014610c38575f80fd5b8063985a7c1d14610b19578063a1bd91e114610b38578063a217fddf14610b57575f80fd5b806386aa7db01161019857806386aa7db01461093f5780638a72ea6a1461095e578063904194a314610a4257806391d1485414610afa575f80fd5b806379502c55146108c357806381cc37b2146108fe57806382dc4a0514610911575f80fd5b806336568abe11610293578063643268c9116102335780637400f52d1161020e5780637400f52d1461077157806375b5908a1461079057806378447e7f146107af5780637857f9fb146107ce575f80fd5b8063643268c9146106ed578063670017f4146107025780636a951f2014610752575f80fd5b80634a99533b1161026e5780634a99533b146106745780634ae25a86146106885780635662ecc7146106a75780635d3473e3146106bc575f80fd5b806336568abe146105075780633b6e750f146105265780633baf67841461055d575f80fd5b80631f25a2d8116102fe578063248a9ca3116102d9578063248a9ca3146104795780632d670584146104b55780632f2ff15d146104d457806331a37c1e146104f3575f80fd5b80631f25a2d81461041c5780631f4846d81461043b57806321146fa21461045a575f80fd5b806301ffc9a71461034557806306f13da9146103795780630b8aacb91461038e57806316b4cdb2146103ad57806317b137ba146103cc57806318b4f367146103eb575b5f80fd5b348015610350575f80fd5b5061036461035f36600461477d565b610f82565b60405190151581526020015b60405180910390f35b61038c610387366004614878565b610fb8565b005b348015610399575f80fd5b5061038c6103a8366004614919565b6112a7565b3480156103b8575f80fd5b5061038c6103c736600461497a565b61149d565b3480156103d7575f80fd5b5061038c6103e636600461499a565b6118ff565b3480156103f6575f80fd5b506103646104053660046149cc565b5f9081526005602052604090205460ff1660021490565b348015610427575f80fd5b5061038c6104363660046149e3565b611934565b348015610446575f80fd5b5061038c61045536600461499a565b611b4c565b348015610465575f80fd5b5061038c610474366004614a19565b611b81565b348015610484575f80fd5b506104a76104933660046149cc565b5f9081526020819052604090206001015490565b604051908152602001610370565b3480156104c0575f80fd5b5061038c6104cf366004614a51565b611c72565b3480156104df575f80fd5b5061038c6104ee366004614b06565b611ce7565b3480156104fe575f80fd5b506008546104a7565b348015610512575f80fd5b5061038c610521366004614b06565b611d11565b348015610531575f80fd5b50610364610540366004614b30565b6001600160a01b03165f9081526002602052604090205460ff1690565b348015610568575f80fd5b506106676105773660046149cc565b60408051610140810182525f80825260208201819052918101829052606081018290526080810182905260a0810182905260c0810182905260e081018290526101008101829052610120810191909152505f90815260056020818152604092839020835161014081018552815460ff908116825260018301549382019390935260028201546001600160a01b039081169582019590955260038201546060820152600482015460808201529281015460a0840152600681015460c08401526007015480821660e084015261010080820490941693830193909352600160a81b909204909116151561012082015290565b6040516103709190614b49565b34801561067f575f80fd5b506006546104a7565b348015610693575f80fd5b5061038c6106a236600461499a565b611d44565b3480156106b2575f80fd5b506104a760085481565b3480156106c7575f80fd5b506103646106d63660046149cc565b5f9081526005602052604090205460ff1660011490565b3480156106f8575f80fd5b506104a760065481565b34801561070d575f80fd5b50610716611d79565b60405161037091908151815260208083015190820152604080830151908201526060918201516001600160a01b03169181019190915260800190565b34801561075d575f80fd5b5061038c61076c3660046149cc565b611ddf565b34801561077c575f80fd5b5061038c61078b3660046149cc565b611ee9565b34801561079b575f80fd5b5061038c6107aa366004614878565b611fb0565b3480156107ba575f80fd5b5061038c6107c936600461497a565b6122a3565b3480156107d9575f80fd5b506108726107e83660046149cc565b6040805160a0810182525f80825260208201819052918101829052606081018290526080810191909152505f90815260076020908152604091829020825160a0810184528154815260018201549281019290925260028101546001600160a01b0390811693830193909352600301549182166060820152600160a01b90910460ff16608082015290565b604051610370919081518152602080830151908201526040808301516001600160a01b03908116918301919091526060808401519091169082015260809182015160ff169181019190915260a00190565b3480156108ce575f80fd5b50600954600a54600b54600c546108ee939291906001600160a01b031684565b6040516103709493929190614bdf565b61038c61090c36600461497a565b61251b565b34801561091c575f80fd5b5061036461092b366004614b30565b60026020525f908152604090205460ff1681565b34801561094a575f80fd5b5061038c610959366004614c03565b612793565b348015610969575f80fd5b506109e16109783660046149cc565b600560208190525f91825260409091208054600182015460028301546003840154600485015495850154600686015460079096015460ff9586169794966001600160a01b03948516969395949293909282821692610100810490911691600160a81b909104168a565b6040805160ff9b8c168152602081019a909a526001600160a01b03988916908a01526060890196909652608088019490945260a087019290925260c086015290941660e0840152921661010082015290151561012082015261014001610370565b348015610a4d575f80fd5b50610ab0610a5c3660046149cc565b60046020525f9081526040902080546001909101546001600160a01b0382169165ffffffffffff600160a01b8204811692600160d01b90920416906001600160981b0381169060ff600160981b9091041685565b604080516001600160a01b0396909616865265ffffffffffff948516602087015292909316918401919091526001600160981b0316606083015260ff16608082015260a001610370565b348015610b05575f80fd5b50610364610b14366004614b06565b6129aa565b348015610b24575f80fd5b5061038c610b33366004614c4b565b6129d2565b348015610b43575f80fd5b506104a7610b523660046149cc565b612a75565b348015610b62575f80fd5b506104a75f81565b348015610b75575f80fd5b50610bc3610b843660046149cc565b60076020525f90815260409020805460018201546002830154600390930154919290916001600160a01b0391821691811690600160a01b900460ff1685565b6040805195865260208601949094526001600160a01b039283169385019390935216606083015260ff16608082015260a001610370565b348015610c05575f80fd5b5061038c610c143660046149cc565b612a97565b348015610c24575f80fd5b5061038c610c33366004614cf0565b612fe5565b348015610c43575f80fd5b506104a7610c523660046149cc565b5f90815260076020526040902060030154600160a01b900460ff1690565b348015610c7b575f80fd5b5061038c610c8a36600461499a565b6130ee565b348015610c9a575f80fd5b5061038c610ca9366004614b06565b613123565b348015610cb9575f80fd5b506104a7610cc83660046149cc565b5f9081526005602052604090206007015460ff1690565b348015610cea575f80fd5b50610d16610cf93660046149cc565b5f908152600560205260409020600201546001600160a01b031690565b6040516001600160a01b039091168152602001610370565b348015610d39575f80fd5b5061038c610d483660046149cc565b613147565b348015610d58575f80fd5b506104a7610d673660046149cc565b5f9081526005602052604090206004015490565b348015610d86575f80fd5b5061038c610d953660046149cc565b6134f6565b348015610da5575f80fd5b506104a7610db43660046149cc565b5f9081526005602052604090206003015490565b348015610dd3575f80fd5b5061038c610de23660046149cc565b613900565b348015610df2575f80fd5b50610ea3610e013660046149cc565b6040805160a0810182525f80825260208201819052918101829052606081018290526080810191909152505f90815260046020908152604091829020825160a08101845281546001600160a01b038116825265ffffffffffff600160a01b8204811694830194909452600160d01b9004909216928201929092526001909101546001600160981b038116606083015260ff600160981b90910416608082015290565b6040805182516001600160a01b0316815260208084015165ffffffffffff908116918301919091528383015116918101919091526060808301516001600160981b03169082015260809182015160ff169181019190915260a001610370565b348015610f0d575f80fd5b5061038c610f1c366004614a19565b613c65565b61038c610f2f366004614d18565b613de7565b348015610f3f575f80fd5b506104a75f8051602061522b83398151915281565b348015610f5f575f80fd5b50610364610f6e3660046149cc565b60036020525f908152604090205460ff1681565b5f6001600160e01b03198216637965db0b60e01b1480610fb257506301ffc9a760e01b6001600160e01b03198316145b92915050565b610fc0613f93565b8051825114610fea5760405162461bcd60e51b8152600401610fe190614d6a565b60405180910390fd5b5f805b83518110156111fa575f84828151811061100957611009614d91565b602002602001015190505f84838151811061102657611026614d91565b6020908102919091018101515f84815260058352604080822060018082015484526004909552912060078201549294509092909160ff161461107a5760405162461bcd60e51b8152600401610fe190614da5565b600181810154600160981b900460ff16146110a75760405162461bcd60e51b8152600401610fe190614dd3565b5f83116110c65760405162461bcd60e51b8152600401610fe190614e01565b82826006015483600301546110db9190614e3d565b10156110f95760405162461bcd60e51b8152600401610fe190614e50565b6007820154600160a81b900460ff1615806111175750828260030154145b6111335760405162461bcd60e51b8152600401610fe190614e87565b60028201546001600160a01b03161561115e5760405162461bcd60e51b8152600401610fe190614eb3565b81545f9060ff165f19016111925782600301548484600501546111819190614ee0565b61118b9190614f0b565b90506111b4565b82600301548484600401546111a79190614ee0565b6111b19190614f0b565b90505b6111be8188614f1e565b96506111e985858560070160019054906101000a90046001600160a01b03166111e43390565b613fec565b505060019093019250610fed915050565b508034101561121b5760405162461bcd60e51b8152600401610fe190614f31565b80341115611299575f61122e8234614e3d565b6040519091505f90339083908381818185875af1925050503d805f8114611270576040519150601f19603f3d011682016040523d82523d5f602084013e611275565b606091505b50509050806112965760405162461bcd60e51b8152600401610fe190614f5d565b50505b506112a360018055565b5050565b6112af613f93565b5f858152600460205260409020600180820154600160981b900460ff16146113095760405162461bcd60e51b815260206004820152600d60248201526c24b73b30b634b2102a37b5b2b760991b6044820152606401610fe1565b6001600160a01b0383161580159061133857506001600160a01b0383165f9081526002602052604090205460ff165b6113545760405162461bcd60e51b8152600401610fe190614eb3565b5f8511801561136257505f84115b6113a85760405162461bcd60e51b8152602060048201526017602482015276496e76616c696420416d6f756e74206f722056616c756560481b6044820152606401610fe1565b5f836001600160a01b031663313ce5676040518163ffffffff1660e01b8152600401602060405180830381865afa1580156113e5573d5f803e3d5ffd5b505050506040513d601f19601f820116820180604052508101906114099190614f94565b90505f61141886601284614194565b90505f620f424060095f01548861142f9190614ee0565b6114399190614f0b565b90505f61144882601286614194565b90505f60ff8c1660011461145c578161145e565b835b9050876114766001600160a01b038216333085614227565b6114858d8d8b8e8e898e61428e565b5050505050505061149560018055565b505050505050565b6114a5613f93565b5f8051602061522b8339815191526114bc8161445a565b5f8381526007602090815260408083208054845260058352818420600180820154865260049094529190932091820154909190600160981b900460ff166003146115185760405162461bcd60e51b8152600401610fe190614faf565b80546001600160a01b03161580159061153d575060018101546001600160981b031615155b6115795760405162461bcd60e51b815260206004820152600d60248201526c151bdad95b88139bdd0814d95d609a1b6044820152606401610fe1565b8054600160a01b900465ffffffffffff166115d25760405162461bcd60e51b815260206004820152601960248201527814d95d1d1b1a5b99c8151a5b5948139bdd0814dd185c9d1959603a1b6044820152606401610fe1565b6003830154600160a01b900460ff166001146116005760405162461bcd60e51b8152600401610fe190614fd7565b60028201545f906001600160a01b031661161c57506012611695565b826002015f9054906101000a90046001600160a01b03166001600160a01b031663313ce5676040518163ffffffff1660e01b8152600401602060405180830381865afa15801561166e573d5f803e3d5ffd5b505050506040513d601f19601f820116820180604052508101906116929190614f94565b90505b5f6116c48460030154856005015487600101546116b29190614ee0565b6116bc9190614f0b565b601284614464565b90505f6116f58560030154866004015488600101546116e39190614ee0565b6116ed9190614f0b565b601285614464565b90505f620f42406009600201548361170d9190614ee0565b6117179190614f0b565b90505f816117258585614f1e565b61172f9190614e3d565b60028801549091506001600160a01b031661181c5760028801546040515f916001600160a01b03169083908381818185875af1925050503d805f8114611790576040519150601f19603f3d011682016040523d82523d5f602084013e611795565b606091505b5050600c546040519192505f916001600160a01b039091169085908381818185875af1925050503d805f81146117e6576040519150601f19603f3d011682016040523d82523d5f602084013e6117eb565b606091505b505090508180156117f95750805b6118155760405162461bcd60e51b8152600401610fe190615005565b505061185b565b600280880154908901546001600160a01b039182169161183f91839116846144b8565b600c54611859906001600160a01b038381169116856144b8565b505b60038801805460ff60a01b1916600160a11b179055604080518c8152602081018c9052338183015290517fbac7c71779ccc41f8c859e9d622536f76f0375a85b23e1b3d4134f613a9fff54916060908290030190a17f94d22e970a1abb720b741045e471af3fa516f4e2ede6b665387332888f92f2138b8284336040516118e59493929190614bdf565b60405180910390a15050505050505050506112a360018055565b5f5b81518110156112a35761192c82828151811061191f5761191f614d91565b6020026020010151612a97565b600101611901565b5f8051602061522b83398151915261194b8161445a565b6001600160a01b0385166119935760405162461bcd60e51b815260206004820152600f60248201526e496e76616c6964204164647265737360881b6044820152606401610fe1565b6119a1600a620f4240614f0b565b8411156119e45760405162461bcd60e51b8152602060048201526011602482015270536574746c6520466565203c3d2031302560781b6044820152606401610fe1565b6119f2600a620f4240614f0b565b831115611a355760405162461bcd60e51b815260206004820152601160248201527043616e63656c20466565203c3d2031302560781b6044820152606401610fe1565b611a436064620f4240614f0b565b8210158015611a555750620f42408211155b611aa15760405162461bcd60e51b815260206004820152601860248201527f506c656467652052617465206f7574206f662072616e676500000000000000006044820152606401610fe1565b600c54600b54600a54600954604080516001600160a01b03958616815260208101949094528301919091526060820152908616608082015260a0810185905260c0810184905260e081018390527f72fe78202ae1d56b2334bc8c804db955e2349789b271b7f55e8109f7122f0a11906101000160405180910390a150600c80546001600160a01b0319166001600160a01b039590951694909417909355600b91909155600a55600955565b5f5b81518110156112a357611b79828281518110611b6c57611b6c614d91565b60200260200101516134f6565b600101611b4e565b5f8051602061522b833981519152611b988161445a565b620151808265ffffffffffff161015611bf35760405162461bcd60e51b815260206004820152601860248201527f4d696e696d756d2032346820666f7220736574746c696e6700000000000000006044820152606401610fe1565b5f83815260046020908152604091829020805465ffffffffffff868116600160d01b8181026001600160d01b03851617855586518a8152930490911693820184905293810193909352917fd5042937eda12ebddebb9d9ecaf0d88595a67d0d28513340610674acbd48274b906060015b60405180910390a15050505050565b8051825114611c935760405162461bcd60e51b8152600401610fe190614d6a565b5f5b8251811015611ce257611cda838281518110611cb357611cb3614d91565b6020026020010151838381518110611ccd57611ccd614d91565b602002602001015161149d565b600101611c95565b505050565b5f82815260208190526040902060010154611d018161445a565b611d0b83836144e9565b50505050565b6001600160a01b0381163314611d3a5760405163334bd91960e11b815260040160405180910390fd5b611ce28282614578565b5f5b81518110156112a357611d71828281518110611d6457611d64614d91565b6020026020010151613900565b600101611d46565b611da960405180608001604052805f81526020015f81526020015f81526020015f6001600160a01b031681525090565b50604080516080810182526009548152600a546020820152600b5491810191909152600c546001600160a01b0316606082015290565b5f8051602061522b833981519152611df68161445a565b5f8281526004602052604081206001808201549192600160981b90920460ff1691908214611e25576001611e28565b60025b905060ff821660011480611e3f575060ff82166002145b611e8b5760405162461bcd60e51b815260206004820152601a60248201527f43616e6e6f74204368616e676520546f6b656e205374617475730000000000006044820152606401610fe1565b60018301805460ff838116600160981b810260ff60981b19909316929092179092556040805188815292851660208401528201527f853e3a954af7889419a6922a1bc350b54c6217937a4a2aed1176ed3f5a1dfb5290606001611c63565b5f8051602061522b833981519152611f008161445a565b5f8281526004602052604090206001810154600160981b900460ff16600314611f625760405162461bcd60e51b8152602060048201526014602482015273496e76616c696420546f6b656e2053746174757360601b6044820152606401610fe1565b60018101805460ff60981b1916600160991b1790556040518381527f6ac56c552b96d07b41e8ee97200f747e7476892e0e2e53e9803199bfe014b0a8906020015b60405180910390a1505050565b611fb8613f93565b8051825114611fd95760405162461bcd60e51b8152600401610fe190614d6a565b5f5b8251811015611299575f838281518110611ff757611ff7614d91565b602002602001015190505f83838151811061201457612014614d91565b6020908102919091018101515f84815260058352604080822060018082015484526004909552912060078201549294509092909160ff16146120685760405162461bcd60e51b8152600401610fe190614da5565b600181810154600160981b900460ff16146120955760405162461bcd60e51b8152600401610fe190614dd3565b5f83116120b45760405162461bcd60e51b8152600401610fe190614e01565b82826006015483600301546120c99190614e3d565b10156120e75760405162461bcd60e51b8152600401610fe190614e50565b6007820154600160a81b900460ff1615806121055750828260030154145b6121215760405162461bcd60e51b8152600401610fe190614e87565b60028201546001600160a01b031661214b5760405162461bcd60e51b8152600401610fe190614eb3565b60028201546040805163313ce56760e01b815290516001600160a01b03909216915f91829182918291869163313ce5679160048083019260209291908290030181865afa15801561219e573d5f803e3d5ffd5b505050506040513d601f19601f820116820180604052508101906121c29190614f94565b875490915060ff165f1901612220575f87600301548989600501546121e79190614ee0565b6121f19190614f0b565b90506121ff81601284614194565b600789015490955061010090046001600160a01b031693503392505061226b565b5f87600301548989600401546122369190614ee0565b6122409190614f0b565b905061224e81601284614194565b945033600789015490945061010090046001600160a01b03169250505b612282335b6001600160a01b038716903087614227565b61228e89898585613fec565b505060019097019650611fdb95505050505050565b6122ab613f93565b5f8281526005602090815260408083206001808201548552600490935292206007830154909160ff909116146122f35760405162461bcd60e51b8152600401610fe190614da5565b600181810154600160981b900460ff16146123205760405162461bcd60e51b8152600401610fe190614dd3565b5f831161233f5760405162461bcd60e51b8152600401610fe190614e01565b82826006015483600301546123549190614e3d565b10156123725760405162461bcd60e51b8152600401610fe190614e50565b6007820154600160a81b900460ff1615806123905750828260030154145b6123ac5760405162461bcd60e51b8152600401610fe190614e87565b60028201546001600160a01b03166123d65760405162461bcd60e51b8152600401610fe190614eb3565b60028201546040805163313ce56760e01b815290516001600160a01b03909216915f91829182918291869163313ce5679160048083019260209291908290030181865afa158015612429573d5f803e3d5ffd5b505050506040513d601f19601f8201168201806040525081019061244d9190614f94565b875490915060ff165f19016124ab575f87600301548989600501546124729190614ee0565b61247c9190614f0b565b905061248a81601284614194565b600789015490955061010090046001600160a01b03169350339250506124f6565b5f87600301548989600401546124c19190614ee0565b6124cb9190614f0b565b90506124d981601284614194565b945033600789015490945061010090046001600160a01b03169250505b6124ff33612270565b61250b89898585613fec565b505050505050506112a360018055565b612523613f93565b5f8281526005602090815260408083206001808201548552600490935292206007830154909160ff9091161461256b5760405162461bcd60e51b8152600401610fe190614da5565b600181810154600160981b900460ff16146125985760405162461bcd60e51b8152600401610fe190614dd3565b5f83116125b75760405162461bcd60e51b8152600401610fe190614e01565b82826006015483600301546125cc9190614e3d565b10156125ea5760405162461bcd60e51b8152600401610fe190614e50565b6007820154600160a81b900460ff1615806126085750828260030154145b6126245760405162461bcd60e51b8152600401610fe190614e87565b60028201546001600160a01b03161561264f5760405162461bcd60e51b8152600401610fe190614eb3565b81545f908190819060ff165f19016126a05784600301548686600501546126769190614ee0565b6126809190614f0b565b600786015490935061010090046001600160a01b031691503390506126db565b84600301548686600401546126b59190614ee0565b6126bf9190614f0b565b925033600786015490925061010090046001600160a01b031690505b823410156126fb5760405162461bcd60e51b8152600401610fe190614f31565b82341115612779575f61270e8434614e3d565b6040519091505f90339083908381818185875af1925050503d805f8114612750576040519150601f19603f3d011682016040523d82523d5f602084013e612755565b606091505b50509050806127765760405162461bcd60e51b8152600401610fe190614f5d565b50505b61278587878484613fec565b50505050506112a360018055565b5f8051602061522b8339815191526127aa8161445a565b5f8481526004602052604090206001600160a01b03841661281f5760405162461bcd60e51b815260206004820152602960248201527f746f6b656e546f536574746c6550686173653a20496e76616c696420546f6b656044820152686e204164647265737360b81b6064820152608401610fe1565b5f836001600160981b0316116128865760405162461bcd60e51b815260206004820152602660248201527f746f6b656e546f536574746c6550686173653a496e76616c696420536574746c60448201526565205261746560d01b6064820152608401610fe1565b600181810154600160981b900460ff1614806128b057506001810154600160981b900460ff166002145b61290c5760405162461bcd60e51b815260206004820152602760248201527f746f6b656e546f536574746c6550686173653a496e76616c696420546f6b656e6044820152662053746174757360c81b6064820152608401610fe1565b80546001820180546001600160981b0386166001600160a01b03199091168117600360981b179091556001600160a01b0386166001600160d01b03199092168217600160a01b4265ffffffffffff81169190910291909117845560408051898152602081019490945283019190915260608201527f973839ac031e9779c3158a52ae98cb3b0be8a378b1adc2b2ce2c14f89c81489590608001611c63565b5f918252602082815260408084206001600160a01b0393909316845291905290205460ff1690565b5f8051602061522b8339815191526129e98161445a565b5f5b8351811015612a43578260025f868481518110612a0a57612a0a614d91565b6020908102919091018101516001600160a01b031682528101919091526040015f20805460ff19169115159190911790556001016129eb565b507f6a980e8ca36409cff27b8778560e2a0f5183fea53171bc0aeff7317906c7c1f48383604051611fa3929190615032565b5f8181526005602052604081206006810154600390910154610fb29190614e3d565b612a9f613f93565b5f8181526007602090815260408083208054845260058352818420600180820154865260049094529190932091820154909190600160981b900460ff16600314612afb5760405162461bcd60e51b8152600401610fe190614faf565b80546001600160a01b031615801590612b20575060018101546001600160981b031615155b612b5c5760405162461bcd60e51b815260206004820152600d60248201526c151bdad95b88139bdd0814d95d609a1b6044820152606401610fe1565b8054600160a01b900465ffffffffffff16612bb55760405162461bcd60e51b815260206004820152601960248201527814d95d1d1b1a5b99c8151a5b5948139bdd0814dd185c9d1959603a1b6044820152606401610fe1565b60028301546001600160a01b03163314612bff5760405162461bcd60e51b815260206004820152600b60248201526a53656c6c6572204f6e6c7960a81b6044820152606401610fe1565b6003830154600160a01b900460ff16600114612c2d5760405162461bcd60e51b8152600401610fe190614fd7565b60028201545f906001600160a01b0316612c4957506012612cc2565b826002015f9054906101000a90046001600160a01b03166001600160a01b031663313ce5676040518163ffffffff1660e01b8152600401602060405180830381865afa158015612c9b573d5f803e3d5ffd5b505050506040513d601f19601f82011682018060405250810190612cbf9190614f94565b90505b5f612cdf8460030154856005015487600101546116b29190614ee0565b90505f612cfe8560030154866004015488600101546116e39190614ee0565b84546040805163313ce56760e01b815290519293506001600160a01b03909116915f91839163313ce567916004808201926020929091908290030181865afa158015612d4c573d5f803e3d5ffd5b505050506040513d601f19601f82011682018060405250810190612d709190614f94565b600180880154908a01549192505f91612d9b91620f4240916116b2916001600160981b031690614ee0565b90505f620f424060096002015483612db39190614ee0565b612dbd9190614f0b565b60028b0154600c54919250612de2916001600160a01b03878116928116911684614227565b60028a015460038b0154612e19916001600160a01b039081169116612e078486614e3d565b6001600160a01b038816929190614227565b600b545f90620f424090612e2d9088614ee0565b612e379190614f0b565b90505f81612e458989614f1e565b612e4f9190614e3d565b60028c01549091506001600160a01b0316612f3c5760028c01546040515f916001600160a01b03169083908381818185875af1925050503d805f8114612eb0576040519150601f19603f3d011682016040523d82523d5f602084013e612eb5565b606091505b5050600c546040519192505f916001600160a01b039091169085908381818185875af1925050503d805f8114612f06576040519150601f19603f3d011682016040523d82523d5f602084013e612f0b565b606091505b50509050818015612f195750805b612f355760405162461bcd60e51b8152600401610fe190615005565b5050612f7b565b6002808c0154908d01546001600160a01b0391821691612f5f91839116846144b8565b600c54612f79906001600160a01b038381169116856144b8565b505b60038c01805460ff60a01b1916600160a11b1790557f94d22e970a1abb720b741045e471af3fa516f4e2ede6b665387332888f92f2138d828433604051612fc59493929190614bdf565b60405180910390a1505050505050505050505050612fe260018055565b50565b5f8051602061522b833981519152612ffc8161445a565b6001600160a01b0383161580159061302c57506001600160a01b0383165f9081526002602052604090205460ff16155b6130705760405162461bcd60e51b8152602060048201526015602482015274496e76616c696420546f6b656e204164647265737360581b6044820152606401610fe1565b6040516370a0823160e01b81523060048201525f906001600160a01b038516906370a0823190602401602060405180830381865afa1580156130b4573d5f803e3d5ffd5b505050506040513d601f19601f820116820180604052508101906130d8919061508a565b9050611d0b6001600160a01b03851684836144b8565b5f5b81518110156112a35761311b82828151811061310e5761310e614d91565b6020026020010151613147565b6001016130f0565b5f8281526020819052604090206001015461313d8161445a565b611d0b8383614578565b61314f613f93565b5f8051602061522b8339815191526131668161445a565b5f8281526007602090815260408083208054845260059092529091206003820154600160a01b900460ff166001146131b05760405162461bcd60e51b8152600401610fe190614fd7565b60028101545f906001600160a01b03166131cc57506012613245565b816002015f9054906101000a90046001600160a01b03166001600160a01b031663313ce5676040518163ffffffff1660e01b8152600401602060405180830381865afa15801561321e573d5f803e3d5ffd5b505050506040513d601f19601f820116820180604052508101906132429190614f94565b90505b5f6132628360030154846004015486600101546116b29190614ee0565b90505f6132818460030154856005015487600101546116e39190614ee0565b6003860154600280880154908701549293506001600160a01b03918216929082169116613427575f841180156132bf57506001600160a01b03821615155b15613365575f826001600160a01b0316856040515f6040518083038185875af1925050503d805f811461330d576040519150601f19603f3d011682016040523d82523d5f602084013e613312565b606091505b50509050806133635760405162461bcd60e51b815260206004820152601d60248201527f5472616e736665722046756e647320746f2053656c6c6572204661696c0000006044820152606401610fe1565b505b5f8311801561337c57506001600160a01b03811615155b15613422575f816001600160a01b0316846040515f6040518083038185875af1925050503d805f81146133ca576040519150601f19603f3d011682016040523d82523d5f602084013e6133cf565b606091505b50509050806134205760405162461bcd60e51b815260206004820152601d60248201527f5472616e736665722046756e647320746f2053656c6c6572204661696c0000006044820152606401610fe1565b505b613497565b60028601546001600160a01b0316841580159061344c57506001600160a01b03831615155b15613465576134656001600160a01b03821684876144b8565b5f8411801561347c57506001600160a01b03821615155b15613495576134956001600160a01b03821683866144b8565b505b60038701805460ff60a01b1916600360a01b179055604080518a81523360208201527f22369ba22944aadf9e9d6f4c51462417a50ea7876b9c62c7c46b5522e9c672cc91015b60405180910390a15050505050505050612fe260018055565b6134fe613f93565b5f8181526007602090815260408083208054845260058352818420600180820154865260049094529190932091820154909190600160981b900460ff1660031461355a5760405162461bcd60e51b8152600401610fe190614faf565b805461357e9065ffffffffffff600160d01b8204811691600160a01b9004166150a1565b65ffffffffffff1642116135d45760405162461bcd60e51b815260206004820152601b60248201527f536574746c696e672054696d65204e6f7420456e6465642059657400000000006044820152606401610fe1565b6003830154600160a01b900460ff166001146136025760405162461bcd60e51b8152600401610fe190614fd7565b60038301546001600160a01b031633148061362f575061362f5f8051602061522b833981519152336129aa565b6136745760405162461bcd60e51b81526020600482015260166024820152754275796572206f72204f70657261746f72204f6e6c7960501b6044820152606401610fe1565b60028201545f906001600160a01b031661369057506012613709565b826002015f9054906101000a90046001600160a01b03166001600160a01b031663313ce5676040518163ffffffff1660e01b8152600401602060405180830381865afa1580156136e2573d5f803e3d5ffd5b505050506040513d601f19601f820116820180604052508101906137069190614f94565b90505b5f6137268460030154856005015487600101546116b29190614ee0565b90505f6137458560030154866004015488600101546116e39190614ee0565b90505f620f42406009600201548461375d9190614ee0565b613768906002614ee0565b6137729190614f0b565b90505f816137808585614f1e565b61378a9190614e3d565b60028801549091506001600160a01b03166138775760038801546040515f916001600160a01b03169083908381818185875af1925050503d805f81146137eb576040519150601f19603f3d011682016040523d82523d5f602084013e6137f0565b606091505b5050600c546040519192505f916001600160a01b039091169085908381818185875af1925050503d805f8114613841576040519150601f19603f3d011682016040523d82523d5f602084013e613846565b606091505b505090508180156138545750805b6138705760405162461bcd60e51b8152600401610fe190615005565b50506138b6565b600287015460038901546001600160a01b039182169161389a91839116846144b8565b600c546138b4906001600160a01b038381169116856144b8565b505b60038801805460ff60a01b1916600360a01b1790557f6353c0ce500c8ea1f1026c8f39a6e0c2d1b2f17034fcd8a4b021c72e6e293e51898284336040516134dd9493929190614bdf565b613908613f93565b5f81815260056020526040902060078101546001600160a01b0361010090910416331461396a5760405162461bcd60e51b815260206004820152601060248201526f4f66666572204f776e6572204f6e6c7960801b6044820152606401610fe1565b600781015460ff166001146139915760405162461bcd60e51b8152600401610fe190614da5565b5f816006015482600301546139a69190614e3d565b90505f81116139c75760405162461bcd60e51b8152600401610fe190614e50565b60028201545f906001600160a01b03166139e357506012613a5c565b826002015f9054906101000a90046001600160a01b03166001600160a01b031663313ce5676040518163ffffffff1660e01b8152600401602060405180830381865afa158015613a35573d5f803e3d5ffd5b505050506040513d601f19601f82011682018060405250810190613a599190614f94565b90505b82545f9060ff165f1901613a8957613a8284600301548560040154856116b29190614ee0565b9050613aa4565b613aa184600301548560050154856116b29190614ee0565b90505b600a545f90620f424090613ab89084614ee0565b613ac29190614f0b565b9050613ace8183614e3d565b60028601549092506001600160a01b0316613bc05760078501546040515f9161010090046001600160a01b03169084908381818185875af1925050503d805f8114613b34576040519150601f19603f3d011682016040523d82523d5f602084013e613b39565b606091505b5050600c546040519192505f916001600160a01b039091169084908381818185875af1925050503d805f8114613b8a576040519150601f19603f3d011682016040523d82523d5f602084013e613b8f565b606091505b50509050818015613b9d5750805b613bb95760405162461bcd60e51b8152600401610fe190615005565b5050613c05565b600285015460078601546001600160a01b0391821691613be991839161010090910416856144b8565b600c54613c03906001600160a01b038381169116846144b8565b505b60078501805460ff191660031790557ff65e543d34c6936603a3741b3eace109133f172d25637c2445b95c1f3288e937868383613c3f3390565b604051613c4f9493929190614bdf565b60405180910390a15050505050612fe260018055565b5f8051602061522b833981519152613c7c8161445a565b620151808265ffffffffffff161015613ce55760405162461bcd60e51b815260206004820152602560248201527f637265617465546f6b656e3a204d696e696d756d2032346820666f7220736574604482015264746c696e6760d81b6064820152608401610fe1565b5f8381526003602052604090205460ff1615613d4d5760405162461bcd60e51b815260206004820152602160248201527f637265617465546f6b656e3a20546f6b656e20616c72656164792065786973746044820152607360f81b6064820152608401610fe1565b5f838152600360209081526040808320805460ff191660019081179091556004835292819020805465ffffffffffff8716600160d01b81026001600160d01b03909216919091178255938101805460ff60981b1916600160981b1790558151878152928301939093527f1da02fe9181848bf1b401dde762d155f0da084c24db69129a3c7479f970ddbcc910160405180910390a150505050565b613def613f93565b5f848152600460205260409020600180820154600160981b900460ff1614613e495760405162461bcd60e51b815260206004820152600d60248201526c24b73b30b634b2102a37b5b2b760991b6044820152606401610fe1565b5f84118015613e5757505f83115b613e9d5760405162461bcd60e51b8152602060048201526017602482015276496e76616c696420416d6f756e74206f722056616c756560481b6044820152606401610fe1565b6009545f90620f424090613eb19086614ee0565b613ebb9190614f0b565b90505f60ff8816600114613ecf5781613ed1565b845b905034811115613ef35760405162461bcd60e51b8152600401610fe190614f31565b80341115613f71575f613f068234614e3d565b6040519091505f90339083908381818185875af1925050503d805f8114613f48576040519150601f19603f3d011682016040523d82523d5f602084013e613f4d565b606091505b5050905080613f6e5760405162461bcd60e51b8152600401610fe190614f5d565b50505b613f8088885f8989878a61428e565b505050613f8c60018055565b5050505050565b600260015403613fe55760405162461bcd60e51b815260206004820152601f60248201527f5265656e7472616e637947756172643a207265656e7472616e742063616c6c006044820152606401610fe1565b6002600155565b5f60055f8681526020019081526020015f2090506040518060a00160405280868152602001858152602001836001600160a01b03168152602001846001600160a01b03168152602001600160ff1681525060075f60085f815461404e906150c7565b9182905550815260208082019290925260409081015f90812084518155928401516001840155908301516002830180546001600160a01b039283166001600160a01b031990911617905560608401516003909301805460809095015160ff16600160a01b026001600160a81b031990951693909116929092179290921790556006820180548692906140e1908490614f1e565b9091555050600381015460068201540361413d5760078101805460ff19166002179055604080518681525f60208201527f37a30d6e3fcaec3144b11d51892b9eadbb0ec4d2a8a813d64bb6065c3adfcffa910160405180910390a15b600854604080519182526020820187905281018590526001600160a01b038084166060830152841660808201527fdc3effd7f2b46d1989f8b9ec5abba2e3c07eaa9caa9511c8af3c9444ecbb52f29060a001611c63565b5f8160ff168360ff16036141a9575082614220565b8160ff168360ff1610156141dd576141c183836150df565b6141cc90600a6151d8565b6141d69085614ee0565b9050614220565b5f6141e883856150df565b6141f390600a6151d8565b90506141ff8186614f0b565b915061420b81866151e6565b1561421e5761421b600183614f1e565b91505b505b9392505050565b6040516001600160a01b038481166024830152838116604483015260648201839052611d0b9186918216906323b872dd906084015b604051602081830303815290604052915060e01b6020820180516001600160e01b0383818316178352505050506145e1565b6040518061014001604052808860ff168152602001878152602001866001600160a01b031681526020018581526020018481526020018381526020015f8152602001600160ff1681526020016142e13390565b6001600160a01b0316815260200182151581525060055f60065f8154614306906150c7565b9182905550815260208082019290925260409081015f208351815460ff191660ff918216178255928401516001820155908301516002820180546001600160a01b0319166001600160a01b03928316179055606084015160038301556080840151600483015560a0840151600583015560c084015160068084019190915560e0850151600790930180546101008088015161012090980151959096166001600160a81b031990911617959092169093029390931760ff60a81b1916600160a81b9115159190910217909155547f8f8f88015929d8eeb82fcc5c324b9713dc52572eae5cf9e6e80f7e2d81ae089890888888888888883360408051998a5260ff90981660208a0152968801959095526001600160a01b039384166060880152608087019290925260a086015260c085015290151560e0840152166101008201526101200160405180910390a150505050505050565b612fe28133614642565b5f8160ff168360ff1603614479575082614220565b8160ff168360ff161015614491576141c183836150df565b61449b82846150df565b6144a690600a6151d8565b6144b09085614f0b565b949350505050565b6040516001600160a01b03838116602483015260448201839052611ce291859182169063a9059cbb9060640161425c565b5f6144f483836129aa565b614571575f838152602081815260408083206001600160a01b03861684529091529020805460ff191660011790556145293390565b6001600160a01b0316826001600160a01b0316847f2f8788117e7eff1d82e926ec794901d17c78024a50270940304540a733656f0d60405160405180910390a4506001610fb2565b505f610fb2565b5f61458383836129aa565b15614571575f838152602081815260408083206001600160a01b0386168085529252808320805460ff1916905551339286917ff6391f5c32d9c69d2a47ea670b442974b53935d1edc7fd64eb21e047a839171b9190a4506001610fb2565b5f6145f56001600160a01b0384168361467b565b905080515f1415801561461957508080602001905181019061461791906151f9565b155b15611ce257604051635274afe760e01b81526001600160a01b0384166004820152602401610fe1565b61464c82826129aa565b6112a35760405163e2517d3f60e01b81526001600160a01b038216600482015260248101839052604401610fe1565b606061422083835f845f80856001600160a01b0316848660405161469f9190615214565b5f6040518083038185875af1925050503d805f81146146d9576040519150601f19603f3d011682016040523d82523d5f602084013e6146de565b606091505b50915091506146ee8683836146f8565b9695505050505050565b60608261470d5761470882614754565b614220565b815115801561472457506001600160a01b0384163b155b1561474d57604051639996b31560e01b81526001600160a01b0385166004820152602401610fe1565b5080614220565b8051156147645780518082602001fd5b604051630a12f52160e11b815260040160405180910390fd5b5f6020828403121561478d575f80fd5b81356001600160e01b031981168114614220575f80fd5b634e487b7160e01b5f52604160045260245ffd5b604051601f8201601f1916810167ffffffffffffffff811182821017156147e1576147e16147a4565b604052919050565b5f67ffffffffffffffff821115614802576148026147a4565b5060051b60200190565b5f82601f83011261481b575f80fd5b8135602061483061482b836147e9565b6147b8565b8083825260208201915060208460051b870101935086841115614851575f80fd5b602086015b8481101561486d5780358352918301918301614856565b509695505050505050565b5f8060408385031215614889575f80fd5b823567ffffffffffffffff808211156148a0575f80fd5b6148ac8683870161480c565b935060208501359150808211156148c1575f80fd5b506148ce8582860161480c565b9150509250929050565b60ff81168114612fe2575f80fd5b80356001600160a01b03811681146148fc575f80fd5b919050565b8015158114612fe2575f80fd5b80356148fc81614901565b5f805f805f8060c0878903121561492e575f80fd5b8635614939816148d8565b955060208701359450604087013593506060870135925061495c608088016148e6565b915060a087013561496c81614901565b809150509295509295509295565b5f806040838503121561498b575f80fd5b50508035926020909101359150565b5f602082840312156149aa575f80fd5b813567ffffffffffffffff8111156149c0575f80fd5b6144b08482850161480c565b5f602082840312156149dc575f80fd5b5035919050565b5f805f80608085870312156149f6575f80fd5b6149ff856148e6565b966020860135965060408601359560600135945092505050565b5f8060408385031215614a2a575f80fd5b82359150602083013565ffffffffffff81168114614a46575f80fd5b809150509250929050565b5f8060408385031215614a62575f80fd5b823567ffffffffffffffff80821115614a79575f80fd5b614a858683870161480c565b9350602091508185013581811115614a9b575f80fd5b85019050601f81018613614aad575f80fd5b8035614abb61482b826147e9565b81815260059190911b82018301908381019088831115614ad9575f80fd5b928401925b82841015614af757833582529284019290840190614ade565b80955050505050509250929050565b5f8060408385031215614b17575f80fd5b82359150614b27602084016148e6565b90509250929050565b5f60208284031215614b40575f80fd5b614220826148e6565b815160ff1681526101408101602083015160208301526040830151614b7960408401826001600160a01b03169052565b50606083015160608301526080830151608083015260a083015160a083015260c083015160c083015260e0830151614bb660e084018260ff169052565b50610100838101516001600160a01b031690830152610120928301511515929091019190915290565b938452602084019290925260408301526001600160a01b0316606082015260800190565b5f805f60608486031215614c15575f80fd5b83359250614c25602085016148e6565b915060408401356001600160981b0381168114614c40575f80fd5b809150509250925092565b5f8060408385031215614c5c575f80fd5b823567ffffffffffffffff811115614c72575f80fd5b8301601f81018513614c82575f80fd5b80356020614c9261482b836147e9565b82815260059290921b83018101918181019088841115614cb0575f80fd5b938201935b83851015614cd557614cc6856148e6565b82529382019390820190614cb5565b9550614ce4905086820161490e565b93505050509250929050565b5f8060408385031215614d01575f80fd5b614d0a836148e6565b9150614b27602084016148e6565b5f805f805f60a08688031215614d2c575f80fd5b8535614d37816148d8565b94506020860135935060408601359250606086013591506080860135614d5c81614901565b809150509295509295909350565b6020808252600d908201526c125b9d985b1a5908125b9c1d5d609a1b604082015260600190565b634e487b7160e01b5f52603260045260245ffd5b602080825260149082015273496e76616c6964204f666665722053746174757360601b604082015260600190565b602080825260149082015273496e76616c696420746f6b656e2053746174757360601b604082015260600190565b6020808252600e908201526d125b9d985b1a5908105b5bdd5b9d60921b604082015260600190565b634e487b7160e01b5f52601160045260245ffd5b81810381811115610fb257610fb2614e29565b60208082526018908201527f496e73756666696369656e7420416c6c6f636174696f6e730000000000000000604082015260600190565b602080825260129082015271119d5b1b13585d18da081c995c5d5a5c995960721b604082015260600190565b60208082526013908201527224b73b30b634b21027b33332b9102a37b5b2b760691b604082015260600190565b8082028115828204841417610fb257610fb2614e29565b634e487b7160e01b5f52601260045260245ffd5b5f82614f1957614f19614ef7565b500490565b80820180821115610fb257610fb2614e29565b602080825260129082015271496e73756666696369656e742046756e647360701b604082015260600190565b6020808252601b908201527f526566756e64206f662065786365737320455448206661696c65640000000000604082015260600190565b5f60208284031215614fa4575f80fd5b8151614220816148d8565b6020808252600e908201526d496e76616c69642053746174757360901b604082015260600190565b602080825260149082015273496e76616c6964204f726465722053746174757360601b604082015260600190565b602080825260139082015272151c985b9cd9995c88119d5b991cc811985a5b606a1b604082015260600190565b604080825283519082018190525f906020906060840190828701845b828110156150735781516001600160a01b03168452928401929084019060010161504e565b505050809250505082151560208301529392505050565b5f6020828403121561509a575f80fd5b5051919050565b65ffffffffffff8181168382160190808211156150c0576150c0614e29565b5092915050565b5f600182016150d8576150d8614e29565b5060010190565b60ff8281168282160390811115610fb257610fb2614e29565b600181815b8085111561513257815f190482111561511857615118614e29565b8085161561512557918102915b93841c93908002906150fd565b509250929050565b5f8261514857506001610fb2565b8161515457505f610fb2565b816001811461516a576002811461517457615190565b6001915050610fb2565b60ff84111561518557615185614e29565b50506001821b610fb2565b5060208310610133831016604e8410600b84101617156151b3575081810a610fb2565b6151bd83836150f8565b805f19048211156151d0576151d0614e29565b029392505050565b5f61422060ff84168361513a565b5f826151f4576151f4614ef7565b500690565b5f60208284031215615209575f80fd5b815161422081614901565b5f82518060208501845e5f92019182525091905056fe97667070c54ef182b0f5858b034beac1b6f3089aa2d3188bb1e8929f4fa9b929a2646970667358221220f92b4eedfdf5b80579d70c6d52a9fa98f6489c829451d522575f003b63fb9be764736f6c63430008190033",
			"opcodes": "PUSH1 0x80 PUSH1 0x40 MSTORE CALLVALUE DUP1 ISZERO PUSH2 0xF JUMPI PUSH0 DUP1 REVERT JUMPDEST POP PUSH1 0x40 MLOAD PUSH2 0x552D CODESIZE SUB DUP1 PUSH2 0x552D DUP4 CODECOPY DUP2 ADD PUSH1 0x40 DUP2 SWAP1 MSTORE PUSH2 0x2E SWAP2 PUSH2 0x250 JUMP JUMPDEST PUSH1 0x1 DUP1 SSTORE PUSH1 0x1 PUSH1 0x1 PUSH1 0xA0 SHL SUB DUP3 AND PUSH2 0x9E JUMPI PUSH1 0x40 MLOAD PUSH3 0x461BCD PUSH1 0xE5 SHL DUP2 MSTORE PUSH1 0x20 PUSH1 0x4 DUP3 ADD MSTORE PUSH1 0x28 PUSH1 0x24 DUP3 ADD MSTORE PUSH32 0x41646D696E20616464726573732063616E6E6F7420626520746865207A65726F PUSH1 0x44 DUP3 ADD MSTORE PUSH8 0x2061646472657373 PUSH1 0xC0 SHL PUSH1 0x64 DUP3 ADD MSTORE PUSH1 0x84 ADD JUMPDEST PUSH1 0x40 MLOAD DUP1 SWAP2 SUB SWAP1 REVERT JUMPDEST PUSH1 0x1 PUSH1 0x1 PUSH1 0xA0 SHL SUB DUP2 AND PUSH2 0x10A JUMPI PUSH1 0x40 MLOAD PUSH3 0x461BCD PUSH1 0xE5 SHL DUP2 MSTORE PUSH1 0x20 PUSH1 0x4 DUP3 ADD MSTORE PUSH1 0x2D PUSH1 0x24 DUP3 ADD MSTORE PUSH32 0x4665652077616C6C657420616464726573732063616E6E6F7420626520746865 PUSH1 0x44 DUP3 ADD MSTORE PUSH13 0x207A65726F2061646472657373 PUSH1 0x98 SHL PUSH1 0x64 DUP3 ADD MSTORE PUSH1 0x84 ADD PUSH2 0x95 JUMP JUMPDEST PUSH2 0x114 PUSH0 DUP4 PUSH2 0x18C JUMP JUMPDEST POP PUSH2 0x13F PUSH32 0x97667070C54EF182B0F5858B034BEAC1B6F3089AA2D3188BB1E8929F4FA9B929 DUP4 PUSH2 0x18C JUMP JUMPDEST POP PUSH3 0xF4240 PUSH1 0x9 DUP2 SWAP1 SSTORE PUSH1 0xC DUP1 SLOAD PUSH1 0x1 PUSH1 0x1 PUSH1 0xA0 SHL SUB NOT AND PUSH1 0x1 PUSH1 0x1 PUSH1 0xA0 SHL SUB DUP5 AND OR SWAP1 SSTORE PUSH2 0x170 SWAP1 PUSH1 0x28 SWAP1 PUSH2 0x281 JUMP JUMPDEST PUSH1 0xB SSTORE PUSH2 0x181 PUSH1 0xC8 PUSH3 0xF4240 PUSH2 0x281 JUMP JUMPDEST PUSH1 0xA SSTORE POP PUSH2 0x2A0 SWAP1 POP JUMP JUMPDEST PUSH0 DUP3 DUP2 MSTORE PUSH1 0x20 DUP2 DUP2 MSTORE PUSH1 0x40 DUP1 DUP4 KECCAK256 PUSH1 0x1 PUSH1 0x1 PUSH1 0xA0 SHL SUB DUP6 AND DUP5 MSTORE SWAP1 SWAP2 MSTORE DUP2 KECCAK256 SLOAD PUSH1 0xFF AND PUSH2 0x22C JUMPI PUSH0 DUP4 DUP2 MSTORE PUSH1 0x20 DUP2 DUP2 MSTORE PUSH1 0x40 DUP1 DUP4 KECCAK256 PUSH1 0x1 PUSH1 0x1 PUSH1 0xA0 SHL SUB DUP7 AND DUP5 MSTORE SWAP1 SWAP2 MSTORE SWAP1 KECCAK256 DUP1 SLOAD PUSH1 0xFF NOT AND PUSH1 0x1 OR SWAP1 SSTORE PUSH2 0x1E4 CALLER SWAP1 JUMP JUMPDEST PUSH1 0x1 PUSH1 0x1 PUSH1 0xA0 SHL SUB AND DUP3 PUSH1 0x1 PUSH1 0x1 PUSH1 0xA0 SHL SUB AND DUP5 PUSH32 0x2F8788117E7EFF1D82E926EC794901D17C78024A50270940304540A733656F0D PUSH1 0x40 MLOAD PUSH1 0x40 MLOAD DUP1 SWAP2 SUB SWAP1 LOG4 POP PUSH1 0x1 PUSH2 0x22F JUMP JUMPDEST POP PUSH0 JUMPDEST SWAP3 SWAP2 POP POP JUMP JUMPDEST DUP1 MLOAD PUSH1 0x1 PUSH1 0x1 PUSH1 0xA0 SHL SUB DUP2 AND DUP2 EQ PUSH2 0x24B JUMPI PUSH0 DUP1 REVERT JUMPDEST SWAP2 SWAP1 POP JUMP JUMPDEST PUSH0 DUP1 PUSH1 0x40 DUP4 DUP6 SUB SLT ISZERO PUSH2 0x261 JUMPI PUSH0 DUP1 REVERT JUMPDEST PUSH2 0x26A DUP4 PUSH2 0x235 JUMP JUMPDEST SWAP2 POP PUSH2 0x278 PUSH1 0x20 DUP5 ADD PUSH2 0x235 JUMP JUMPDEST SWAP1 POP SWAP3 POP SWAP3 SWAP1 POP JUMP JUMPDEST PUSH0 DUP3 PUSH2 0x29B JUMPI PUSH4 0x4E487B71 PUSH1 0xE0 SHL PUSH0 MSTORE PUSH1 0x12 PUSH1 0x4 MSTORE PUSH1 0x24 PUSH0 REVERT JUMPDEST POP DIV SWAP1 JUMP JUMPDEST PUSH2 0x5280 DUP1 PUSH2 0x2AD PUSH0 CODECOPY PUSH0 RETURN INVALID PUSH1 0x80 PUSH1 0x40 MSTORE PUSH1 0x4 CALLDATASIZE LT PUSH2 0x341 JUMPI PUSH0 CALLDATALOAD PUSH1 0xE0 SHR DUP1 PUSH4 0x79502C55 GT PUSH2 0x1BD JUMPI DUP1 PUSH4 0xCFCDEB7E GT PUSH2 0xF2 JUMPI DUP1 PUSH4 0xE7A75949 GT PUSH2 0x92 JUMPI DUP1 PUSH4 0xF1EE8FDD GT PUSH2 0x6D JUMPI DUP1 PUSH4 0xF1EE8FDD EQ PUSH2 0xF02 JUMPI DUP1 PUSH4 0xF564F0AE EQ PUSH2 0xF21 JUMPI DUP1 PUSH4 0xF5B541A6 EQ PUSH2 0xF34 JUMPI DUP1 PUSH4 0xFFB12676 EQ PUSH2 0xF54 JUMPI PUSH0 DUP1 REVERT JUMPDEST DUP1 PUSH4 0xE7A75949 EQ PUSH2 0xD9A JUMPI DUP1 PUSH4 0xEF706ADF EQ PUSH2 0xDC8 JUMPI DUP1 PUSH4 0xF0170150 EQ PUSH2 0xDE7 JUMPI PUSH0 DUP1 REVERT JUMPDEST DUP1 PUSH4 0xDC8BEEA9 GT PUSH2 0xCD JUMPI DUP1 PUSH4 0xDC8BEEA9 EQ PUSH2 0xCDF JUMPI DUP1 PUSH4 0xDEB2EC6A EQ PUSH2 0xD2E JUMPI DUP1 PUSH4 0xE3DF748A EQ PUSH2 0xD4D JUMPI DUP1 PUSH4 0xE4CB62C0 EQ PUSH2 0xD7B JUMPI PUSH0 DUP1 REVERT JUMPDEST DUP1 PUSH4 0xCFCDEB7E EQ PUSH2 0xC70 JUMPI DUP1 PUSH4 0xD547741F EQ PUSH2 0xC8F JUMPI DUP1 PUSH4 0xD843B2C7 EQ PUSH2 0xCAE JUMPI PUSH0 DUP1 REVERT JUMPDEST DUP1 PUSH4 0x985A7C1D GT PUSH2 0x15D JUMPI DUP1 PUSH4 0xA85C38EF GT PUSH2 0x138 JUMPI DUP1 PUSH4 0xA85C38EF EQ PUSH2 0xB6A JUMPI DUP1 PUSH4 0xAAAB596A EQ PUSH2 0xBFA JUMPI DUP1 PUSH4 0xBC205AD3 EQ PUSH2 0xC19 JUMPI DUP1 PUSH4 0xBFF49450 EQ PUSH2 0xC38 JUMPI PUSH0 DUP1 REVERT JUMPDEST DUP1 PUSH4 0x985A7C1D EQ PUSH2 0xB19 JUMPI DUP1 PUSH4 0xA1BD91E1 EQ PUSH2 0xB38 JUMPI DUP1 PUSH4 0xA217FDDF EQ PUSH2 0xB57 JUMPI PUSH0 DUP1 REVERT JUMPDEST DUP1 PUSH4 0x86AA7DB0 GT PUSH2 0x198 JUMPI DUP1 PUSH4 0x86AA7DB0 EQ PUSH2 0x93F JUMPI DUP1 PUSH4 0x8A72EA6A EQ PUSH2 0x95E JUMPI DUP1 PUSH4 0x904194A3 EQ PUSH2 0xA42 JUMPI DUP1 PUSH4 0x91D14854 EQ PUSH2 0xAFA JUMPI PUSH0 DUP1 REVERT JUMPDEST DUP1 PUSH4 0x79502C55 EQ PUSH2 0x8C3 JUMPI DUP1 PUSH4 0x81CC37B2 EQ PUSH2 0x8FE JUMPI DUP1 PUSH4 0x82DC4A05 EQ PUSH2 0x911 JUMPI PUSH0 DUP1 REVERT JUMPDEST DUP1 PUSH4 0x36568ABE GT PUSH2 0x293 JUMPI DUP1 PUSH4 0x643268C9 GT PUSH2 0x233 JUMPI DUP1 PUSH4 0x7400F52D GT PUSH2 0x20E JUMPI DUP1 PUSH4 0x7400F52D EQ PUSH2 0x771 JUMPI DUP1 PUSH4 0x75B5908A EQ PUSH2 0x790 JUMPI DUP1 PUSH4 0x78447E7F EQ PUSH2 0x7AF JUMPI DUP1 PUSH4 0x7857F9FB EQ PUSH2 0x7CE JUMPI PUSH0 DUP1 REVERT JUMPDEST DUP1 PUSH4 0x643268C9 EQ PUSH2 0x6ED JUMPI DUP1 PUSH4 0x670017F4 EQ PUSH2 0x702 JUMPI DUP1 PUSH4 0x6A951F20 EQ PUSH2 0x752 JUMPI PUSH0 DUP1 REVERT JUMPDEST DUP1 PUSH4 0x4A99533B GT PUSH2 0x26E JUMPI DUP1 PUSH4 0x4A99533B EQ PUSH2 0x674 JUMPI DUP1 PUSH4 0x4AE25A86 EQ PUSH2 0x688 JUMPI DUP1 PUSH4 0x5662ECC7 EQ PUSH2 0x6A7 JUMPI DUP1 PUSH4 0x5D3473E3 EQ PUSH2 0x6BC JUMPI PUSH0 DUP1 REVERT JUMPDEST DUP1 PUSH4 0x36568ABE EQ PUSH2 0x507 JUMPI DUP1 PUSH4 0x3B6E750F EQ PUSH2 0x526 JUMPI DUP1 PUSH4 0x3BAF6784 EQ PUSH2 0x55D JUMPI PUSH0 DUP1 REVERT JUMPDEST DUP1 PUSH4 0x1F25A2D8 GT PUSH2 0x2FE JUMPI DUP1 PUSH4 0x248A9CA3 GT PUSH2 0x2D9 JUMPI DUP1 PUSH4 0x248A9CA3 EQ PUSH2 0x479 JUMPI DUP1 PUSH4 0x2D670584 EQ PUSH2 0x4B5 JUMPI DUP1 PUSH4 0x2F2FF15D EQ PUSH2 0x4D4 JUMPI DUP1 PUSH4 0x31A37C1E EQ PUSH2 0x4F3 JUMPI PUSH0 DUP1 REVERT JUMPDEST DUP1 PUSH4 0x1F25A2D8 EQ PUSH2 0x41C JUMPI DUP1 PUSH4 0x1F4846D8 EQ PUSH2 0x43B JUMPI DUP1 PUSH4 0x21146FA2 EQ PUSH2 0x45A JUMPI PUSH0 DUP1 REVERT JUMPDEST DUP1 PUSH4 0x1FFC9A7 EQ PUSH2 0x345 JUMPI DUP1 PUSH4 0x6F13DA9 EQ PUSH2 0x379 JUMPI DUP1 PUSH4 0xB8AACB9 EQ PUSH2 0x38E JUMPI DUP1 PUSH4 0x16B4CDB2 EQ PUSH2 0x3AD JUMPI DUP1 PUSH4 0x17B137BA EQ PUSH2 0x3CC JUMPI DUP1 PUSH4 0x18B4F367 EQ PUSH2 0x3EB JUMPI JUMPDEST PUSH0 DUP1 REVERT JUMPDEST CALLVALUE DUP1 ISZERO PUSH2 0x350 JUMPI PUSH0 DUP1 REVERT JUMPDEST POP PUSH2 0x364 PUSH2 0x35F CALLDATASIZE PUSH1 0x4 PUSH2 0x477D JUMP JUMPDEST PUSH2 0xF82 JUMP JUMPDEST PUSH1 0x40 MLOAD SWAP1 ISZERO ISZERO DUP2 MSTORE PUSH1 0x20 ADD JUMPDEST PUSH1 0x40 MLOAD DUP1 SWAP2 SUB SWAP1 RETURN JUMPDEST PUSH2 0x38C PUSH2 0x387 CALLDATASIZE PUSH1 0x4 PUSH2 0x4878 JUMP JUMPDEST PUSH2 0xFB8 JUMP JUMPDEST STOP JUMPDEST CALLVALUE DUP1 ISZERO PUSH2 0x399 JUMPI PUSH0 DUP1 REVERT JUMPDEST POP PUSH2 0x38C PUSH2 0x3A8 CALLDATASIZE PUSH1 0x4 PUSH2 0x4919 JUMP JUMPDEST PUSH2 0x12A7 JUMP JUMPDEST CALLVALUE DUP1 ISZERO PUSH2 0x3B8 JUMPI PUSH0 DUP1 REVERT JUMPDEST POP PUSH2 0x38C PUSH2 0x3C7 CALLDATASIZE PUSH1 0x4 PUSH2 0x497A JUMP JUMPDEST PUSH2 0x149D JUMP JUMPDEST CALLVALUE DUP1 ISZERO PUSH2 0x3D7 JUMPI PUSH0 DUP1 REVERT JUMPDEST POP PUSH2 0x38C PUSH2 0x3E6 CALLDATASIZE PUSH1 0x4 PUSH2 0x499A JUMP JUMPDEST PUSH2 0x18FF JUMP JUMPDEST CALLVALUE DUP1 ISZERO PUSH2 0x3F6 JUMPI PUSH0 DUP1 REVERT JUMPDEST POP PUSH2 0x364 PUSH2 0x405 CALLDATASIZE PUSH1 0x4 PUSH2 0x49CC JUMP JUMPDEST PUSH0 SWAP1 DUP2 MSTORE PUSH1 0x5 PUSH1 0x20 MSTORE PUSH1 0x40 SWAP1 KECCAK256 SLOAD PUSH1 0xFF AND PUSH1 0x2 EQ SWAP1 JUMP JUMPDEST CALLVALUE DUP1 ISZERO PUSH2 0x427 JUMPI PUSH0 DUP1 REVERT JUMPDEST POP PUSH2 0x38C PUSH2 0x436 CALLDATASIZE PUSH1 0x4 PUSH2 0x49E3 JUMP JUMPDEST PUSH2 0x1934 JUMP JUMPDEST CALLVALUE DUP1 ISZERO PUSH2 0x446 JUMPI PUSH0 DUP1 REVERT JUMPDEST POP PUSH2 0x38C PUSH2 0x455 CALLDATASIZE PUSH1 0x4 PUSH2 0x499A JUMP JUMPDEST PUSH2 0x1B4C JUMP JUMPDEST CALLVALUE DUP1 ISZERO PUSH2 0x465 JUMPI PUSH0 DUP1 REVERT JUMPDEST POP PUSH2 0x38C PUSH2 0x474 CALLDATASIZE PUSH1 0x4 PUSH2 0x4A19 JUMP JUMPDEST PUSH2 0x1B81 JUMP JUMPDEST CALLVALUE DUP1 ISZERO PUSH2 0x484 JUMPI PUSH0 DUP1 REVERT JUMPDEST POP PUSH2 0x4A7 PUSH2 0x493 CALLDATASIZE PUSH1 0x4 PUSH2 0x49CC JUMP JUMPDEST PUSH0 SWAP1 DUP2 MSTORE PUSH1 0x20 DUP2 SWAP1 MSTORE PUSH1 0x40 SWAP1 KECCAK256 PUSH1 0x1 ADD SLOAD SWAP1 JUMP JUMPDEST PUSH1 0x40 MLOAD SWAP1 DUP2 MSTORE PUSH1 0x20 ADD PUSH2 0x370 JUMP JUMPDEST CALLVALUE DUP1 ISZERO PUSH2 0x4C0 JUMPI PUSH0 DUP1 REVERT JUMPDEST POP PUSH2 0x38C PUSH2 0x4CF CALLDATASIZE PUSH1 0x4 PUSH2 0x4A51 JUMP JUMPDEST PUSH2 0x1C72 JUMP JUMPDEST CALLVALUE DUP1 ISZERO PUSH2 0x4DF JUMPI PUSH0 DUP1 REVERT JUMPDEST POP PUSH2 0x38C PUSH2 0x4EE CALLDATASIZE PUSH1 0x4 PUSH2 0x4B06 JUMP JUMPDEST PUSH2 0x1CE7 JUMP JUMPDEST CALLVALUE DUP1 ISZERO PUSH2 0x4FE JUMPI PUSH0 DUP1 REVERT JUMPDEST POP PUSH1 0x8 SLOAD PUSH2 0x4A7 JUMP JUMPDEST CALLVALUE DUP1 ISZERO PUSH2 0x512 JUMPI PUSH0 DUP1 REVERT JUMPDEST POP PUSH2 0x38C PUSH2 0x521 CALLDATASIZE PUSH1 0x4 PUSH2 0x4B06 JUMP JUMPDEST PUSH2 0x1D11 JUMP JUMPDEST CALLVALUE DUP1 ISZERO PUSH2 0x531 JUMPI PUSH0 DUP1 REVERT JUMPDEST POP PUSH2 0x364 PUSH2 0x540 CALLDATASIZE PUSH1 0x4 PUSH2 0x4B30 JUMP JUMPDEST PUSH1 0x1 PUSH1 0x1 PUSH1 0xA0 SHL SUB AND PUSH0 SWAP1 DUP2 MSTORE PUSH1 0x2 PUSH1 0x20 MSTORE PUSH1 0x40 SWAP1 KECCAK256 SLOAD PUSH1 0xFF AND SWAP1 JUMP JUMPDEST CALLVALUE DUP1 ISZERO PUSH2 0x568 JUMPI PUSH0 DUP1 REVERT JUMPDEST POP PUSH2 0x667 PUSH2 0x577 CALLDATASIZE PUSH1 0x4 PUSH2 0x49CC JUMP JUMPDEST PUSH1 0x40 DUP1 MLOAD PUSH2 0x140 DUP2 ADD DUP3 MSTORE PUSH0 DUP1 DUP3 MSTORE PUSH1 0x20 DUP3 ADD DUP2 SWAP1 MSTORE SWAP2 DUP2 ADD DUP3 SWAP1 MSTORE PUSH1 0x60 DUP2 ADD DUP3 SWAP1 MSTORE PUSH1 0x80 DUP2 ADD DUP3 SWAP1 MSTORE PUSH1 0xA0 DUP2 ADD DUP3 SWAP1 MSTORE PUSH1 0xC0 DUP2 ADD DUP3 SWAP1 MSTORE PUSH1 0xE0 DUP2 ADD DUP3 SWAP1 MSTORE PUSH2 0x100 DUP2 ADD DUP3 SWAP1 MSTORE PUSH2 0x120 DUP2 ADD SWAP2 SWAP1 SWAP2 MSTORE POP PUSH0 SWAP1 DUP2 MSTORE PUSH1 0x5 PUSH1 0x20 DUP2 DUP2 MSTORE PUSH1 0x40 SWAP3 DUP4 SWAP1 KECCAK256 DUP4 MLOAD PUSH2 0x140 DUP2 ADD DUP6 MSTORE DUP2 SLOAD PUSH1 0xFF SWAP1 DUP2 AND DUP3 MSTORE PUSH1 0x1 DUP4 ADD SLOAD SWAP4 DUP3 ADD SWAP4 SWAP1 SWAP4 MSTORE PUSH1 0x2 DUP3 ADD SLOAD PUSH1 0x1 PUSH1 0x1 PUSH1 0xA0 SHL SUB SWAP1 DUP2 AND SWAP6 DUP3 ADD SWAP6 SWAP1 SWAP6 MSTORE PUSH1 0x3 DUP3 ADD SLOAD PUSH1 0x60 DUP3 ADD MSTORE PUSH1 0x4 DUP3 ADD SLOAD PUSH1 0x80 DUP3 ADD MSTORE SWAP3 DUP2 ADD SLOAD PUSH1 0xA0 DUP5 ADD MSTORE PUSH1 0x6 DUP2 ADD SLOAD PUSH1 0xC0 DUP5 ADD MSTORE PUSH1 0x7 ADD SLOAD DUP1 DUP3 AND PUSH1 0xE0 DUP5 ADD MSTORE PUSH2 0x100 DUP1 DUP3 DIV SWAP1 SWAP5 AND SWAP4 DUP4 ADD SWAP4 SWAP1 SWAP4 MSTORE PUSH1 0x1 PUSH1 0xA8 SHL SWAP1 SWAP3 DIV SWAP1 SWAP2 AND ISZERO ISZERO PUSH2 0x120 DUP3 ADD MSTORE SWAP1 JUMP JUMPDEST PUSH1 0x40 MLOAD PUSH2 0x370 SWAP2 SWAP1 PUSH2 0x4B49 JUMP JUMPDEST CALLVALUE DUP1 ISZERO PUSH2 0x67F JUMPI PUSH0 DUP1 REVERT JUMPDEST POP PUSH1 0x6 SLOAD PUSH2 0x4A7 JUMP JUMPDEST CALLVALUE DUP1 ISZERO PUSH2 0x693 JUMPI PUSH0 DUP1 REVERT JUMPDEST POP PUSH2 0x38C PUSH2 0x6A2 CALLDATASIZE PUSH1 0x4 PUSH2 0x499A JUMP JUMPDEST PUSH2 0x1D44 JUMP JUMPDEST CALLVALUE DUP1 ISZERO PUSH2 0x6B2 JUMPI PUSH0 DUP1 REVERT JUMPDEST POP PUSH2 0x4A7 PUSH1 0x8 SLOAD DUP2 JUMP JUMPDEST CALLVALUE DUP1 ISZERO PUSH2 0x6C7 JUMPI PUSH0 DUP1 REVERT JUMPDEST POP PUSH2 0x364 PUSH2 0x6D6 CALLDATASIZE PUSH1 0x4 PUSH2 0x49CC JUMP JUMPDEST PUSH0 SWAP1 DUP2 MSTORE PUSH1 0x5 PUSH1 0x20 MSTORE PUSH1 0x40 SWAP1 KECCAK256 SLOAD PUSH1 0xFF AND PUSH1 0x1 EQ SWAP1 JUMP JUMPDEST CALLVALUE DUP1 ISZERO PUSH2 0x6F8 JUMPI PUSH0 DUP1 REVERT JUMPDEST POP PUSH2 0x4A7 PUSH1 0x6 SLOAD DUP2 JUMP JUMPDEST CALLVALUE DUP1 ISZERO PUSH2 0x70D JUMPI PUSH0 DUP1 REVERT JUMPDEST POP PUSH2 0x716 PUSH2 0x1D79 JUMP JUMPDEST PUSH1 0x40 MLOAD PUSH2 0x370 SWAP2 SWAP1 DUP2 MLOAD DUP2 MSTORE PUSH1 0x20 DUP1 DUP4 ADD MLOAD SWAP1 DUP3 ADD MSTORE PUSH1 0x40 DUP1 DUP4 ADD MLOAD SWAP1 DUP3 ADD MSTORE PUSH1 0x60 SWAP2 DUP3 ADD MLOAD PUSH1 0x1 PUSH1 0x1 PUSH1 0xA0 SHL SUB AND SWAP2 DUP2 ADD SWAP2 SWAP1 SWAP2 MSTORE PUSH1 0x80 ADD SWAP1 JUMP JUMPDEST CALLVALUE DUP1 ISZERO PUSH2 0x75D JUMPI PUSH0 DUP1 REVERT JUMPDEST POP PUSH2 0x38C PUSH2 0x76C CALLDATASIZE PUSH1 0x4 PUSH2 0x49CC JUMP JUMPDEST PUSH2 0x1DDF JUMP JUMPDEST CALLVALUE DUP1 ISZERO PUSH2 0x77C JUMPI PUSH0 DUP1 REVERT JUMPDEST POP PUSH2 0x38C PUSH2 0x78B CALLDATASIZE PUSH1 0x4 PUSH2 0x49CC JUMP JUMPDEST PUSH2 0x1EE9 JUMP JUMPDEST CALLVALUE DUP1 ISZERO PUSH2 0x79B JUMPI PUSH0 DUP1 REVERT JUMPDEST POP PUSH2 0x38C PUSH2 0x7AA CALLDATASIZE PUSH1 0x4 PUSH2 0x4878 JUMP JUMPDEST PUSH2 0x1FB0 JUMP JUMPDEST CALLVALUE DUP1 ISZERO PUSH2 0x7BA JUMPI PUSH0 DUP1 REVERT JUMPDEST POP PUSH2 0x38C PUSH2 0x7C9 CALLDATASIZE PUSH1 0x4 PUSH2 0x497A JUMP JUMPDEST PUSH2 0x22A3 JUMP JUMPDEST CALLVALUE DUP1 ISZERO PUSH2 0x7D9 JUMPI PUSH0 DUP1 REVERT JUMPDEST POP PUSH2 0x872 PUSH2 0x7E8 CALLDATASIZE PUSH1 0x4 PUSH2 0x49CC JUMP JUMPDEST PUSH1 0x40 DUP1 MLOAD PUSH1 0xA0 DUP2 ADD DUP3 MSTORE PUSH0 DUP1 DUP3 MSTORE PUSH1 0x20 DUP3 ADD DUP2 SWAP1 MSTORE SWAP2 DUP2 ADD DUP3 SWAP1 MSTORE PUSH1 0x60 DUP2 ADD DUP3 SWAP1 MSTORE PUSH1 0x80 DUP2 ADD SWAP2 SWAP1 SWAP2 MSTORE POP PUSH0 SWAP1 DUP2 MSTORE PUSH1 0x7 PUSH1 0x20 SWAP1 DUP2 MSTORE PUSH1 0x40 SWAP2 DUP3 SWAP1 KECCAK256 DUP3 MLOAD PUSH1 0xA0 DUP2 ADD DUP5 MSTORE DUP2 SLOAD DUP2 MSTORE PUSH1 0x1 DUP3 ADD SLOAD SWAP3 DUP2 ADD SWAP3 SWAP1 SWAP3 MSTORE PUSH1 0x2 DUP2 ADD SLOAD PUSH1 0x1 PUSH1 0x1 PUSH1 0xA0 SHL SUB SWAP1 DUP2 AND SWAP4 DUP4 ADD SWAP4 SWAP1 SWAP4 MSTORE PUSH1 0x3 ADD SLOAD SWAP2 DUP3 AND PUSH1 0x60 DUP3 ADD MSTORE PUSH1 0x1 PUSH1 0xA0 SHL SWAP1 SWAP2 DIV PUSH1 0xFF AND PUSH1 0x80 DUP3 ADD MSTORE SWAP1 JUMP JUMPDEST PUSH1 0x40 MLOAD PUSH2 0x370 SWAP2 SWAP1 DUP2 MLOAD DUP2 MSTORE PUSH1 0x20 DUP1 DUP4 ADD MLOAD SWAP1 DUP3 ADD MSTORE PUSH1 0x40 DUP1 DUP4 ADD MLOAD PUSH1 0x1 PUSH1 0x1 PUSH1 0xA0 SHL SUB SWAP1 DUP2 AND SWAP2 DUP4 ADD SWAP2 SWAP1 SWAP2 MSTORE PUSH1 0x60 DUP1 DUP5 ADD MLOAD SWAP1 SWAP2 AND SWAP1 DUP3 ADD MSTORE PUSH1 0x80 SWAP2 DUP3 ADD MLOAD PUSH1 0xFF AND SWAP2 DUP2 ADD SWAP2 SWAP1 SWAP2 MSTORE PUSH1 0xA0 ADD SWAP1 JUMP JUMPDEST CALLVALUE DUP1 ISZERO PUSH2 0x8CE JUMPI PUSH0 DUP1 REVERT JUMPDEST POP PUSH1 0x9 SLOAD PUSH1 0xA SLOAD PUSH1 0xB SLOAD PUSH1 0xC SLOAD PUSH2 0x8EE SWAP4 SWAP3 SWAP2 SWAP1 PUSH1 0x1 PUSH1 0x1 PUSH1 0xA0 SHL SUB AND DUP5 JUMP JUMPDEST PUSH1 0x40 MLOAD PUSH2 0x370 SWAP5 SWAP4 SWAP3 SWAP2 SWAP1 PUSH2 0x4BDF JUMP JUMPDEST PUSH2 0x38C PUSH2 0x90C CALLDATASIZE PUSH1 0x4 PUSH2 0x497A JUMP JUMPDEST PUSH2 0x251B JUMP JUMPDEST CALLVALUE DUP1 ISZERO PUSH2 0x91C JUMPI PUSH0 DUP1 REVERT JUMPDEST POP PUSH2 0x364 PUSH2 0x92B CALLDATASIZE PUSH1 0x4 PUSH2 0x4B30 JUMP JUMPDEST PUSH1 0x2 PUSH1 0x20 MSTORE PUSH0 SWAP1 DUP2 MSTORE PUSH1 0x40 SWAP1 KECCAK256 SLOAD PUSH1 0xFF AND DUP2 JUMP JUMPDEST CALLVALUE DUP1 ISZERO PUSH2 0x94A JUMPI PUSH0 DUP1 REVERT JUMPDEST POP PUSH2 0x38C PUSH2 0x959 CALLDATASIZE PUSH1 0x4 PUSH2 0x4C03 JUMP JUMPDEST PUSH2 0x2793 JUMP JUMPDEST CALLVALUE DUP1 ISZERO PUSH2 0x969 JUMPI PUSH0 DUP1 REVERT JUMPDEST POP PUSH2 0x9E1 PUSH2 0x978 CALLDATASIZE PUSH1 0x4 PUSH2 0x49CC JUMP JUMPDEST PUSH1 0x5 PUSH1 0x20 DUP2 SWAP1 MSTORE PUSH0 SWAP2 DUP3 MSTORE PUSH1 0x40 SWAP1 SWAP2 KECCAK256 DUP1 SLOAD PUSH1 0x1 DUP3 ADD SLOAD PUSH1 0x2 DUP4 ADD SLOAD PUSH1 0x3 DUP5 ADD SLOAD PUSH1 0x4 DUP6 ADD SLOAD SWAP6 DUP6 ADD SLOAD PUSH1 0x6 DUP7 ADD SLOAD PUSH1 0x7 SWAP1 SWAP7 ADD SLOAD PUSH1 0xFF SWAP6 DUP7 AND SWAP8 SWAP5 SWAP7 PUSH1 0x1 PUSH1 0x1 PUSH1 0xA0 SHL SUB SWAP5 DUP6 AND SWAP7 SWAP4 SWAP6 SWAP5 SWAP3 SWAP4 SWAP1 SWAP3 DUP3 DUP3 AND SWAP3 PUSH2 0x100 DUP2 DIV SWAP1 SWAP2 AND SWAP2 PUSH1 0x1 PUSH1 0xA8 SHL SWAP1 SWAP2 DIV AND DUP11 JUMP JUMPDEST PUSH1 0x40 DUP1 MLOAD PUSH1 0xFF SWAP12 DUP13 AND DUP2 MSTORE PUSH1 0x20 DUP2 ADD SWAP11 SWAP1 SWAP11 MSTORE PUSH1 0x1 PUSH1 0x1 PUSH1 0xA0 SHL SUB SWAP9 DUP10 AND SWAP1 DUP11 ADD MSTORE PUSH1 0x60 DUP10 ADD SWAP7 SWAP1 SWAP7 MSTORE PUSH1 0x80 DUP9 ADD SWAP5 SWAP1 SWAP5 MSTORE PUSH1 0xA0 DUP8 ADD SWAP3 SWAP1 SWAP3 MSTORE PUSH1 0xC0 DUP7 ADD MSTORE SWAP1 SWAP5 AND PUSH1 0xE0 DUP5 ADD MSTORE SWAP3 AND PUSH2 0x100 DUP3 ADD MSTORE SWAP1 ISZERO ISZERO PUSH2 0x120 DUP3 ADD MSTORE PUSH2 0x140 ADD PUSH2 0x370 JUMP JUMPDEST CALLVALUE DUP1 ISZERO PUSH2 0xA4D JUMPI PUSH0 DUP1 REVERT JUMPDEST POP PUSH2 0xAB0 PUSH2 0xA5C CALLDATASIZE PUSH1 0x4 PUSH2 0x49CC JUMP JUMPDEST PUSH1 0x4 PUSH1 0x20 MSTORE PUSH0 SWAP1 DUP2 MSTORE PUSH1 0x40 SWAP1 KECCAK256 DUP1 SLOAD PUSH1 0x1 SWAP1 SWAP2 ADD SLOAD PUSH1 0x1 PUSH1 0x1 PUSH1 0xA0 SHL SUB DUP3 AND SWAP2 PUSH6 0xFFFFFFFFFFFF PUSH1 0x1 PUSH1 0xA0 SHL DUP3 DIV DUP2 AND SWAP3 PUSH1 0x1 PUSH1 0xD0 SHL SWAP1 SWAP3 DIV AND SWAP1 PUSH1 0x1 PUSH1 0x1 PUSH1 0x98 SHL SUB DUP2 AND SWAP1 PUSH1 0xFF PUSH1 0x1 PUSH1 0x98 SHL SWAP1 SWAP2 DIV AND DUP6 JUMP JUMPDEST PUSH1 0x40 DUP1 MLOAD PUSH1 0x1 PUSH1 0x1 PUSH1 0xA0 SHL SUB SWAP7 SWAP1 SWAP7 AND DUP7 MSTORE PUSH6 0xFFFFFFFFFFFF SWAP5 DUP6 AND PUSH1 0x20 DUP8 ADD MSTORE SWAP3 SWAP1 SWAP4 AND SWAP2 DUP5 ADD SWAP2 SWAP1 SWAP2 MSTORE PUSH1 0x1 PUSH1 0x1 PUSH1 0x98 SHL SUB AND PUSH1 0x60 DUP4 ADD MSTORE PUSH1 0xFF AND PUSH1 0x80 DUP3 ADD MSTORE PUSH1 0xA0 ADD PUSH2 0x370 JUMP JUMPDEST CALLVALUE DUP1 ISZERO PUSH2 0xB05 JUMPI PUSH0 DUP1 REVERT JUMPDEST POP PUSH2 0x364 PUSH2 0xB14 CALLDATASIZE PUSH1 0x4 PUSH2 0x4B06 JUMP JUMPDEST PUSH2 0x29AA JUMP JUMPDEST CALLVALUE DUP1 ISZERO PUSH2 0xB24 JUMPI PUSH0 DUP1 REVERT JUMPDEST POP PUSH2 0x38C PUSH2 0xB33 CALLDATASIZE PUSH1 0x4 PUSH2 0x4C4B JUMP JUMPDEST PUSH2 0x29D2 JUMP JUMPDEST CALLVALUE DUP1 ISZERO PUSH2 0xB43 JUMPI PUSH0 DUP1 REVERT JUMPDEST POP PUSH2 0x4A7 PUSH2 0xB52 CALLDATASIZE PUSH1 0x4 PUSH2 0x49CC JUMP JUMPDEST PUSH2 0x2A75 JUMP JUMPDEST CALLVALUE DUP1 ISZERO PUSH2 0xB62 JUMPI PUSH0 DUP1 REVERT JUMPDEST POP PUSH2 0x4A7 PUSH0 DUP2 JUMP JUMPDEST CALLVALUE DUP1 ISZERO PUSH2 0xB75 JUMPI PUSH0 DUP1 REVERT JUMPDEST POP PUSH2 0xBC3 PUSH2 0xB84 CALLDATASIZE PUSH1 0x4 PUSH2 0x49CC JUMP JUMPDEST PUSH1 0x7 PUSH1 0x20 MSTORE PUSH0 SWAP1 DUP2 MSTORE PUSH1 0x40 SWAP1 KECCAK256 DUP1 SLOAD PUSH1 0x1 DUP3 ADD SLOAD PUSH1 0x2 DUP4 ADD SLOAD PUSH1 0x3 SWAP1 SWAP4 ADD SLOAD SWAP2 SWAP3 SWAP1 SWAP2 PUSH1 0x1 PUSH1 0x1 PUSH1 0xA0 SHL SUB SWAP2 DUP3 AND SWAP2 DUP2 AND SWAP1 PUSH1 0x1 PUSH1 0xA0 SHL SWAP1 DIV PUSH1 0xFF AND DUP6 JUMP JUMPDEST PUSH1 0x40 DUP1 MLOAD SWAP6 DUP7 MSTORE PUSH1 0x20 DUP7 ADD SWAP5 SWAP1 SWAP5 MSTORE PUSH1 0x1 PUSH1 0x1 PUSH1 0xA0 SHL SUB SWAP3 DUP4 AND SWAP4 DUP6 ADD SWAP4 SWAP1 SWAP4 MSTORE AND PUSH1 0x60 DUP4 ADD MSTORE PUSH1 0xFF AND PUSH1 0x80 DUP3 ADD MSTORE PUSH1 0xA0 ADD PUSH2 0x370 JUMP JUMPDEST CALLVALUE DUP1 ISZERO PUSH2 0xC05 JUMPI PUSH0 DUP1 REVERT JUMPDEST POP PUSH2 0x38C PUSH2 0xC14 CALLDATASIZE PUSH1 0x4 PUSH2 0x49CC JUMP JUMPDEST PUSH2 0x2A97 JUMP JUMPDEST CALLVALUE DUP1 ISZERO PUSH2 0xC24 JUMPI PUSH0 DUP1 REVERT JUMPDEST POP PUSH2 0x38C PUSH2 0xC33 CALLDATASIZE PUSH1 0x4 PUSH2 0x4CF0 JUMP JUMPDEST PUSH2 0x2FE5 JUMP JUMPDEST CALLVALUE DUP1 ISZERO PUSH2 0xC43 JUMPI PUSH0 DUP1 REVERT JUMPDEST POP PUSH2 0x4A7 PUSH2 0xC52 CALLDATASIZE PUSH1 0x4 PUSH2 0x49CC JUMP JUMPDEST PUSH0 SWAP1 DUP2 MSTORE PUSH1 0x7 PUSH1 0x20 MSTORE PUSH1 0x40 SWAP1 KECCAK256 PUSH1 0x3 ADD SLOAD PUSH1 0x1 PUSH1 0xA0 SHL SWAP1 DIV PUSH1 0xFF AND SWAP1 JUMP JUMPDEST CALLVALUE DUP1 ISZERO PUSH2 0xC7B JUMPI PUSH0 DUP1 REVERT JUMPDEST POP PUSH2 0x38C PUSH2 0xC8A CALLDATASIZE PUSH1 0x4 PUSH2 0x499A JUMP JUMPDEST PUSH2 0x30EE JUMP JUMPDEST CALLVALUE DUP1 ISZERO PUSH2 0xC9A JUMPI PUSH0 DUP1 REVERT JUMPDEST POP PUSH2 0x38C PUSH2 0xCA9 CALLDATASIZE PUSH1 0x4 PUSH2 0x4B06 JUMP JUMPDEST PUSH2 0x3123 JUMP JUMPDEST CALLVALUE DUP1 ISZERO PUSH2 0xCB9 JUMPI PUSH0 DUP1 REVERT JUMPDEST POP PUSH2 0x4A7 PUSH2 0xCC8 CALLDATASIZE PUSH1 0x4 PUSH2 0x49CC JUMP JUMPDEST PUSH0 SWAP1 DUP2 MSTORE PUSH1 0x5 PUSH1 0x20 MSTORE PUSH1 0x40 SWAP1 KECCAK256 PUSH1 0x7 ADD SLOAD PUSH1 0xFF AND SWAP1 JUMP JUMPDEST CALLVALUE DUP1 ISZERO PUSH2 0xCEA JUMPI PUSH0 DUP1 REVERT JUMPDEST POP PUSH2 0xD16 PUSH2 0xCF9 CALLDATASIZE PUSH1 0x4 PUSH2 0x49CC JUMP JUMPDEST PUSH0 SWAP1 DUP2 MSTORE PUSH1 0x5 PUSH1 0x20 MSTORE PUSH1 0x40 SWAP1 KECCAK256 PUSH1 0x2 ADD SLOAD PUSH1 0x1 PUSH1 0x1 PUSH1 0xA0 SHL SUB AND SWAP1 JUMP JUMPDEST PUSH1 0x40 MLOAD PUSH1 0x1 PUSH1 0x1 PUSH1 0xA0 SHL SUB SWAP1 SWAP2 AND DUP2 MSTORE PUSH1 0x20 ADD PUSH2 0x370 JUMP JUMPDEST CALLVALUE DUP1 ISZERO PUSH2 0xD39 JUMPI PUSH0 DUP1 REVERT JUMPDEST POP PUSH2 0x38C PUSH2 0xD48 CALLDATASIZE PUSH1 0x4 PUSH2 0x49CC JUMP JUMPDEST PUSH2 0x3147 JUMP JUMPDEST CALLVALUE DUP1 ISZERO PUSH2 0xD58 JUMPI PUSH0 DUP1 REVERT JUMPDEST POP PUSH2 0x4A7 PUSH2 0xD67 CALLDATASIZE PUSH1 0x4 PUSH2 0x49CC JUMP JUMPDEST PUSH0 SWAP1 DUP2 MSTORE PUSH1 0x5 PUSH1 0x20 MSTORE PUSH1 0x40 SWAP1 KECCAK256 PUSH1 0x4 ADD SLOAD SWAP1 JUMP JUMPDEST CALLVALUE DUP1 ISZERO PUSH2 0xD86 JUMPI PUSH0 DUP1 REVERT JUMPDEST POP PUSH2 0x38C PUSH2 0xD95 CALLDATASIZE PUSH1 0x4 PUSH2 0x49CC JUMP JUMPDEST PUSH2 0x34F6 JUMP JUMPDEST CALLVALUE DUP1 ISZERO PUSH2 0xDA5 JUMPI PUSH0 DUP1 REVERT JUMPDEST POP PUSH2 0x4A7 PUSH2 0xDB4 CALLDATASIZE PUSH1 0x4 PUSH2 0x49CC JUMP JUMPDEST PUSH0 SWAP1 DUP2 MSTORE PUSH1 0x5 PUSH1 0x20 MSTORE PUSH1 0x40 SWAP1 KECCAK256 PUSH1 0x3 ADD SLOAD SWAP1 JUMP JUMPDEST CALLVALUE DUP1 ISZERO PUSH2 0xDD3 JUMPI PUSH0 DUP1 REVERT JUMPDEST POP PUSH2 0x38C PUSH2 0xDE2 CALLDATASIZE PUSH1 0x4 PUSH2 0x49CC JUMP JUMPDEST PUSH2 0x3900 JUMP JUMPDEST CALLVALUE DUP1 ISZERO PUSH2 0xDF2 JUMPI PUSH0 DUP1 REVERT JUMPDEST POP PUSH2 0xEA3 PUSH2 0xE01 CALLDATASIZE PUSH1 0x4 PUSH2 0x49CC JUMP JUMPDEST PUSH1 0x40 DUP1 MLOAD PUSH1 0xA0 DUP2 ADD DUP3 MSTORE PUSH0 DUP1 DUP3 MSTORE PUSH1 0x20 DUP3 ADD DUP2 SWAP1 MSTORE SWAP2 DUP2 ADD DUP3 SWAP1 MSTORE PUSH1 0x60 DUP2 ADD DUP3 SWAP1 MSTORE PUSH1 0x80 DUP2 ADD SWAP2 SWAP1 SWAP2 MSTORE POP PUSH0 SWAP1 DUP2 MSTORE PUSH1 0x4 PUSH1 0x20 SWAP1 DUP2 MSTORE PUSH1 0x40 SWAP2 DUP3 SWAP1 KECCAK256 DUP3 MLOAD PUSH1 0xA0 DUP2 ADD DUP5 MSTORE DUP2 SLOAD PUSH1 0x1 PUSH1 0x1 PUSH1 0xA0 SHL SUB DUP2 AND DUP3 MSTORE PUSH6 0xFFFFFFFFFFFF PUSH1 0x1 PUSH1 0xA0 SHL DUP3 DIV DUP2 AND SWAP5 DUP4 ADD SWAP5 SWAP1 SWAP5 MSTORE PUSH1 0x1 PUSH1 0xD0 SHL SWAP1 DIV SWAP1 SWAP3 AND SWAP3 DUP3 ADD SWAP3 SWAP1 SWAP3 MSTORE PUSH1 0x1 SWAP1 SWAP2 ADD SLOAD PUSH1 0x1 PUSH1 0x1 PUSH1 0x98 SHL SUB DUP2 AND PUSH1 0x60 DUP4 ADD MSTORE PUSH1 0xFF PUSH1 0x1 PUSH1 0x98 SHL SWAP1 SWAP2 DIV AND PUSH1 0x80 DUP3 ADD MSTORE SWAP1 JUMP JUMPDEST PUSH1 0x40 DUP1 MLOAD DUP3 MLOAD PUSH1 0x1 PUSH1 0x1 PUSH1 0xA0 SHL SUB AND DUP2 MSTORE PUSH1 0x20 DUP1 DUP5 ADD MLOAD PUSH6 0xFFFFFFFFFFFF SWAP1 DUP2 AND SWAP2 DUP4 ADD SWAP2 SWAP1 SWAP2 MSTORE DUP4 DUP4 ADD MLOAD AND SWAP2 DUP2 ADD SWAP2 SWAP1 SWAP2 MSTORE PUSH1 0x60 DUP1 DUP4 ADD MLOAD PUSH1 0x1 PUSH1 0x1 PUSH1 0x98 SHL SUB AND SWAP1 DUP3 ADD MSTORE PUSH1 0x80 SWAP2 DUP3 ADD MLOAD PUSH1 0xFF AND SWAP2 DUP2 ADD SWAP2 SWAP1 SWAP2 MSTORE PUSH1 0xA0 ADD PUSH2 0x370 JUMP JUMPDEST CALLVALUE DUP1 ISZERO PUSH2 0xF0D JUMPI PUSH0 DUP1 REVERT JUMPDEST POP PUSH2 0x38C PUSH2 0xF1C CALLDATASIZE PUSH1 0x4 PUSH2 0x4A19 JUMP JUMPDEST PUSH2 0x3C65 JUMP JUMPDEST PUSH2 0x38C PUSH2 0xF2F CALLDATASIZE PUSH1 0x4 PUSH2 0x4D18 JUMP JUMPDEST PUSH2 0x3DE7 JUMP JUMPDEST CALLVALUE DUP1 ISZERO PUSH2 0xF3F JUMPI PUSH0 DUP1 REVERT JUMPDEST POP PUSH2 0x4A7 PUSH0 DUP1 MLOAD PUSH1 0x20 PUSH2 0x522B DUP4 CODECOPY DUP2 MLOAD SWAP2 MSTORE DUP2 JUMP JUMPDEST CALLVALUE DUP1 ISZERO PUSH2 0xF5F JUMPI PUSH0 DUP1 REVERT JUMPDEST POP PUSH2 0x364 PUSH2 0xF6E CALLDATASIZE PUSH1 0x4 PUSH2 0x49CC JUMP JUMPDEST PUSH1 0x3 PUSH1 0x20 MSTORE PUSH0 SWAP1 DUP2 MSTORE PUSH1 0x40 SWAP1 KECCAK256 SLOAD PUSH1 0xFF AND DUP2 JUMP JUMPDEST PUSH0 PUSH1 0x1 PUSH1 0x1 PUSH1 0xE0 SHL SUB NOT DUP3 AND PUSH4 0x7965DB0B PUSH1 0xE0 SHL EQ DUP1 PUSH2 0xFB2 JUMPI POP PUSH4 0x1FFC9A7 PUSH1 0xE0 SHL PUSH1 0x1 PUSH1 0x1 PUSH1 0xE0 SHL SUB NOT DUP4 AND EQ JUMPDEST SWAP3 SWAP2 POP POP JUMP JUMPDEST PUSH2 0xFC0 PUSH2 0x3F93 JUMP JUMPDEST DUP1 MLOAD DUP3 MLOAD EQ PUSH2 0xFEA JUMPI PUSH1 0x40 MLOAD PUSH3 0x461BCD PUSH1 0xE5 SHL DUP2 MSTORE PUSH1 0x4 ADD PUSH2 0xFE1 SWAP1 PUSH2 0x4D6A JUMP JUMPDEST PUSH1 0x40 MLOAD DUP1 SWAP2 SUB SWAP1 REVERT JUMPDEST PUSH0 DUP1 JUMPDEST DUP4 MLOAD DUP2 LT ISZERO PUSH2 0x11FA JUMPI PUSH0 DUP5 DUP3 DUP2 MLOAD DUP2 LT PUSH2 0x1009 JUMPI PUSH2 0x1009 PUSH2 0x4D91 JUMP JUMPDEST PUSH1 0x20 MUL PUSH1 0x20 ADD ADD MLOAD SWAP1 POP PUSH0 DUP5 DUP4 DUP2 MLOAD DUP2 LT PUSH2 0x1026 JUMPI PUSH2 0x1026 PUSH2 0x4D91 JUMP JUMPDEST PUSH1 0x20 SWAP1 DUP2 MUL SWAP2 SWAP1 SWAP2 ADD DUP2 ADD MLOAD PUSH0 DUP5 DUP2 MSTORE PUSH1 0x5 DUP4 MSTORE PUSH1 0x40 DUP1 DUP3 KECCAK256 PUSH1 0x1 DUP1 DUP3 ADD SLOAD DUP5 MSTORE PUSH1 0x4 SWAP1 SWAP6 MSTORE SWAP2 KECCAK256 PUSH1 0x7 DUP3 ADD SLOAD SWAP3 SWAP5 POP SWAP1 SWAP3 SWAP1 SWAP2 PUSH1 0xFF AND EQ PUSH2 0x107A JUMPI PUSH1 0x40 MLOAD PUSH3 0x461BCD PUSH1 0xE5 SHL DUP2 MSTORE PUSH1 0x4 ADD PUSH2 0xFE1 SWAP1 PUSH2 0x4DA5 JUMP JUMPDEST PUSH1 0x1 DUP2 DUP2 ADD SLOAD PUSH1 0x1 PUSH1 0x98 SHL SWAP1 DIV PUSH1 0xFF AND EQ PUSH2 0x10A7 JUMPI PUSH1 0x40 MLOAD PUSH3 0x461BCD PUSH1 0xE5 SHL DUP2 MSTORE PUSH1 0x4 ADD PUSH2 0xFE1 SWAP1 PUSH2 0x4DD3 JUMP JUMPDEST PUSH0 DUP4 GT PUSH2 0x10C6 JUMPI PUSH1 0x40 MLOAD PUSH3 0x461BCD PUSH1 0xE5 SHL DUP2 MSTORE PUSH1 0x4 ADD PUSH2 0xFE1 SWAP1 PUSH2 0x4E01 JUMP JUMPDEST DUP3 DUP3 PUSH1 0x6 ADD SLOAD DUP4 PUSH1 0x3 ADD SLOAD PUSH2 0x10DB SWAP2 SWAP1 PUSH2 0x4E3D JUMP JUMPDEST LT ISZERO PUSH2 0x10F9 JUMPI PUSH1 0x40 MLOAD PUSH3 0x461BCD PUSH1 0xE5 SHL DUP2 MSTORE PUSH1 0x4 ADD PUSH2 0xFE1 SWAP1 PUSH2 0x4E50 JUMP JUMPDEST PUSH1 0x7 DUP3 ADD SLOAD PUSH1 0x1 PUSH1 0xA8 SHL SWAP1 DIV PUSH1 0xFF AND ISZERO DUP1 PUSH2 0x1117 JUMPI POP DUP3 DUP3 PUSH1 0x3 ADD SLOAD EQ JUMPDEST PUSH2 0x1133 JUMPI PUSH1 0x40 MLOAD PUSH3 0x461BCD PUSH1 0xE5 SHL DUP2 MSTORE PUSH1 0x4 ADD PUSH2 0xFE1 SWAP1 PUSH2 0x4E87 JUMP JUMPDEST PUSH1 0x2 DUP3 ADD SLOAD PUSH1 0x1 PUSH1 0x1 PUSH1 0xA0 SHL SUB AND ISZERO PUSH2 0x115E JUMPI PUSH1 0x40 MLOAD PUSH3 0x461BCD PUSH1 0xE5 SHL DUP2 MSTORE PUSH1 0x4 ADD PUSH2 0xFE1 SWAP1 PUSH2 0x4EB3 JUMP JUMPDEST DUP2 SLOAD PUSH0 SWAP1 PUSH1 0xFF AND PUSH0 NOT ADD PUSH2 0x1192 JUMPI DUP3 PUSH1 0x3 ADD SLOAD DUP5 DUP5 PUSH1 0x5 ADD SLOAD PUSH2 0x1181 SWAP2 SWAP1 PUSH2 0x4EE0 JUMP JUMPDEST PUSH2 0x118B SWAP2 SWAP1 PUSH2 0x4F0B JUMP JUMPDEST SWAP1 POP PUSH2 0x11B4 JUMP JUMPDEST DUP3 PUSH1 0x3 ADD SLOAD DUP5 DUP5 PUSH1 0x4 ADD SLOAD PUSH2 0x11A7 SWAP2 SWAP1 PUSH2 0x4EE0 JUMP JUMPDEST PUSH2 0x11B1 SWAP2 SWAP1 PUSH2 0x4F0B JUMP JUMPDEST SWAP1 POP JUMPDEST PUSH2 0x11BE DUP2 DUP9 PUSH2 0x4F1E JUMP JUMPDEST SWAP7 POP PUSH2 0x11E9 DUP6 DUP6 DUP6 PUSH1 0x7 ADD PUSH1 0x1 SWAP1 SLOAD SWAP1 PUSH2 0x100 EXP SWAP1 DIV PUSH1 0x1 PUSH1 0x1 PUSH1 0xA0 SHL SUB AND PUSH2 0x11E4 CALLER SWAP1 JUMP JUMPDEST PUSH2 0x3FEC JUMP JUMPDEST POP POP PUSH1 0x1 SWAP1 SWAP4 ADD SWAP3 POP PUSH2 0xFED SWAP2 POP POP JUMP JUMPDEST POP DUP1 CALLVALUE LT ISZERO PUSH2 0x121B JUMPI PUSH1 0x40 MLOAD PUSH3 0x461BCD PUSH1 0xE5 SHL DUP2 MSTORE PUSH1 0x4 ADD PUSH2 0xFE1 SWAP1 PUSH2 0x4F31 JUMP JUMPDEST DUP1 CALLVALUE GT ISZERO PUSH2 0x1299 JUMPI PUSH0 PUSH2 0x122E DUP3 CALLVALUE PUSH2 0x4E3D JUMP JUMPDEST PUSH1 0x40 MLOAD SWAP1 SWAP2 POP PUSH0 SWAP1 CALLER SWAP1 DUP4 SWAP1 DUP4 DUP2 DUP2 DUP2 DUP6 DUP8 GAS CALL SWAP3 POP POP POP RETURNDATASIZE DUP1 PUSH0 DUP2 EQ PUSH2 0x1270 JUMPI PUSH1 0x40 MLOAD SWAP2 POP PUSH1 0x1F NOT PUSH1 0x3F RETURNDATASIZE ADD AND DUP3 ADD PUSH1 0x40 MSTORE RETURNDATASIZE DUP3 MSTORE RETURNDATASIZE PUSH0 PUSH1 0x20 DUP5 ADD RETURNDATACOPY PUSH2 0x1275 JUMP JUMPDEST PUSH1 0x60 SWAP2 POP JUMPDEST POP POP SWAP1 POP DUP1 PUSH2 0x1296 JUMPI PUSH1 0x40 MLOAD PUSH3 0x461BCD PUSH1 0xE5 SHL DUP2 MSTORE PUSH1 0x4 ADD PUSH2 0xFE1 SWAP1 PUSH2 0x4F5D JUMP JUMPDEST POP POP JUMPDEST POP PUSH2 0x12A3 PUSH1 0x1 DUP1 SSTORE JUMP JUMPDEST POP POP JUMP JUMPDEST PUSH2 0x12AF PUSH2 0x3F93 JUMP JUMPDEST PUSH0 DUP6 DUP2 MSTORE PUSH1 0x4 PUSH1 0x20 MSTORE PUSH1 0x40 SWAP1 KECCAK256 PUSH1 0x1 DUP1 DUP3 ADD SLOAD PUSH1 0x1 PUSH1 0x98 SHL SWAP1 DIV PUSH1 0xFF AND EQ PUSH2 0x1309 JUMPI PUSH1 0x40 MLOAD PUSH3 0x461BCD PUSH1 0xE5 SHL DUP2 MSTORE PUSH1 0x20 PUSH1 0x4 DUP3 ADD MSTORE PUSH1 0xD PUSH1 0x24 DUP3 ADD MSTORE PUSH13 0x24B73B30B634B2102A37B5B2B7 PUSH1 0x99 SHL PUSH1 0x44 DUP3 ADD MSTORE PUSH1 0x64 ADD PUSH2 0xFE1 JUMP JUMPDEST PUSH1 0x1 PUSH1 0x1 PUSH1 0xA0 SHL SUB DUP4 AND ISZERO DUP1 ISZERO SWAP1 PUSH2 0x1338 JUMPI POP PUSH1 0x1 PUSH1 0x1 PUSH1 0xA0 SHL SUB DUP4 AND PUSH0 SWAP1 DUP2 MSTORE PUSH1 0x2 PUSH1 0x20 MSTORE PUSH1 0x40 SWAP1 KECCAK256 SLOAD PUSH1 0xFF AND JUMPDEST PUSH2 0x1354 JUMPI PUSH1 0x40 MLOAD PUSH3 0x461BCD PUSH1 0xE5 SHL DUP2 MSTORE PUSH1 0x4 ADD PUSH2 0xFE1 SWAP1 PUSH2 0x4EB3 JUMP JUMPDEST PUSH0 DUP6 GT DUP1 ISZERO PUSH2 0x1362 JUMPI POP PUSH0 DUP5 GT JUMPDEST PUSH2 0x13A8 JUMPI PUSH1 0x40 MLOAD PUSH3 0x461BCD PUSH1 0xE5 SHL DUP2 MSTORE PUSH1 0x20 PUSH1 0x4 DUP3 ADD MSTORE PUSH1 0x17 PUSH1 0x24 DUP3 ADD MSTORE PUSH23 0x496E76616C696420416D6F756E74206F722056616C7565 PUSH1 0x48 SHL PUSH1 0x44 DUP3 ADD MSTORE PUSH1 0x64 ADD PUSH2 0xFE1 JUMP JUMPDEST PUSH0 DUP4 PUSH1 0x1 PUSH1 0x1 PUSH1 0xA0 SHL SUB AND PUSH4 0x313CE567 PUSH1 0x40 MLOAD DUP2 PUSH4 0xFFFFFFFF AND PUSH1 0xE0 SHL DUP2 MSTORE PUSH1 0x4 ADD PUSH1 0x20 PUSH1 0x40 MLOAD DUP1 DUP4 SUB DUP2 DUP7 GAS STATICCALL ISZERO DUP1 ISZERO PUSH2 0x13E5 JUMPI RETURNDATASIZE PUSH0 DUP1 RETURNDATACOPY RETURNDATASIZE PUSH0 REVERT JUMPDEST POP POP POP POP PUSH1 0x40 MLOAD RETURNDATASIZE PUSH1 0x1F NOT PUSH1 0x1F DUP3 ADD AND DUP3 ADD DUP1 PUSH1 0x40 MSTORE POP DUP2 ADD SWAP1 PUSH2 0x1409 SWAP2 SWAP1 PUSH2 0x4F94 JUMP JUMPDEST SWAP1 POP PUSH0 PUSH2 0x1418 DUP7 PUSH1 0x12 DUP5 PUSH2 0x4194 JUMP JUMPDEST SWAP1 POP PUSH0 PUSH3 0xF4240 PUSH1 0x9 PUSH0 ADD SLOAD DUP9 PUSH2 0x142F SWAP2 SWAP1 PUSH2 0x4EE0 JUMP JUMPDEST PUSH2 0x1439 SWAP2 SWAP1 PUSH2 0x4F0B JUMP JUMPDEST SWAP1 POP PUSH0 PUSH2 0x1448 DUP3 PUSH1 0x12 DUP7 PUSH2 0x4194 JUMP JUMPDEST SWAP1 POP PUSH0 PUSH1 0xFF DUP13 AND PUSH1 0x1 EQ PUSH2 0x145C JUMPI DUP2 PUSH2 0x145E JUMP JUMPDEST DUP4 JUMPDEST SWAP1 POP DUP8 PUSH2 0x1476 PUSH1 0x1 PUSH1 0x1 PUSH1 0xA0 SHL SUB DUP3 AND CALLER ADDRESS DUP6 PUSH2 0x4227 JUMP JUMPDEST PUSH2 0x1485 DUP14 DUP14 DUP12 DUP15 DUP15 DUP10 DUP15 PUSH2 0x428E JUMP JUMPDEST POP POP POP POP POP POP POP PUSH2 0x1495 PUSH1 0x1 DUP1 SSTORE JUMP JUMPDEST POP POP POP POP POP POP JUMP JUMPDEST PUSH2 0x14A5 PUSH2 0x3F93 JUMP JUMPDEST PUSH0 DUP1 MLOAD PUSH1 0x20 PUSH2 0x522B DUP4 CODECOPY DUP2 MLOAD SWAP2 MSTORE PUSH2 0x14BC DUP2 PUSH2 0x445A JUMP JUMPDEST PUSH0 DUP4 DUP2 MSTORE PUSH1 0x7 PUSH1 0x20 SWAP1 DUP2 MSTORE PUSH1 0x40 DUP1 DUP4 KECCAK256 DUP1 SLOAD DUP5 MSTORE PUSH1 0x5 DUP4 MSTORE DUP2 DUP5 KECCAK256 PUSH1 0x1 DUP1 DUP3 ADD SLOAD DUP7 MSTORE PUSH1 0x4 SWAP1 SWAP5 MSTORE SWAP2 SWAP1 SWAP4 KECCAK256 SWAP2 DUP3 ADD SLOAD SWAP1 SWAP2 SWAP1 PUSH1 0x1 PUSH1 0x98 SHL SWAP1 DIV PUSH1 0xFF AND PUSH1 0x3 EQ PUSH2 0x1518 JUMPI PUSH1 0x40 MLOAD PUSH3 0x461BCD PUSH1 0xE5 SHL DUP2 MSTORE PUSH1 0x4 ADD PUSH2 0xFE1 SWAP1 PUSH2 0x4FAF JUMP JUMPDEST DUP1 SLOAD PUSH1 0x1 PUSH1 0x1 PUSH1 0xA0 SHL SUB AND ISZERO DUP1 ISZERO SWAP1 PUSH2 0x153D JUMPI POP PUSH1 0x1 DUP2 ADD SLOAD PUSH1 0x1 PUSH1 0x1 PUSH1 0x98 SHL SUB AND ISZERO ISZERO JUMPDEST PUSH2 0x1579 JUMPI PUSH1 0x40 MLOAD PUSH3 0x461BCD PUSH1 0xE5 SHL DUP2 MSTORE PUSH1 0x20 PUSH1 0x4 DUP3 ADD MSTORE PUSH1 0xD PUSH1 0x24 DUP3 ADD MSTORE PUSH13 0x151BDAD95B88139BDD0814D95D PUSH1 0x9A SHL PUSH1 0x44 DUP3 ADD MSTORE PUSH1 0x64 ADD PUSH2 0xFE1 JUMP JUMPDEST DUP1 SLOAD PUSH1 0x1 PUSH1 0xA0 SHL SWAP1 DIV PUSH6 0xFFFFFFFFFFFF AND PUSH2 0x15D2 JUMPI PUSH1 0x40 MLOAD PUSH3 0x461BCD PUSH1 0xE5 SHL DUP2 MSTORE PUSH1 0x20 PUSH1 0x4 DUP3 ADD MSTORE PUSH1 0x19 PUSH1 0x24 DUP3 ADD MSTORE PUSH25 0x14D95D1D1B1A5B99C8151A5B5948139BDD0814DD185C9D1959 PUSH1 0x3A SHL PUSH1 0x44 DUP3 ADD MSTORE PUSH1 0x64 ADD PUSH2 0xFE1 JUMP JUMPDEST PUSH1 0x3 DUP4 ADD SLOAD PUSH1 0x1 PUSH1 0xA0 SHL SWAP1 DIV PUSH1 0xFF AND PUSH1 0x1 EQ PUSH2 0x1600 JUMPI PUSH1 0x40 MLOAD PUSH3 0x461BCD PUSH1 0xE5 SHL DUP2 MSTORE PUSH1 0x4 ADD PUSH2 0xFE1 SWAP1 PUSH2 0x4FD7 JUMP JUMPDEST PUSH1 0x2 DUP3 ADD SLOAD PUSH0 SWAP1 PUSH1 0x1 PUSH1 0x1 PUSH1 0xA0 SHL SUB AND PUSH2 0x161C JUMPI POP PUSH1 0x12 PUSH2 0x1695 JUMP JUMPDEST DUP3 PUSH1 0x2 ADD PUSH0 SWAP1 SLOAD SWAP1 PUSH2 0x100 EXP SWAP1 DIV PUSH1 0x1 PUSH1 0x1 PUSH1 0xA0 SHL SUB AND PUSH1 0x1 PUSH1 0x1 PUSH1 0xA0 SHL SUB AND PUSH4 0x313CE567 PUSH1 0x40 MLOAD DUP2 PUSH4 0xFFFFFFFF AND PUSH1 0xE0 SHL DUP2 MSTORE PUSH1 0x4 ADD PUSH1 0x20 PUSH1 0x40 MLOAD DUP1 DUP4 SUB DUP2 DUP7 GAS STATICCALL ISZERO DUP1 ISZERO PUSH2 0x166E JUMPI RETURNDATASIZE PUSH0 DUP1 RETURNDATACOPY RETURNDATASIZE PUSH0 REVERT JUMPDEST POP POP POP POP PUSH1 0x40 MLOAD RETURNDATASIZE PUSH1 0x1F NOT PUSH1 0x1F DUP3 ADD AND DUP3 ADD DUP1 PUSH1 0x40 MSTORE POP DUP2 ADD SWAP1 PUSH2 0x1692 SWAP2 SWAP1 PUSH2 0x4F94 JUMP JUMPDEST SWAP1 POP JUMPDEST PUSH0 PUSH2 0x16C4 DUP5 PUSH1 0x3 ADD SLOAD DUP6 PUSH1 0x5 ADD SLOAD DUP8 PUSH1 0x1 ADD SLOAD PUSH2 0x16B2 SWAP2 SWAP1 PUSH2 0x4EE0 JUMP JUMPDEST PUSH2 0x16BC SWAP2 SWAP1 PUSH2 0x4F0B JUMP JUMPDEST PUSH1 0x12 DUP5 PUSH2 0x4464 JUMP JUMPDEST SWAP1 POP PUSH0 PUSH2 0x16F5 DUP6 PUSH1 0x3 ADD SLOAD DUP7 PUSH1 0x4 ADD SLOAD DUP9 PUSH1 0x1 ADD SLOAD PUSH2 0x16E3 SWAP2 SWAP1 PUSH2 0x4EE0 JUMP JUMPDEST PUSH2 0x16ED SWAP2 SWAP1 PUSH2 0x4F0B JUMP JUMPDEST PUSH1 0x12 DUP6 PUSH2 0x4464 JUMP JUMPDEST SWAP1 POP PUSH0 PUSH3 0xF4240 PUSH1 0x9 PUSH1 0x2 ADD SLOAD DUP4 PUSH2 0x170D SWAP2 SWAP1 PUSH2 0x4EE0 JUMP JUMPDEST PUSH2 0x1717 SWAP2 SWAP1 PUSH2 0x4F0B JUMP JUMPDEST SWAP1 POP PUSH0 DUP2 PUSH2 0x1725 DUP6 DUP6 PUSH2 0x4F1E JUMP JUMPDEST PUSH2 0x172F SWAP2 SWAP1 PUSH2 0x4E3D JUMP JUMPDEST PUSH1 0x2 DUP9 ADD SLOAD SWAP1 SWAP2 POP PUSH1 0x1 PUSH1 0x1 PUSH1 0xA0 SHL SUB AND PUSH2 0x181C JUMPI PUSH1 0x2 DUP9 ADD SLOAD PUSH1 0x40 MLOAD PUSH0 SWAP2 PUSH1 0x1 PUSH1 0x1 PUSH1 0xA0 SHL SUB AND SWAP1 DUP4 SWAP1 DUP4 DUP2 DUP2 DUP2 DUP6 DUP8 GAS CALL SWAP3 POP POP POP RETURNDATASIZE DUP1 PUSH0 DUP2 EQ PUSH2 0x1790 JUMPI PUSH1 0x40 MLOAD SWAP2 POP PUSH1 0x1F NOT PUSH1 0x3F RETURNDATASIZE ADD AND DUP3 ADD PUSH1 0x40 MSTORE RETURNDATASIZE DUP3 MSTORE RETURNDATASIZE PUSH0 PUSH1 0x20 DUP5 ADD RETURNDATACOPY PUSH2 0x1795 JUMP JUMPDEST PUSH1 0x60 SWAP2 POP JUMPDEST POP POP PUSH1 0xC SLOAD PUSH1 0x40 MLOAD SWAP2 SWAP3 POP PUSH0 SWAP2 PUSH1 0x1 PUSH1 0x1 PUSH1 0xA0 SHL SUB SWAP1 SWAP2 AND SWAP1 DUP6 SWAP1 DUP4 DUP2 DUP2 DUP2 DUP6 DUP8 GAS CALL SWAP3 POP POP POP RETURNDATASIZE DUP1 PUSH0 DUP2 EQ PUSH2 0x17E6 JUMPI PUSH1 0x40 MLOAD SWAP2 POP PUSH1 0x1F NOT PUSH1 0x3F RETURNDATASIZE ADD AND DUP3 ADD PUSH1 0x40 MSTORE RETURNDATASIZE DUP3 MSTORE RETURNDATASIZE PUSH0 PUSH1 0x20 DUP5 ADD RETURNDATACOPY PUSH2 0x17EB JUMP JUMPDEST PUSH1 0x60 SWAP2 POP JUMPDEST POP POP SWAP1 POP DUP2 DUP1 ISZERO PUSH2 0x17F9 JUMPI POP DUP1 JUMPDEST PUSH2 0x1815 JUMPI PUSH1 0x40 MLOAD PUSH3 0x461BCD PUSH1 0xE5 SHL DUP2 MSTORE PUSH1 0x4 ADD PUSH2 0xFE1 SWAP1 PUSH2 0x5005 JUMP JUMPDEST POP POP PUSH2 0x185B JUMP JUMPDEST PUSH1 0x2 DUP1 DUP9 ADD SLOAD SWAP1 DUP10 ADD SLOAD PUSH1 0x1 PUSH1 0x1 PUSH1 0xA0 SHL SUB SWAP2 DUP3 AND SWAP2 PUSH2 0x183F SWAP2 DUP4 SWAP2 AND DUP5 PUSH2 0x44B8 JUMP JUMPDEST PUSH1 0xC SLOAD PUSH2 0x1859 SWAP1 PUSH1 0x1 PUSH1 0x1 PUSH1 0xA0 SHL SUB DUP4 DUP2 AND SWAP2 AND DUP6 PUSH2 0x44B8 JUMP JUMPDEST POP JUMPDEST PUSH1 0x3 DUP9 ADD DUP1 SLOAD PUSH1 0xFF PUSH1 0xA0 SHL NOT AND PUSH1 0x1 PUSH1 0xA1 SHL OR SWAP1 SSTORE PUSH1 0x40 DUP1 MLOAD DUP13 DUP2 MSTORE PUSH1 0x20 DUP2 ADD DUP13 SWAP1 MSTORE CALLER DUP2 DUP4 ADD MSTORE SWAP1 MLOAD PUSH32 0xBAC7C71779CCC41F8C859E9D622536F76F0375A85B23E1B3D4134F613A9FFF54 SWAP2 PUSH1 0x60 SWAP1 DUP3 SWAP1 SUB ADD SWAP1 LOG1 PUSH32 0x94D22E970A1ABB720B741045E471AF3FA516F4E2EDE6B665387332888F92F213 DUP12 DUP3 DUP5 CALLER PUSH1 0x40 MLOAD PUSH2 0x18E5 SWAP5 SWAP4 SWAP3 SWAP2 SWAP1 PUSH2 0x4BDF JUMP JUMPDEST PUSH1 0x40 MLOAD DUP1 SWAP2 SUB SWAP1 LOG1 POP POP POP POP POP POP POP POP POP PUSH2 0x12A3 PUSH1 0x1 DUP1 SSTORE JUMP JUMPDEST PUSH0 JUMPDEST DUP2 MLOAD DUP2 LT ISZERO PUSH2 0x12A3 JUMPI PUSH2 0x192C DUP3 DUP3 DUP2 MLOAD DUP2 LT PUSH2 0x191F JUMPI PUSH2 0x191F PUSH2 0x4D91 JUMP JUMPDEST PUSH1 0x20 MUL PUSH1 0x20 ADD ADD MLOAD PUSH2 0x2A97 JUMP JUMPDEST PUSH1 0x1 ADD PUSH2 0x1901 JUMP JUMPDEST PUSH0 DUP1 MLOAD PUSH1 0x20 PUSH2 0x522B DUP4 CODECOPY DUP2 MLOAD SWAP2 MSTORE PUSH2 0x194B DUP2 PUSH2 0x445A JUMP JUMPDEST PUSH1 0x1 PUSH1 0x1 PUSH1 0xA0 SHL SUB DUP6 AND PUSH2 0x1993 JUMPI PUSH1 0x40 MLOAD PUSH3 0x461BCD PUSH1 0xE5 SHL DUP2 MSTORE PUSH1 0x20 PUSH1 0x4 DUP3 ADD MSTORE PUSH1 0xF PUSH1 0x24 DUP3 ADD MSTORE PUSH15 0x496E76616C69642041646472657373 PUSH1 0x88 SHL PUSH1 0x44 DUP3 ADD MSTORE PUSH1 0x64 ADD PUSH2 0xFE1 JUMP JUMPDEST PUSH2 0x19A1 PUSH1 0xA PUSH3 0xF4240 PUSH2 0x4F0B JUMP JUMPDEST DUP5 GT ISZERO PUSH2 0x19E4 JUMPI PUSH1 0x40 MLOAD PUSH3 0x461BCD PUSH1 0xE5 SHL DUP2 MSTORE PUSH1 0x20 PUSH1 0x4 DUP3 ADD MSTORE PUSH1 0x11 PUSH1 0x24 DUP3 ADD MSTORE PUSH17 0x536574746C6520466565203C3D20313025 PUSH1 0x78 SHL PUSH1 0x44 DUP3 ADD MSTORE PUSH1 0x64 ADD PUSH2 0xFE1 JUMP JUMPDEST PUSH2 0x19F2 PUSH1 0xA PUSH3 0xF4240 PUSH2 0x4F0B JUMP JUMPDEST DUP4 GT ISZERO PUSH2 0x1A35 JUMPI PUSH1 0x40 MLOAD PUSH3 0x461BCD PUSH1 0xE5 SHL DUP2 MSTORE PUSH1 0x20 PUSH1 0x4 DUP3 ADD MSTORE PUSH1 0x11 PUSH1 0x24 DUP3 ADD MSTORE PUSH17 0x43616E63656C20466565203C3D20313025 PUSH1 0x78 SHL PUSH1 0x44 DUP3 ADD MSTORE PUSH1 0x64 ADD PUSH2 0xFE1 JUMP JUMPDEST PUSH2 0x1A43 PUSH1 0x64 PUSH3 0xF4240 PUSH2 0x4F0B JUMP JUMPDEST DUP3 LT ISZERO DUP1 ISZERO PUSH2 0x1A55 JUMPI POP PUSH3 0xF4240 DUP3 GT ISZERO JUMPDEST PUSH2 0x1AA1 JUMPI PUSH1 0x40 MLOAD PUSH3 0x461BCD PUSH1 0xE5 SHL DUP2 MSTORE PUSH1 0x20 PUSH1 0x4 DUP3 ADD MSTORE PUSH1 0x18 PUSH1 0x24 DUP3 ADD MSTORE PUSH32 0x506C656467652052617465206F7574206F662072616E67650000000000000000 PUSH1 0x44 DUP3 ADD MSTORE PUSH1 0x64 ADD PUSH2 0xFE1 JUMP JUMPDEST PUSH1 0xC SLOAD PUSH1 0xB SLOAD PUSH1 0xA SLOAD PUSH1 0x9 SLOAD PUSH1 0x40 DUP1 MLOAD PUSH1 0x1 PUSH1 0x1 PUSH1 0xA0 SHL SUB SWAP6 DUP7 AND DUP2 MSTORE PUSH1 0x20 DUP2 ADD SWAP5 SWAP1 SWAP5 MSTORE DUP4 ADD SWAP2 SWAP1 SWAP2 MSTORE PUSH1 0x60 DUP3 ADD MSTORE SWAP1 DUP7 AND PUSH1 0x80 DUP3 ADD MSTORE PUSH1 0xA0 DUP2 ADD DUP6 SWAP1 MSTORE PUSH1 0xC0 DUP2 ADD DUP5 SWAP1 MSTORE PUSH1 0xE0 DUP2 ADD DUP4 SWAP1 MSTORE PUSH32 0x72FE78202AE1D56B2334BC8C804DB955E2349789B271B7F55E8109F7122F0A11 SWAP1 PUSH2 0x100 ADD PUSH1 0x40 MLOAD DUP1 SWAP2 SUB SWAP1 LOG1 POP PUSH1 0xC DUP1 SLOAD PUSH1 0x1 PUSH1 0x1 PUSH1 0xA0 SHL SUB NOT AND PUSH1 0x1 PUSH1 0x1 PUSH1 0xA0 SHL SUB SWAP6 SWAP1 SWAP6 AND SWAP5 SWAP1 SWAP5 OR SWAP1 SWAP4 SSTORE PUSH1 0xB SWAP2 SWAP1 SWAP2 SSTORE PUSH1 0xA SSTORE PUSH1 0x9 SSTORE JUMP JUMPDEST PUSH0 JUMPDEST DUP2 MLOAD DUP2 LT ISZERO PUSH2 0x12A3 JUMPI PUSH2 0x1B79 DUP3 DUP3 DUP2 MLOAD DUP2 LT PUSH2 0x1B6C JUMPI PUSH2 0x1B6C PUSH2 0x4D91 JUMP JUMPDEST PUSH1 0x20 MUL PUSH1 0x20 ADD ADD MLOAD PUSH2 0x34F6 JUMP JUMPDEST PUSH1 0x1 ADD PUSH2 0x1B4E JUMP JUMPDEST PUSH0 DUP1 MLOAD PUSH1 0x20 PUSH2 0x522B DUP4 CODECOPY DUP2 MLOAD SWAP2 MSTORE PUSH2 0x1B98 DUP2 PUSH2 0x445A JUMP JUMPDEST PUSH3 0x15180 DUP3 PUSH6 0xFFFFFFFFFFFF AND LT ISZERO PUSH2 0x1BF3 JUMPI PUSH1 0x40 MLOAD PUSH3 0x461BCD PUSH1 0xE5 SHL DUP2 MSTORE PUSH1 0x20 PUSH1 0x4 DUP3 ADD MSTORE PUSH1 0x18 PUSH1 0x24 DUP3 ADD MSTORE PUSH32 0x4D696E696D756D2032346820666F7220736574746C696E670000000000000000 PUSH1 0x44 DUP3 ADD MSTORE PUSH1 0x64 ADD PUSH2 0xFE1 JUMP JUMPDEST PUSH0 DUP4 DUP2 MSTORE PUSH1 0x4 PUSH1 0x20 SWAP1 DUP2 MSTORE PUSH1 0x40 SWAP2 DUP3 SWAP1 KECCAK256 DUP1 SLOAD PUSH6 0xFFFFFFFFFFFF DUP7 DUP2 AND PUSH1 0x1 PUSH1 0xD0 SHL DUP2 DUP2 MUL PUSH1 0x1 PUSH1 0x1 PUSH1 0xD0 SHL SUB DUP6 AND OR DUP6 SSTORE DUP7 MLOAD DUP11 DUP2 MSTORE SWAP4 DIV SWAP1 SWAP2 AND SWAP4 DUP3 ADD DUP5 SWAP1 MSTORE SWAP4 DUP2 ADD SWAP4 SWAP1 SWAP4 MSTORE SWAP2 PUSH32 0xD5042937EDA12EBDDEBB9D9ECAF0D88595A67D0D28513340610674ACBD48274B SWAP1 PUSH1 0x60 ADD JUMPDEST PUSH1 0x40 MLOAD DUP1 SWAP2 SUB SWAP1 LOG1 POP POP POP POP POP JUMP JUMPDEST DUP1 MLOAD DUP3 MLOAD EQ PUSH2 0x1C93 JUMPI PUSH1 0x40 MLOAD PUSH3 0x461BCD PUSH1 0xE5 SHL DUP2 MSTORE PUSH1 0x4 ADD PUSH2 0xFE1 SWAP1 PUSH2 0x4D6A JUMP JUMPDEST PUSH0 JUMPDEST DUP3 MLOAD DUP2 LT ISZERO PUSH2 0x1CE2 JUMPI PUSH2 0x1CDA DUP4 DUP3 DUP2 MLOAD DUP2 LT PUSH2 0x1CB3 JUMPI PUSH2 0x1CB3 PUSH2 0x4D91 JUMP JUMPDEST PUSH1 0x20 MUL PUSH1 0x20 ADD ADD MLOAD DUP4 DUP4 DUP2 MLOAD DUP2 LT PUSH2 0x1CCD JUMPI PUSH2 0x1CCD PUSH2 0x4D91 JUMP JUMPDEST PUSH1 0x20 MUL PUSH1 0x20 ADD ADD MLOAD PUSH2 0x149D JUMP JUMPDEST PUSH1 0x1 ADD PUSH2 0x1C95 JUMP JUMPDEST POP POP POP JUMP JUMPDEST PUSH0 DUP3 DUP2 MSTORE PUSH1 0x20 DUP2 SWAP1 MSTORE PUSH1 0x40 SWAP1 KECCAK256 PUSH1 0x1 ADD SLOAD PUSH2 0x1D01 DUP2 PUSH2 0x445A JUMP JUMPDEST PUSH2 0x1D0B DUP4 DUP4 PUSH2 0x44E9 JUMP JUMPDEST POP POP POP POP JUMP JUMPDEST PUSH1 0x1 PUSH1 0x1 PUSH1 0xA0 SHL SUB DUP2 AND CALLER EQ PUSH2 0x1D3A JUMPI PUSH1 0x40 MLOAD PUSH4 0x334BD919 PUSH1 0xE1 SHL DUP2 MSTORE PUSH1 0x4 ADD PUSH1 0x40 MLOAD DUP1 SWAP2 SUB SWAP1 REVERT JUMPDEST PUSH2 0x1CE2 DUP3 DUP3 PUSH2 0x4578 JUMP JUMPDEST PUSH0 JUMPDEST DUP2 MLOAD DUP2 LT ISZERO PUSH2 0x12A3 JUMPI PUSH2 0x1D71 DUP3 DUP3 DUP2 MLOAD DUP2 LT PUSH2 0x1D64 JUMPI PUSH2 0x1D64 PUSH2 0x4D91 JUMP JUMPDEST PUSH1 0x20 MUL PUSH1 0x20 ADD ADD MLOAD PUSH2 0x3900 JUMP JUMPDEST PUSH1 0x1 ADD PUSH2 0x1D46 JUMP JUMPDEST PUSH2 0x1DA9 PUSH1 0x40 MLOAD DUP1 PUSH1 0x80 ADD PUSH1 0x40 MSTORE DUP1 PUSH0 DUP2 MSTORE PUSH1 0x20 ADD PUSH0 DUP2 MSTORE PUSH1 0x20 ADD PUSH0 DUP2 MSTORE PUSH1 0x20 ADD PUSH0 PUSH1 0x1 PUSH1 0x1 PUSH1 0xA0 SHL SUB AND DUP2 MSTORE POP SWAP1 JUMP JUMPDEST POP PUSH1 0x40 DUP1 MLOAD PUSH1 0x80 DUP2 ADD DUP3 MSTORE PUSH1 0x9 SLOAD DUP2 MSTORE PUSH1 0xA SLOAD PUSH1 0x20 DUP3 ADD MSTORE PUSH1 0xB SLOAD SWAP2 DUP2 ADD SWAP2 SWAP1 SWAP2 MSTORE PUSH1 0xC SLOAD PUSH1 0x1 PUSH1 0x1 PUSH1 0xA0 SHL SUB AND PUSH1 0x60 DUP3 ADD MSTORE SWAP1 JUMP JUMPDEST PUSH0 DUP1 MLOAD PUSH1 0x20 PUSH2 0x522B DUP4 CODECOPY DUP2 MLOAD SWAP2 MSTORE PUSH2 0x1DF6 DUP2 PUSH2 0x445A JUMP JUMPDEST PUSH0 DUP3 DUP2 MSTORE PUSH1 0x4 PUSH1 0x20 MSTORE PUSH1 0x40 DUP2 KECCAK256 PUSH1 0x1 DUP1 DUP3 ADD SLOAD SWAP2 SWAP3 PUSH1 0x1 PUSH1 0x98 SHL SWAP1 SWAP3 DIV PUSH1 0xFF AND SWAP2 SWAP1 DUP3 EQ PUSH2 0x1E25 JUMPI PUSH1 0x1 PUSH2 0x1E28 JUMP JUMPDEST PUSH1 0x2 JUMPDEST SWAP1 POP PUSH1 0xFF DUP3 AND PUSH1 0x1 EQ DUP1 PUSH2 0x1E3F JUMPI POP PUSH1 0xFF DUP3 AND PUSH1 0x2 EQ JUMPDEST PUSH2 0x1E8B JUMPI PUSH1 0x40 MLOAD PUSH3 0x461BCD PUSH1 0xE5 SHL DUP2 MSTORE PUSH1 0x20 PUSH1 0x4 DUP3 ADD MSTORE PUSH1 0x1A PUSH1 0x24 DUP3 ADD MSTORE PUSH32 0x43616E6E6F74204368616E676520546F6B656E20537461747573000000000000 PUSH1 0x44 DUP3 ADD MSTORE PUSH1 0x64 ADD PUSH2 0xFE1 JUMP JUMPDEST PUSH1 0x1 DUP4 ADD DUP1 SLOAD PUSH1 0xFF DUP4 DUP2 AND PUSH1 0x1 PUSH1 0x98 SHL DUP2 MUL PUSH1 0xFF PUSH1 0x98 SHL NOT SWAP1 SWAP4 AND SWAP3 SWAP1 SWAP3 OR SWAP1 SWAP3 SSTORE PUSH1 0x40 DUP1 MLOAD DUP9 DUP2 MSTORE SWAP3 DUP6 AND PUSH1 0x20 DUP5 ADD MSTORE DUP3 ADD MSTORE PUSH32 0x853E3A954AF7889419A6922A1BC350B54C6217937A4A2AED1176ED3F5A1DFB52 SWAP1 PUSH1 0x60 ADD PUSH2 0x1C63 JUMP JUMPDEST PUSH0 DUP1 MLOAD PUSH1 0x20 PUSH2 0x522B DUP4 CODECOPY DUP2 MLOAD SWAP2 MSTORE PUSH2 0x1F00 DUP2 PUSH2 0x445A JUMP JUMPDEST PUSH0 DUP3 DUP2 MSTORE PUSH1 0x4 PUSH1 0x20 MSTORE PUSH1 0x40 SWAP1 KECCAK256 PUSH1 0x1 DUP2 ADD SLOAD PUSH1 0x1 PUSH1 0x98 SHL SWAP1 DIV PUSH1 0xFF AND PUSH1 0x3 EQ PUSH2 0x1F62 JUMPI PUSH1 0x40 MLOAD PUSH3 0x461BCD PUSH1 0xE5 SHL DUP2 MSTORE PUSH1 0x20 PUSH1 0x4 DUP3 ADD MSTORE PUSH1 0x14 PUSH1 0x24 DUP3 ADD MSTORE PUSH20 0x496E76616C696420546F6B656E20537461747573 PUSH1 0x60 SHL PUSH1 0x44 DUP3 ADD MSTORE PUSH1 0x64 ADD PUSH2 0xFE1 JUMP JUMPDEST PUSH1 0x1 DUP2 ADD DUP1 SLOAD PUSH1 0xFF PUSH1 0x98 SHL NOT AND PUSH1 0x1 PUSH1 0x99 SHL OR SWAP1 SSTORE PUSH1 0x40 MLOAD DUP4 DUP2 MSTORE PUSH32 0x6AC56C552B96D07B41E8EE97200F747E7476892E0E2E53E9803199BFE014B0A8 SWAP1 PUSH1 0x20 ADD JUMPDEST PUSH1 0x40 MLOAD DUP1 SWAP2 SUB SWAP1 LOG1 POP POP POP JUMP JUMPDEST PUSH2 0x1FB8 PUSH2 0x3F93 JUMP JUMPDEST DUP1 MLOAD DUP3 MLOAD EQ PUSH2 0x1FD9 JUMPI PUSH1 0x40 MLOAD PUSH3 0x461BCD PUSH1 0xE5 SHL DUP2 MSTORE PUSH1 0x4 ADD PUSH2 0xFE1 SWAP1 PUSH2 0x4D6A JUMP JUMPDEST PUSH0 JUMPDEST DUP3 MLOAD DUP2 LT ISZERO PUSH2 0x1299 JUMPI PUSH0 DUP4 DUP3 DUP2 MLOAD DUP2 LT PUSH2 0x1FF7 JUMPI PUSH2 0x1FF7 PUSH2 0x4D91 JUMP JUMPDEST PUSH1 0x20 MUL PUSH1 0x20 ADD ADD MLOAD SWAP1 POP PUSH0 DUP4 DUP4 DUP2 MLOAD DUP2 LT PUSH2 0x2014 JUMPI PUSH2 0x2014 PUSH2 0x4D91 JUMP JUMPDEST PUSH1 0x20 SWAP1 DUP2 MUL SWAP2 SWAP1 SWAP2 ADD DUP2 ADD MLOAD PUSH0 DUP5 DUP2 MSTORE PUSH1 0x5 DUP4 MSTORE PUSH1 0x40 DUP1 DUP3 KECCAK256 PUSH1 0x1 DUP1 DUP3 ADD SLOAD DUP5 MSTORE PUSH1 0x4 SWAP1 SWAP6 MSTORE SWAP2 KECCAK256 PUSH1 0x7 DUP3 ADD SLOAD SWAP3 SWAP5 POP SWAP1 SWAP3 SWAP1 SWAP2 PUSH1 0xFF AND EQ PUSH2 0x2068 JUMPI PUSH1 0x40 MLOAD PUSH3 0x461BCD PUSH1 0xE5 SHL DUP2 MSTORE PUSH1 0x4 ADD PUSH2 0xFE1 SWAP1 PUSH2 0x4DA5 JUMP JUMPDEST PUSH1 0x1 DUP2 DUP2 ADD SLOAD PUSH1 0x1 PUSH1 0x98 SHL SWAP1 DIV PUSH1 0xFF AND EQ PUSH2 0x2095 JUMPI PUSH1 0x40 MLOAD PUSH3 0x461BCD PUSH1 0xE5 SHL DUP2 MSTORE PUSH1 0x4 ADD PUSH2 0xFE1 SWAP1 PUSH2 0x4DD3 JUMP JUMPDEST PUSH0 DUP4 GT PUSH2 0x20B4 JUMPI PUSH1 0x40 MLOAD PUSH3 0x461BCD PUSH1 0xE5 SHL DUP2 MSTORE PUSH1 0x4 ADD PUSH2 0xFE1 SWAP1 PUSH2 0x4E01 JUMP JUMPDEST DUP3 DUP3 PUSH1 0x6 ADD SLOAD DUP4 PUSH1 0x3 ADD SLOAD PUSH2 0x20C9 SWAP2 SWAP1 PUSH2 0x4E3D JUMP JUMPDEST LT ISZERO PUSH2 0x20E7 JUMPI PUSH1 0x40 MLOAD PUSH3 0x461BCD PUSH1 0xE5 SHL DUP2 MSTORE PUSH1 0x4 ADD PUSH2 0xFE1 SWAP1 PUSH2 0x4E50 JUMP JUMPDEST PUSH1 0x7 DUP3 ADD SLOAD PUSH1 0x1 PUSH1 0xA8 SHL SWAP1 DIV PUSH1 0xFF AND ISZERO DUP1 PUSH2 0x2105 JUMPI POP DUP3 DUP3 PUSH1 0x3 ADD SLOAD EQ JUMPDEST PUSH2 0x2121 JUMPI PUSH1 0x40 MLOAD PUSH3 0x461BCD PUSH1 0xE5 SHL DUP2 MSTORE PUSH1 0x4 ADD PUSH2 0xFE1 SWAP1 PUSH2 0x4E87 JUMP JUMPDEST PUSH1 0x2 DUP3 ADD SLOAD PUSH1 0x1 PUSH1 0x1 PUSH1 0xA0 SHL SUB AND PUSH2 0x214B JUMPI PUSH1 0x40 MLOAD PUSH3 0x461BCD PUSH1 0xE5 SHL DUP2 MSTORE PUSH1 0x4 ADD PUSH2 0xFE1 SWAP1 PUSH2 0x4EB3 JUMP JUMPDEST PUSH1 0x2 DUP3 ADD SLOAD PUSH1 0x40 DUP1 MLOAD PUSH4 0x313CE567 PUSH1 0xE0 SHL DUP2 MSTORE SWAP1 MLOAD PUSH1 0x1 PUSH1 0x1 PUSH1 0xA0 SHL SUB SWAP1 SWAP3 AND SWAP2 PUSH0 SWAP2 DUP3 SWAP2 DUP3 SWAP2 DUP3 SWAP2 DUP7 SWAP2 PUSH4 0x313CE567 SWAP2 PUSH1 0x4 DUP1 DUP4 ADD SWAP3 PUSH1 0x20 SWAP3 SWAP2 SWAP1 DUP3 SWAP1 SUB ADD DUP2 DUP7 GAS STATICCALL ISZERO DUP1 ISZERO PUSH2 0x219E JUMPI RETURNDATASIZE PUSH0 DUP1 RETURNDATACOPY RETURNDATASIZE PUSH0 REVERT JUMPDEST POP POP POP POP PUSH1 0x40 MLOAD RETURNDATASIZE PUSH1 0x1F NOT PUSH1 0x1F DUP3 ADD AND DUP3 ADD DUP1 PUSH1 0x40 MSTORE POP DUP2 ADD SWAP1 PUSH2 0x21C2 SWAP2 SWAP1 PUSH2 0x4F94 JUMP JUMPDEST DUP8 SLOAD SWAP1 SWAP2 POP PUSH1 0xFF AND PUSH0 NOT ADD PUSH2 0x2220 JUMPI PUSH0 DUP8 PUSH1 0x3 ADD SLOAD DUP10 DUP10 PUSH1 0x5 ADD SLOAD PUSH2 0x21E7 SWAP2 SWAP1 PUSH2 0x4EE0 JUMP JUMPDEST PUSH2 0x21F1 SWAP2 SWAP1 PUSH2 0x4F0B JUMP JUMPDEST SWAP1 POP PUSH2 0x21FF DUP2 PUSH1 0x12 DUP5 PUSH2 0x4194 JUMP JUMPDEST PUSH1 0x7 DUP10 ADD SLOAD SWAP1 SWAP6 POP PUSH2 0x100 SWAP1 DIV PUSH1 0x1 PUSH1 0x1 PUSH1 0xA0 SHL SUB AND SWAP4 POP CALLER SWAP3 POP POP PUSH2 0x226B JUMP JUMPDEST PUSH0 DUP8 PUSH1 0x3 ADD SLOAD DUP10 DUP10 PUSH1 0x4 ADD SLOAD PUSH2 0x2236 SWAP2 SWAP1 PUSH2 0x4EE0 JUMP JUMPDEST PUSH2 0x2240 SWAP2 SWAP1 PUSH2 0x4F0B JUMP JUMPDEST SWAP1 POP PUSH2 0x224E DUP2 PUSH1 0x12 DUP5 PUSH2 0x4194 JUMP JUMPDEST SWAP5 POP CALLER PUSH1 0x7 DUP10 ADD SLOAD SWAP1 SWAP5 POP PUSH2 0x100 SWAP1 DIV PUSH1 0x1 PUSH1 0x1 PUSH1 0xA0 SHL SUB AND SWAP3 POP POP JUMPDEST PUSH2 0x2282 CALLER JUMPDEST PUSH1 0x1 PUSH1 0x1 PUSH1 0xA0 SHL SUB DUP8 AND SWAP1 ADDRESS DUP8 PUSH2 0x4227 JUMP JUMPDEST PUSH2 0x228E DUP10 DUP10 DUP6 DUP6 PUSH2 0x3FEC JUMP JUMPDEST POP POP PUSH1 0x1 SWAP1 SWAP8 ADD SWAP7 POP PUSH2 0x1FDB SWAP6 POP POP POP POP POP POP JUMP JUMPDEST PUSH2 0x22AB PUSH2 0x3F93 JUMP JUMPDEST PUSH0 DUP3 DUP2 MSTORE PUSH1 0x5 PUSH1 0x20 SWAP1 DUP2 MSTORE PUSH1 0x40 DUP1 DUP4 KECCAK256 PUSH1 0x1 DUP1 DUP3 ADD SLOAD DUP6 MSTORE PUSH1 0x4 SWAP1 SWAP4 MSTORE SWAP3 KECCAK256 PUSH1 0x7 DUP4 ADD SLOAD SWAP1 SWAP2 PUSH1 0xFF SWAP1 SWAP2 AND EQ PUSH2 0x22F3 JUMPI PUSH1 0x40 MLOAD PUSH3 0x461BCD PUSH1 0xE5 SHL DUP2 MSTORE PUSH1 0x4 ADD PUSH2 0xFE1 SWAP1 PUSH2 0x4DA5 JUMP JUMPDEST PUSH1 0x1 DUP2 DUP2 ADD SLOAD PUSH1 0x1 PUSH1 0x98 SHL SWAP1 DIV PUSH1 0xFF AND EQ PUSH2 0x2320 JUMPI PUSH1 0x40 MLOAD PUSH3 0x461BCD PUSH1 0xE5 SHL DUP2 MSTORE PUSH1 0x4 ADD PUSH2 0xFE1 SWAP1 PUSH2 0x4DD3 JUMP JUMPDEST PUSH0 DUP4 GT PUSH2 0x233F JUMPI PUSH1 0x40 MLOAD PUSH3 0x461BCD PUSH1 0xE5 SHL DUP2 MSTORE PUSH1 0x4 ADD PUSH2 0xFE1 SWAP1 PUSH2 0x4E01 JUMP JUMPDEST DUP3 DUP3 PUSH1 0x6 ADD SLOAD DUP4 PUSH1 0x3 ADD SLOAD PUSH2 0x2354 SWAP2 SWAP1 PUSH2 0x4E3D JUMP JUMPDEST LT ISZERO PUSH2 0x2372 JUMPI PUSH1 0x40 MLOAD PUSH3 0x461BCD PUSH1 0xE5 SHL DUP2 MSTORE PUSH1 0x4 ADD PUSH2 0xFE1 SWAP1 PUSH2 0x4E50 JUMP JUMPDEST PUSH1 0x7 DUP3 ADD SLOAD PUSH1 0x1 PUSH1 0xA8 SHL SWAP1 DIV PUSH1 0xFF AND ISZERO DUP1 PUSH2 0x2390 JUMPI POP DUP3 DUP3 PUSH1 0x3 ADD SLOAD EQ JUMPDEST PUSH2 0x23AC JUMPI PUSH1 0x40 MLOAD PUSH3 0x461BCD PUSH1 0xE5 SHL DUP2 MSTORE PUSH1 0x4 ADD PUSH2 0xFE1 SWAP1 PUSH2 0x4E87 JUMP JUMPDEST PUSH1 0x2 DUP3 ADD SLOAD PUSH1 0x1 PUSH1 0x1 PUSH1 0xA0 SHL SUB AND PUSH2 0x23D6 JUMPI PUSH1 0x40 MLOAD PUSH3 0x461BCD PUSH1 0xE5 SHL DUP2 MSTORE PUSH1 0x4 ADD PUSH2 0xFE1 SWAP1 PUSH2 0x4EB3 JUMP JUMPDEST PUSH1 0x2 DUP3 ADD SLOAD PUSH1 0x40 DUP1 MLOAD PUSH4 0x313CE567 PUSH1 0xE0 SHL DUP2 MSTORE SWAP1 MLOAD PUSH1 0x1 PUSH1 0x1 PUSH1 0xA0 SHL SUB SWAP1 SWAP3 AND SWAP2 PUSH0 SWAP2 DUP3 SWAP2 DUP3 SWAP2 DUP3 SWAP2 DUP7 SWAP2 PUSH4 0x313CE567 SWAP2 PUSH1 0x4 DUP1 DUP4 ADD SWAP3 PUSH1 0x20 SWAP3 SWAP2 SWAP1 DUP3 SWAP1 SUB ADD DUP2 DUP7 GAS STATICCALL ISZERO DUP1 ISZERO PUSH2 0x2429 JUMPI RETURNDATASIZE PUSH0 DUP1 RETURNDATACOPY RETURNDATASIZE PUSH0 REVERT JUMPDEST POP POP POP POP PUSH1 0x40 MLOAD RETURNDATASIZE PUSH1 0x1F NOT PUSH1 0x1F DUP3 ADD AND DUP3 ADD DUP1 PUSH1 0x40 MSTORE POP DUP2 ADD SWAP1 PUSH2 0x244D SWAP2 SWAP1 PUSH2 0x4F94 JUMP JUMPDEST DUP8 SLOAD SWAP1 SWAP2 POP PUSH1 0xFF AND PUSH0 NOT ADD PUSH2 0x24AB JUMPI PUSH0 DUP8 PUSH1 0x3 ADD SLOAD DUP10 DUP10 PUSH1 0x5 ADD SLOAD PUSH2 0x2472 SWAP2 SWAP1 PUSH2 0x4EE0 JUMP JUMPDEST PUSH2 0x247C SWAP2 SWAP1 PUSH2 0x4F0B JUMP JUMPDEST SWAP1 POP PUSH2 0x248A DUP2 PUSH1 0x12 DUP5 PUSH2 0x4194 JUMP JUMPDEST PUSH1 0x7 DUP10 ADD SLOAD SWAP1 SWAP6 POP PUSH2 0x100 SWAP1 DIV PUSH1 0x1 PUSH1 0x1 PUSH1 0xA0 SHL SUB AND SWAP4 POP CALLER SWAP3 POP POP PUSH2 0x24F6 JUMP JUMPDEST PUSH0 DUP8 PUSH1 0x3 ADD SLOAD DUP10 DUP10 PUSH1 0x4 ADD SLOAD PUSH2 0x24C1 SWAP2 SWAP1 PUSH2 0x4EE0 JUMP JUMPDEST PUSH2 0x24CB SWAP2 SWAP1 PUSH2 0x4F0B JUMP JUMPDEST SWAP1 POP PUSH2 0x24D9 DUP2 PUSH1 0x12 DUP5 PUSH2 0x4194 JUMP JUMPDEST SWAP5 POP CALLER PUSH1 0x7 DUP10 ADD SLOAD SWAP1 SWAP5 POP PUSH2 0x100 SWAP1 DIV PUSH1 0x1 PUSH1 0x1 PUSH1 0xA0 SHL SUB AND SWAP3 POP POP JUMPDEST PUSH2 0x24FF CALLER PUSH2 0x2270 JUMP JUMPDEST PUSH2 0x250B DUP10 DUP10 DUP6 DUP6 PUSH2 0x3FEC JUMP JUMPDEST POP POP POP POP POP POP POP PUSH2 0x12A3 PUSH1 0x1 DUP1 SSTORE JUMP JUMPDEST PUSH2 0x2523 PUSH2 0x3F93 JUMP JUMPDEST PUSH0 DUP3 DUP2 MSTORE PUSH1 0x5 PUSH1 0x20 SWAP1 DUP2 MSTORE PUSH1 0x40 DUP1 DUP4 KECCAK256 PUSH1 0x1 DUP1 DUP3 ADD SLOAD DUP6 MSTORE PUSH1 0x4 SWAP1 SWAP4 MSTORE SWAP3 KECCAK256 PUSH1 0x7 DUP4 ADD SLOAD SWAP1 SWAP2 PUSH1 0xFF SWAP1 SWAP2 AND EQ PUSH2 0x256B JUMPI PUSH1 0x40 MLOAD PUSH3 0x461BCD PUSH1 0xE5 SHL DUP2 MSTORE PUSH1 0x4 ADD PUSH2 0xFE1 SWAP1 PUSH2 0x4DA5 JUMP JUMPDEST PUSH1 0x1 DUP2 DUP2 ADD SLOAD PUSH1 0x1 PUSH1 0x98 SHL SWAP1 DIV PUSH1 0xFF AND EQ PUSH2 0x2598 JUMPI PUSH1 0x40 MLOAD PUSH3 0x461BCD PUSH1 0xE5 SHL DUP2 MSTORE PUSH1 0x4 ADD PUSH2 0xFE1 SWAP1 PUSH2 0x4DD3 JUMP JUMPDEST PUSH0 DUP4 GT PUSH2 0x25B7 JUMPI PUSH1 0x40 MLOAD PUSH3 0x461BCD PUSH1 0xE5 SHL DUP2 MSTORE PUSH1 0x4 ADD PUSH2 0xFE1 SWAP1 PUSH2 0x4E01 JUMP JUMPDEST DUP3 DUP3 PUSH1 0x6 ADD SLOAD DUP4 PUSH1 0x3 ADD SLOAD PUSH2 0x25CC SWAP2 SWAP1 PUSH2 0x4E3D JUMP JUMPDEST LT ISZERO PUSH2 0x25EA JUMPI PUSH1 0x40 MLOAD PUSH3 0x461BCD PUSH1 0xE5 SHL DUP2 MSTORE PUSH1 0x4 ADD PUSH2 0xFE1 SWAP1 PUSH2 0x4E50 JUMP JUMPDEST PUSH1 0x7 DUP3 ADD SLOAD PUSH1 0x1 PUSH1 0xA8 SHL SWAP1 DIV PUSH1 0xFF AND ISZERO DUP1 PUSH2 0x2608 JUMPI POP DUP3 DUP3 PUSH1 0x3 ADD SLOAD EQ JUMPDEST PUSH2 0x2624 JUMPI PUSH1 0x40 MLOAD PUSH3 0x461BCD PUSH1 0xE5 SHL DUP2 MSTORE PUSH1 0x4 ADD PUSH2 0xFE1 SWAP1 PUSH2 0x4E87 JUMP JUMPDEST PUSH1 0x2 DUP3 ADD SLOAD PUSH1 0x1 PUSH1 0x1 PUSH1 0xA0 SHL SUB AND ISZERO PUSH2 0x264F JUMPI PUSH1 0x40 MLOAD PUSH3 0x461BCD PUSH1 0xE5 SHL DUP2 MSTORE PUSH1 0x4 ADD PUSH2 0xFE1 SWAP1 PUSH2 0x4EB3 JUMP JUMPDEST DUP2 SLOAD PUSH0 SWAP1 DUP2 SWAP1 DUP2 SWAP1 PUSH1 0xFF AND PUSH0 NOT ADD PUSH2 0x26A0 JUMPI DUP5 PUSH1 0x3 ADD SLOAD DUP7 DUP7 PUSH1 0x5 ADD SLOAD PUSH2 0x2676 SWAP2 SWAP1 PUSH2 0x4EE0 JUMP JUMPDEST PUSH2 0x2680 SWAP2 SWAP1 PUSH2 0x4F0B JUMP JUMPDEST PUSH1 0x7 DUP7 ADD SLOAD SWAP1 SWAP4 POP PUSH2 0x100 SWAP1 DIV PUSH1 0x1 PUSH1 0x1 PUSH1 0xA0 SHL SUB AND SWAP2 POP CALLER SWAP1 POP PUSH2 0x26DB JUMP JUMPDEST DUP5 PUSH1 0x3 ADD SLOAD DUP7 DUP7 PUSH1 0x4 ADD SLOAD PUSH2 0x26B5 SWAP2 SWAP1 PUSH2 0x4EE0 JUMP JUMPDEST PUSH2 0x26BF SWAP2 SWAP1 PUSH2 0x4F0B JUMP JUMPDEST SWAP3 POP CALLER PUSH1 0x7 DUP7 ADD SLOAD SWAP1 SWAP3 POP PUSH2 0x100 SWAP1 DIV PUSH1 0x1 PUSH1 0x1 PUSH1 0xA0 SHL SUB AND SWAP1 POP JUMPDEST DUP3 CALLVALUE LT ISZERO PUSH2 0x26FB JUMPI PUSH1 0x40 MLOAD PUSH3 0x461BCD PUSH1 0xE5 SHL DUP2 MSTORE PUSH1 0x4 ADD PUSH2 0xFE1 SWAP1 PUSH2 0x4F31 JUMP JUMPDEST DUP3 CALLVALUE GT ISZERO PUSH2 0x2779 JUMPI PUSH0 PUSH2 0x270E DUP5 CALLVALUE PUSH2 0x4E3D JUMP JUMPDEST PUSH1 0x40 MLOAD SWAP1 SWAP2 POP PUSH0 SWAP1 CALLER SWAP1 DUP4 SWAP1 DUP4 DUP2 DUP2 DUP2 DUP6 DUP8 GAS CALL SWAP3 POP POP POP RETURNDATASIZE DUP1 PUSH0 DUP2 EQ PUSH2 0x2750 JUMPI PUSH1 0x40 MLOAD SWAP2 POP PUSH1 0x1F NOT PUSH1 0x3F RETURNDATASIZE ADD AND DUP3 ADD PUSH1 0x40 MSTORE RETURNDATASIZE DUP3 MSTORE RETURNDATASIZE PUSH0 PUSH1 0x20 DUP5 ADD RETURNDATACOPY PUSH2 0x2755 JUMP JUMPDEST PUSH1 0x60 SWAP2 POP JUMPDEST POP POP SWAP1 POP DUP1 PUSH2 0x2776 JUMPI PUSH1 0x40 MLOAD PUSH3 0x461BCD PUSH1 0xE5 SHL DUP2 MSTORE PUSH1 0x4 ADD PUSH2 0xFE1 SWAP1 PUSH2 0x4F5D JUMP JUMPDEST POP POP JUMPDEST PUSH2 0x2785 DUP8 DUP8 DUP5 DUP5 PUSH2 0x3FEC JUMP JUMPDEST POP POP POP POP POP PUSH2 0x12A3 PUSH1 0x1 DUP1 SSTORE JUMP JUMPDEST PUSH0 DUP1 MLOAD PUSH1 0x20 PUSH2 0x522B DUP4 CODECOPY DUP2 MLOAD SWAP2 MSTORE PUSH2 0x27AA DUP2 PUSH2 0x445A JUMP JUMPDEST PUSH0 DUP5 DUP2 MSTORE PUSH1 0x4 PUSH1 0x20 MSTORE PUSH1 0x40 SWAP1 KECCAK256 PUSH1 0x1 PUSH1 0x1 PUSH1 0xA0 SHL SUB DUP5 AND PUSH2 0x281F JUMPI PUSH1 0x40 MLOAD PUSH3 0x461BCD PUSH1 0xE5 SHL DUP2 MSTORE PUSH1 0x20 PUSH1 0x4 DUP3 ADD MSTORE PUSH1 0x29 PUSH1 0x24 DUP3 ADD MSTORE PUSH32 0x746F6B656E546F536574746C6550686173653A20496E76616C696420546F6B65 PUSH1 0x44 DUP3 ADD MSTORE PUSH9 0x6E2041646472657373 PUSH1 0xB8 SHL PUSH1 0x64 DUP3 ADD MSTORE PUSH1 0x84 ADD PUSH2 0xFE1 JUMP JUMPDEST PUSH0 DUP4 PUSH1 0x1 PUSH1 0x1 PUSH1 0x98 SHL SUB AND GT PUSH2 0x2886 JUMPI PUSH1 0x40 MLOAD PUSH3 0x461BCD PUSH1 0xE5 SHL DUP2 MSTORE PUSH1 0x20 PUSH1 0x4 DUP3 ADD MSTORE PUSH1 0x26 PUSH1 0x24 DUP3 ADD MSTORE PUSH32 0x746F6B656E546F536574746C6550686173653A496E76616C696420536574746C PUSH1 0x44 DUP3 ADD MSTORE PUSH6 0x652052617465 PUSH1 0xD0 SHL PUSH1 0x64 DUP3 ADD MSTORE PUSH1 0x84 ADD PUSH2 0xFE1 JUMP JUMPDEST PUSH1 0x1 DUP2 DUP2 ADD SLOAD PUSH1 0x1 PUSH1 0x98 SHL SWAP1 DIV PUSH1 0xFF AND EQ DUP1 PUSH2 0x28B0 JUMPI POP PUSH1 0x1 DUP2 ADD SLOAD PUSH1 0x1 PUSH1 0x98 SHL SWAP1 DIV PUSH1 0xFF AND PUSH1 0x2 EQ JUMPDEST PUSH2 0x290C JUMPI PUSH1 0x40 MLOAD PUSH3 0x461BCD PUSH1 0xE5 SHL DUP2 MSTORE PUSH1 0x20 PUSH1 0x4 DUP3 ADD MSTORE PUSH1 0x27 PUSH1 0x24 DUP3 ADD MSTORE PUSH32 0x746F6B656E546F536574746C6550686173653A496E76616C696420546F6B656E PUSH1 0x44 DUP3 ADD MSTORE PUSH7 0x20537461747573 PUSH1 0xC8 SHL PUSH1 0x64 DUP3 ADD MSTORE PUSH1 0x84 ADD PUSH2 0xFE1 JUMP JUMPDEST DUP1 SLOAD PUSH1 0x1 DUP3 ADD DUP1 SLOAD PUSH1 0x1 PUSH1 0x1 PUSH1 0x98 SHL SUB DUP7 AND PUSH1 0x1 PUSH1 0x1 PUSH1 0xA0 SHL SUB NOT SWAP1 SWAP2 AND DUP2 OR PUSH1 0x3 PUSH1 0x98 SHL OR SWAP1 SWAP2 SSTORE PUSH1 0x1 PUSH1 0x1 PUSH1 0xA0 SHL SUB DUP7 AND PUSH1 0x1 PUSH1 0x1 PUSH1 0xD0 SHL SUB NOT SWAP1 SWAP3 AND DUP3 OR PUSH1 0x1 PUSH1 0xA0 SHL TIMESTAMP PUSH6 0xFFFFFFFFFFFF DUP2 AND SWAP2 SWAP1 SWAP2 MUL SWAP2 SWAP1 SWAP2 OR DUP5 SSTORE PUSH1 0x40 DUP1 MLOAD DUP10 DUP2 MSTORE PUSH1 0x20 DUP2 ADD SWAP5 SWAP1 SWAP5 MSTORE DUP4 ADD SWAP2 SWAP1 SWAP2 MSTORE PUSH1 0x60 DUP3 ADD MSTORE PUSH32 0x973839AC031E9779C3158A52AE98CB3B0BE8A378B1ADC2B2CE2C14F89C814895 SWAP1 PUSH1 0x80 ADD PUSH2 0x1C63 JUMP JUMPDEST PUSH0 SWAP2 DUP3 MSTORE PUSH1 0x20 DUP3 DUP2 MSTORE PUSH1 0x40 DUP1 DUP5 KECCAK256 PUSH1 0x1 PUSH1 0x1 PUSH1 0xA0 SHL SUB SWAP4 SWAP1 SWAP4 AND DUP5 MSTORE SWAP2 SWAP1 MSTORE SWAP1 KECCAK256 SLOAD PUSH1 0xFF AND SWAP1 JUMP JUMPDEST PUSH0 DUP1 MLOAD PUSH1 0x20 PUSH2 0x522B DUP4 CODECOPY DUP2 MLOAD SWAP2 MSTORE PUSH2 0x29E9 DUP2 PUSH2 0x445A JUMP JUMPDEST PUSH0 JUMPDEST DUP4 MLOAD DUP2 LT ISZERO PUSH2 0x2A43 JUMPI DUP3 PUSH1 0x2 PUSH0 DUP7 DUP5 DUP2 MLOAD DUP2 LT PUSH2 0x2A0A JUMPI PUSH2 0x2A0A PUSH2 0x4D91 JUMP JUMPDEST PUSH1 0x20 SWAP1 DUP2 MUL SWAP2 SWAP1 SWAP2 ADD DUP2 ADD MLOAD PUSH1 0x1 PUSH1 0x1 PUSH1 0xA0 SHL SUB AND DUP3 MSTORE DUP2 ADD SWAP2 SWAP1 SWAP2 MSTORE PUSH1 0x40 ADD PUSH0 KECCAK256 DUP1 SLOAD PUSH1 0xFF NOT AND SWAP2 ISZERO ISZERO SWAP2 SWAP1 SWAP2 OR SWAP1 SSTORE PUSH1 0x1 ADD PUSH2 0x29EB JUMP JUMPDEST POP PUSH32 0x6A980E8CA36409CFF27B8778560E2A0F5183FEA53171BC0AEFF7317906C7C1F4 DUP4 DUP4 PUSH1 0x40 MLOAD PUSH2 0x1FA3 SWAP3 SWAP2 SWAP1 PUSH2 0x5032 JUMP JUMPDEST PUSH0 DUP2 DUP2 MSTORE PUSH1 0x5 PUSH1 0x20 MSTORE PUSH1 0x40 DUP2 KECCAK256 PUSH1 0x6 DUP2 ADD SLOAD PUSH1 0x3 SWAP1 SWAP2 ADD SLOAD PUSH2 0xFB2 SWAP2 SWAP1 PUSH2 0x4E3D JUMP JUMPDEST PUSH2 0x2A9F PUSH2 0x3F93 JUMP JUMPDEST PUSH0 DUP2 DUP2 MSTORE PUSH1 0x7 PUSH1 0x20 SWAP1 DUP2 MSTORE PUSH1 0x40 DUP1 DUP4 KECCAK256 DUP1 SLOAD DUP5 MSTORE PUSH1 0x5 DUP4 MSTORE DUP2 DUP5 KECCAK256 PUSH1 0x1 DUP1 DUP3 ADD SLOAD DUP7 MSTORE PUSH1 0x4 SWAP1 SWAP5 MSTORE SWAP2 SWAP1 SWAP4 KECCAK256 SWAP2 DUP3 ADD SLOAD SWAP1 SWAP2 SWAP1 PUSH1 0x1 PUSH1 0x98 SHL SWAP1 DIV PUSH1 0xFF AND PUSH1 0x3 EQ PUSH2 0x2AFB JUMPI PUSH1 0x40 MLOAD PUSH3 0x461BCD PUSH1 0xE5 SHL DUP2 MSTORE PUSH1 0x4 ADD PUSH2 0xFE1 SWAP1 PUSH2 0x4FAF JUMP JUMPDEST DUP1 SLOAD PUSH1 0x1 PUSH1 0x1 PUSH1 0xA0 SHL SUB AND ISZERO DUP1 ISZERO SWAP1 PUSH2 0x2B20 JUMPI POP PUSH1 0x1 DUP2 ADD SLOAD PUSH1 0x1 PUSH1 0x1 PUSH1 0x98 SHL SUB AND ISZERO ISZERO JUMPDEST PUSH2 0x2B5C JUMPI PUSH1 0x40 MLOAD PUSH3 0x461BCD PUSH1 0xE5 SHL DUP2 MSTORE PUSH1 0x20 PUSH1 0x4 DUP3 ADD MSTORE PUSH1 0xD PUSH1 0x24 DUP3 ADD MSTORE PUSH13 0x151BDAD95B88139BDD0814D95D PUSH1 0x9A SHL PUSH1 0x44 DUP3 ADD MSTORE PUSH1 0x64 ADD PUSH2 0xFE1 JUMP JUMPDEST DUP1 SLOAD PUSH1 0x1 PUSH1 0xA0 SHL SWAP1 DIV PUSH6 0xFFFFFFFFFFFF AND PUSH2 0x2BB5 JUMPI PUSH1 0x40 MLOAD PUSH3 0x461BCD PUSH1 0xE5 SHL DUP2 MSTORE PUSH1 0x20 PUSH1 0x4 DUP3 ADD MSTORE PUSH1 0x19 PUSH1 0x24 DUP3 ADD MSTORE PUSH25 0x14D95D1D1B1A5B99C8151A5B5948139BDD0814DD185C9D1959 PUSH1 0x3A SHL PUSH1 0x44 DUP3 ADD MSTORE PUSH1 0x64 ADD PUSH2 0xFE1 JUMP JUMPDEST PUSH1 0x2 DUP4 ADD SLOAD PUSH1 0x1 PUSH1 0x1 PUSH1 0xA0 SHL SUB AND CALLER EQ PUSH2 0x2BFF JUMPI PUSH1 0x40 MLOAD PUSH3 0x461BCD PUSH1 0xE5 SHL DUP2 MSTORE PUSH1 0x20 PUSH1 0x4 DUP3 ADD MSTORE PUSH1 0xB PUSH1 0x24 DUP3 ADD MSTORE PUSH11 0x53656C6C6572204F6E6C79 PUSH1 0xA8 SHL PUSH1 0x44 DUP3 ADD MSTORE PUSH1 0x64 ADD PUSH2 0xFE1 JUMP JUMPDEST PUSH1 0x3 DUP4 ADD SLOAD PUSH1 0x1 PUSH1 0xA0 SHL SWAP1 DIV PUSH1 0xFF AND PUSH1 0x1 EQ PUSH2 0x2C2D JUMPI PUSH1 0x40 MLOAD PUSH3 0x461BCD PUSH1 0xE5 SHL DUP2 MSTORE PUSH1 0x4 ADD PUSH2 0xFE1 SWAP1 PUSH2 0x4FD7 JUMP JUMPDEST PUSH1 0x2 DUP3 ADD SLOAD PUSH0 SWAP1 PUSH1 0x1 PUSH1 0x1 PUSH1 0xA0 SHL SUB AND PUSH2 0x2C49 JUMPI POP PUSH1 0x12 PUSH2 0x2CC2 JUMP JUMPDEST DUP3 PUSH1 0x2 ADD PUSH0 SWAP1 SLOAD SWAP1 PUSH2 0x100 EXP SWAP1 DIV PUSH1 0x1 PUSH1 0x1 PUSH1 0xA0 SHL SUB AND PUSH1 0x1 PUSH1 0x1 PUSH1 0xA0 SHL SUB AND PUSH4 0x313CE567 PUSH1 0x40 MLOAD DUP2 PUSH4 0xFFFFFFFF AND PUSH1 0xE0 SHL DUP2 MSTORE PUSH1 0x4 ADD PUSH1 0x20 PUSH1 0x40 MLOAD DUP1 DUP4 SUB DUP2 DUP7 GAS STATICCALL ISZERO DUP1 ISZERO PUSH2 0x2C9B JUMPI RETURNDATASIZE PUSH0 DUP1 RETURNDATACOPY RETURNDATASIZE PUSH0 REVERT JUMPDEST POP POP POP POP PUSH1 0x40 MLOAD RETURNDATASIZE PUSH1 0x1F NOT PUSH1 0x1F DUP3 ADD AND DUP3 ADD DUP1 PUSH1 0x40 MSTORE POP DUP2 ADD SWAP1 PUSH2 0x2CBF SWAP2 SWAP1 PUSH2 0x4F94 JUMP JUMPDEST SWAP1 POP JUMPDEST PUSH0 PUSH2 0x2CDF DUP5 PUSH1 0x3 ADD SLOAD DUP6 PUSH1 0x5 ADD SLOAD DUP8 PUSH1 0x1 ADD SLOAD PUSH2 0x16B2 SWAP2 SWAP1 PUSH2 0x4EE0 JUMP JUMPDEST SWAP1 POP PUSH0 PUSH2 0x2CFE DUP6 PUSH1 0x3 ADD SLOAD DUP7 PUSH1 0x4 ADD SLOAD DUP9 PUSH1 0x1 ADD SLOAD PUSH2 0x16E3 SWAP2 SWAP1 PUSH2 0x4EE0 JUMP JUMPDEST DUP5 SLOAD PUSH1 0x40 DUP1 MLOAD PUSH4 0x313CE567 PUSH1 0xE0 SHL DUP2 MSTORE SWAP1 MLOAD SWAP3 SWAP4 POP PUSH1 0x1 PUSH1 0x1 PUSH1 0xA0 SHL SUB SWAP1 SWAP2 AND SWAP2 PUSH0 SWAP2 DUP4 SWAP2 PUSH4 0x313CE567 SWAP2 PUSH1 0x4 DUP1 DUP3 ADD SWAP3 PUSH1 0x20 SWAP3 SWAP1 SWAP2 SWAP1 DUP3 SWAP1 SUB ADD DUP2 DUP7 GAS STATICCALL ISZERO DUP1 ISZERO PUSH2 0x2D4C JUMPI RETURNDATASIZE PUSH0 DUP1 RETURNDATACOPY RETURNDATASIZE PUSH0 REVERT JUMPDEST POP POP POP POP PUSH1 0x40 MLOAD RETURNDATASIZE PUSH1 0x1F NOT PUSH1 0x1F DUP3 ADD AND DUP3 ADD DUP1 PUSH1 0x40 MSTORE POP DUP2 ADD SWAP1 PUSH2 0x2D70 SWAP2 SWAP1 PUSH2 0x4F94 JUMP JUMPDEST PUSH1 0x1 DUP1 DUP9 ADD SLOAD SWAP1 DUP11 ADD SLOAD SWAP2 SWAP3 POP PUSH0 SWAP2 PUSH2 0x2D9B SWAP2 PUSH3 0xF4240 SWAP2 PUSH2 0x16B2 SWAP2 PUSH1 0x1 PUSH1 0x1 PUSH1 0x98 SHL SUB AND SWAP1 PUSH2 0x4EE0 JUMP JUMPDEST SWAP1 POP PUSH0 PUSH3 0xF4240 PUSH1 0x9 PUSH1 0x2 ADD SLOAD DUP4 PUSH2 0x2DB3 SWAP2 SWAP1 PUSH2 0x4EE0 JUMP JUMPDEST PUSH2 0x2DBD SWAP2 SWAP1 PUSH2 0x4F0B JUMP JUMPDEST PUSH1 0x2 DUP12 ADD SLOAD PUSH1 0xC SLOAD SWAP2 SWAP3 POP PUSH2 0x2DE2 SWAP2 PUSH1 0x1 PUSH1 0x1 PUSH1 0xA0 SHL SUB DUP8 DUP2 AND SWAP3 DUP2 AND SWAP2 AND DUP5 PUSH2 0x4227 JUMP JUMPDEST PUSH1 0x2 DUP11 ADD SLOAD PUSH1 0x3 DUP12 ADD SLOAD PUSH2 0x2E19 SWAP2 PUSH1 0x1 PUSH1 0x1 PUSH1 0xA0 SHL SUB SWAP1 DUP2 AND SWAP2 AND PUSH2 0x2E07 DUP5 DUP7 PUSH2 0x4E3D JUMP JUMPDEST PUSH1 0x1 PUSH1 0x1 PUSH1 0xA0 SHL SUB DUP9 AND SWAP3 SWAP2 SWAP1 PUSH2 0x4227 JUMP JUMPDEST PUSH1 0xB SLOAD PUSH0 SWAP1 PUSH3 0xF4240 SWAP1 PUSH2 0x2E2D SWAP1 DUP9 PUSH2 0x4EE0 JUMP JUMPDEST PUSH2 0x2E37 SWAP2 SWAP1 PUSH2 0x4F0B JUMP JUMPDEST SWAP1 POP PUSH0 DUP2 PUSH2 0x2E45 DUP10 DUP10 PUSH2 0x4F1E JUMP JUMPDEST PUSH2 0x2E4F SWAP2 SWAP1 PUSH2 0x4E3D JUMP JUMPDEST PUSH1 0x2 DUP13 ADD SLOAD SWAP1 SWAP2 POP PUSH1 0x1 PUSH1 0x1 PUSH1 0xA0 SHL SUB AND PUSH2 0x2F3C JUMPI PUSH1 0x2 DUP13 ADD SLOAD PUSH1 0x40 MLOAD PUSH0 SWAP2 PUSH1 0x1 PUSH1 0x1 PUSH1 0xA0 SHL SUB AND SWAP1 DUP4 SWAP1 DUP4 DUP2 DUP2 DUP2 DUP6 DUP8 GAS CALL SWAP3 POP POP POP RETURNDATASIZE DUP1 PUSH0 DUP2 EQ PUSH2 0x2EB0 JUMPI PUSH1 0x40 MLOAD SWAP2 POP PUSH1 0x1F NOT PUSH1 0x3F RETURNDATASIZE ADD AND DUP3 ADD PUSH1 0x40 MSTORE RETURNDATASIZE DUP3 MSTORE RETURNDATASIZE PUSH0 PUSH1 0x20 DUP5 ADD RETURNDATACOPY PUSH2 0x2EB5 JUMP JUMPDEST PUSH1 0x60 SWAP2 POP JUMPDEST POP POP PUSH1 0xC SLOAD PUSH1 0x40 MLOAD SWAP2 SWAP3 POP PUSH0 SWAP2 PUSH1 0x1 PUSH1 0x1 PUSH1 0xA0 SHL SUB SWAP1 SWAP2 AND SWAP1 DUP6 SWAP1 DUP4 DUP2 DUP2 DUP2 DUP6 DUP8 GAS CALL SWAP3 POP POP POP RETURNDATASIZE DUP1 PUSH0 DUP2 EQ PUSH2 0x2F06 JUMPI PUSH1 0x40 MLOAD SWAP2 POP PUSH1 0x1F NOT PUSH1 0x3F RETURNDATASIZE ADD AND DUP3 ADD PUSH1 0x40 MSTORE RETURNDATASIZE DUP3 MSTORE RETURNDATASIZE PUSH0 PUSH1 0x20 DUP5 ADD RETURNDATACOPY PUSH2 0x2F0B JUMP JUMPDEST PUSH1 0x60 SWAP2 POP JUMPDEST POP POP SWAP1 POP DUP2 DUP1 ISZERO PUSH2 0x2F19 JUMPI POP DUP1 JUMPDEST PUSH2 0x2F35 JUMPI PUSH1 0x40 MLOAD PUSH3 0x461BCD PUSH1 0xE5 SHL DUP2 MSTORE PUSH1 0x4 ADD PUSH2 0xFE1 SWAP1 PUSH2 0x5005 JUMP JUMPDEST POP POP PUSH2 0x2F7B JUMP JUMPDEST PUSH1 0x2 DUP1 DUP13 ADD SLOAD SWAP1 DUP14 ADD SLOAD PUSH1 0x1 PUSH1 0x1 PUSH1 0xA0 SHL SUB SWAP2 DUP3 AND SWAP2 PUSH2 0x2F5F SWAP2 DUP4 SWAP2 AND DUP5 PUSH2 0x44B8 JUMP JUMPDEST PUSH1 0xC SLOAD PUSH2 0x2F79 SWAP1 PUSH1 0x1 PUSH1 0x1 PUSH1 0xA0 SHL SUB DUP4 DUP2 AND SWAP2 AND DUP6 PUSH2 0x44B8 JUMP JUMPDEST POP JUMPDEST PUSH1 0x3 DUP13 ADD DUP1 SLOAD PUSH1 0xFF PUSH1 0xA0 SHL NOT AND PUSH1 0x1 PUSH1 0xA1 SHL OR SWAP1 SSTORE PUSH32 0x94D22E970A1ABB720B741045E471AF3FA516F4E2EDE6B665387332888F92F213 DUP14 DUP3 DUP5 CALLER PUSH1 0x40 MLOAD PUSH2 0x2FC5 SWAP5 SWAP4 SWAP3 SWAP2 SWAP1 PUSH2 0x4BDF JUMP JUMPDEST PUSH1 0x40 MLOAD DUP1 SWAP2 SUB SWAP1 LOG1 POP POP POP POP POP POP POP POP POP POP POP POP PUSH2 0x2FE2 PUSH1 0x1 DUP1 SSTORE JUMP JUMPDEST POP JUMP JUMPDEST PUSH0 DUP1 MLOAD PUSH1 0x20 PUSH2 0x522B DUP4 CODECOPY DUP2 MLOAD SWAP2 MSTORE PUSH2 0x2FFC DUP2 PUSH2 0x445A JUMP JUMPDEST PUSH1 0x1 PUSH1 0x1 PUSH1 0xA0 SHL SUB DUP4 AND ISZERO DUP1 ISZERO SWAP1 PUSH2 0x302C JUMPI POP PUSH1 0x1 PUSH1 0x1 PUSH1 0xA0 SHL SUB DUP4 AND PUSH0 SWAP1 DUP2 MSTORE PUSH1 0x2 PUSH1 0x20 MSTORE PUSH1 0x40 SWAP1 KECCAK256 SLOAD PUSH1 0xFF AND ISZERO JUMPDEST PUSH2 0x3070 JUMPI PUSH1 0x40 MLOAD PUSH3 0x461BCD PUSH1 0xE5 SHL DUP2 MSTORE PUSH1 0x20 PUSH1 0x4 DUP3 ADD MSTORE PUSH1 0x15 PUSH1 0x24 DUP3 ADD MSTORE PUSH21 0x496E76616C696420546F6B656E2041646472657373 PUSH1 0x58 SHL PUSH1 0x44 DUP3 ADD MSTORE PUSH1 0x64 ADD PUSH2 0xFE1 JUMP JUMPDEST PUSH1 0x40 MLOAD PUSH4 0x70A08231 PUSH1 0xE0 SHL DUP2 MSTORE ADDRESS PUSH1 0x4 DUP3 ADD MSTORE PUSH0 SWAP1 PUSH1 0x1 PUSH1 0x1 PUSH1 0xA0 SHL SUB DUP6 AND SWAP1 PUSH4 0x70A08231 SWAP1 PUSH1 0x24 ADD PUSH1 0x20 PUSH1 0x40 MLOAD DUP1 DUP4 SUB DUP2 DUP7 GAS STATICCALL ISZERO DUP1 ISZERO PUSH2 0x30B4 JUMPI RETURNDATASIZE PUSH0 DUP1 RETURNDATACOPY RETURNDATASIZE PUSH0 REVERT JUMPDEST POP POP POP POP PUSH1 0x40 MLOAD RETURNDATASIZE PUSH1 0x1F NOT PUSH1 0x1F DUP3 ADD AND DUP3 ADD DUP1 PUSH1 0x40 MSTORE POP DUP2 ADD SWAP1 PUSH2 0x30D8 SWAP2 SWAP1 PUSH2 0x508A JUMP JUMPDEST SWAP1 POP PUSH2 0x1D0B PUSH1 0x1 PUSH1 0x1 PUSH1 0xA0 SHL SUB DUP6 AND DUP5 DUP4 PUSH2 0x44B8 JUMP JUMPDEST PUSH0 JUMPDEST DUP2 MLOAD DUP2 LT ISZERO PUSH2 0x12A3 JUMPI PUSH2 0x311B DUP3 DUP3 DUP2 MLOAD DUP2 LT PUSH2 0x310E JUMPI PUSH2 0x310E PUSH2 0x4D91 JUMP JUMPDEST PUSH1 0x20 MUL PUSH1 0x20 ADD ADD MLOAD PUSH2 0x3147 JUMP JUMPDEST PUSH1 0x1 ADD PUSH2 0x30F0 JUMP JUMPDEST PUSH0 DUP3 DUP2 MSTORE PUSH1 0x20 DUP2 SWAP1 MSTORE PUSH1 0x40 SWAP1 KECCAK256 PUSH1 0x1 ADD SLOAD PUSH2 0x313D DUP2 PUSH2 0x445A JUMP JUMPDEST PUSH2 0x1D0B DUP4 DUP4 PUSH2 0x4578 JUMP JUMPDEST PUSH2 0x314F PUSH2 0x3F93 JUMP JUMPDEST PUSH0 DUP1 MLOAD PUSH1 0x20 PUSH2 0x522B DUP4 CODECOPY DUP2 MLOAD SWAP2 MSTORE PUSH2 0x3166 DUP2 PUSH2 0x445A JUMP JUMPDEST PUSH0 DUP3 DUP2 MSTORE PUSH1 0x7 PUSH1 0x20 SWAP1 DUP2 MSTORE PUSH1 0x40 DUP1 DUP4 KECCAK256 DUP1 SLOAD DUP5 MSTORE PUSH1 0x5 SWAP1 SWAP3 MSTORE SWAP1 SWAP2 KECCAK256 PUSH1 0x3 DUP3 ADD SLOAD PUSH1 0x1 PUSH1 0xA0 SHL SWAP1 DIV PUSH1 0xFF AND PUSH1 0x1 EQ PUSH2 0x31B0 JUMPI PUSH1 0x40 MLOAD PUSH3 0x461BCD PUSH1 0xE5 SHL DUP2 MSTORE PUSH1 0x4 ADD PUSH2 0xFE1 SWAP1 PUSH2 0x4FD7 JUMP JUMPDEST PUSH1 0x2 DUP2 ADD SLOAD PUSH0 SWAP1 PUSH1 0x1 PUSH1 0x1 PUSH1 0xA0 SHL SUB AND PUSH2 0x31CC JUMPI POP PUSH1 0x12 PUSH2 0x3245 JUMP JUMPDEST DUP2 PUSH1 0x2 ADD PUSH0 SWAP1 SLOAD SWAP1 PUSH2 0x100 EXP SWAP1 DIV PUSH1 0x1 PUSH1 0x1 PUSH1 0xA0 SHL SUB AND PUSH1 0x1 PUSH1 0x1 PUSH1 0xA0 SHL SUB AND PUSH4 0x313CE567 PUSH1 0x40 MLOAD DUP2 PUSH4 0xFFFFFFFF AND PUSH1 0xE0 SHL DUP2 MSTORE PUSH1 0x4 ADD PUSH1 0x20 PUSH1 0x40 MLOAD DUP1 DUP4 SUB DUP2 DUP7 GAS STATICCALL ISZERO DUP1 ISZERO PUSH2 0x321E JUMPI RETURNDATASIZE PUSH0 DUP1 RETURNDATACOPY RETURNDATASIZE PUSH0 REVERT JUMPDEST POP POP POP POP PUSH1 0x40 MLOAD RETURNDATASIZE PUSH1 0x1F NOT PUSH1 0x1F DUP3 ADD AND DUP3 ADD DUP1 PUSH1 0x40 MSTORE POP DUP2 ADD SWAP1 PUSH2 0x3242 SWAP2 SWAP1 PUSH2 0x4F94 JUMP JUMPDEST SWAP1 POP JUMPDEST PUSH0 PUSH2 0x3262 DUP4 PUSH1 0x3 ADD SLOAD DUP5 PUSH1 0x4 ADD SLOAD DUP7 PUSH1 0x1 ADD SLOAD PUSH2 0x16B2 SWAP2 SWAP1 PUSH2 0x4EE0 JUMP JUMPDEST SWAP1 POP PUSH0 PUSH2 0x3281 DUP5 PUSH1 0x3 ADD SLOAD DUP6 PUSH1 0x5 ADD SLOAD DUP8 PUSH1 0x1 ADD SLOAD PUSH2 0x16E3 SWAP2 SWAP1 PUSH2 0x4EE0 JUMP JUMPDEST PUSH1 0x3 DUP7 ADD SLOAD PUSH1 0x2 DUP1 DUP9 ADD SLOAD SWAP1 DUP8 ADD SLOAD SWAP3 SWAP4 POP PUSH1 0x1 PUSH1 0x1 PUSH1 0xA0 SHL SUB SWAP2 DUP3 AND SWAP3 SWAP1 DUP3 AND SWAP2 AND PUSH2 0x3427 JUMPI PUSH0 DUP5 GT DUP1 ISZERO PUSH2 0x32BF JUMPI POP PUSH1 0x1 PUSH1 0x1 PUSH1 0xA0 SHL SUB DUP3 AND ISZERO ISZERO JUMPDEST ISZERO PUSH2 0x3365 JUMPI PUSH0 DUP3 PUSH1 0x1 PUSH1 0x1 PUSH1 0xA0 SHL SUB AND DUP6 PUSH1 0x40 MLOAD PUSH0 PUSH1 0x40 MLOAD DUP1 DUP4 SUB DUP2 DUP6 DUP8 GAS CALL SWAP3 POP POP POP RETURNDATASIZE DUP1 PUSH0 DUP2 EQ PUSH2 0x330D JUMPI PUSH1 0x40 MLOAD SWAP2 POP PUSH1 0x1F NOT PUSH1 0x3F RETURNDATASIZE ADD AND DUP3 ADD PUSH1 0x40 MSTORE RETURNDATASIZE DUP3 MSTORE RETURNDATASIZE PUSH0 PUSH1 0x20 DUP5 ADD RETURNDATACOPY PUSH2 0x3312 JUMP JUMPDEST PUSH1 0x60 SWAP2 POP JUMPDEST POP POP SWAP1 POP DUP1 PUSH2 0x3363 JUMPI PUSH1 0x40 MLOAD PUSH3 0x461BCD PUSH1 0xE5 SHL DUP2 MSTORE PUSH1 0x20 PUSH1 0x4 DUP3 ADD MSTORE PUSH1 0x1D PUSH1 0x24 DUP3 ADD MSTORE PUSH32 0x5472616E736665722046756E647320746F2053656C6C6572204661696C000000 PUSH1 0x44 DUP3 ADD MSTORE PUSH1 0x64 ADD PUSH2 0xFE1 JUMP JUMPDEST POP JUMPDEST PUSH0 DUP4 GT DUP1 ISZERO PUSH2 0x337C JUMPI POP PUSH1 0x1 PUSH1 0x1 PUSH1 0xA0 SHL SUB DUP2 AND ISZERO ISZERO JUMPDEST ISZERO PUSH2 0x3422 JUMPI PUSH0 DUP2 PUSH1 0x1 PUSH1 0x1 PUSH1 0xA0 SHL SUB AND DUP5 PUSH1 0x40 MLOAD PUSH0 PUSH1 0x40 MLOAD DUP1 DUP4 SUB DUP2 DUP6 DUP8 GAS CALL SWAP3 POP POP POP RETURNDATASIZE DUP1 PUSH0 DUP2 EQ PUSH2 0x33CA JUMPI PUSH1 0x40 MLOAD SWAP2 POP PUSH1 0x1F NOT PUSH1 0x3F RETURNDATASIZE ADD AND DUP3 ADD PUSH1 0x40 MSTORE RETURNDATASIZE DUP3 MSTORE RETURNDATASIZE PUSH0 PUSH1 0x20 DUP5 ADD RETURNDATACOPY PUSH2 0x33CF JUMP JUMPDEST PUSH1 0x60 SWAP2 POP JUMPDEST POP POP SWAP1 POP DUP1 PUSH2 0x3420 JUMPI PUSH1 0x40 MLOAD PUSH3 0x461BCD PUSH1 0xE5 SHL DUP2 MSTORE PUSH1 0x20 PUSH1 0x4 DUP3 ADD MSTORE PUSH1 0x1D PUSH1 0x24 DUP3 ADD MSTORE PUSH32 0x5472616E736665722046756E647320746F2053656C6C6572204661696C000000 PUSH1 0x44 DUP3 ADD MSTORE PUSH1 0x64 ADD PUSH2 0xFE1 JUMP JUMPDEST POP JUMPDEST PUSH2 0x3497 JUMP JUMPDEST PUSH1 0x2 DUP7 ADD SLOAD PUSH1 0x1 PUSH1 0x1 PUSH1 0xA0 SHL SUB AND DUP5 ISZERO DUP1 ISZERO SWAP1 PUSH2 0x344C JUMPI POP PUSH1 0x1 PUSH1 0x1 PUSH1 0xA0 SHL SUB DUP4 AND ISZERO ISZERO JUMPDEST ISZERO PUSH2 0x3465 JUMPI PUSH2 0x3465 PUSH1 0x1 PUSH1 0x1 PUSH1 0xA0 SHL SUB DUP3 AND DUP5 DUP8 PUSH2 0x44B8 JUMP JUMPDEST PUSH0 DUP5 GT DUP1 ISZERO PUSH2 0x347C JUMPI POP PUSH1 0x1 PUSH1 0x1 PUSH1 0xA0 SHL SUB DUP3 AND ISZERO ISZERO JUMPDEST ISZERO PUSH2 0x3495 JUMPI PUSH2 0x3495 PUSH1 0x1 PUSH1 0x1 PUSH1 0xA0 SHL SUB DUP3 AND DUP4 DUP7 PUSH2 0x44B8 JUMP JUMPDEST POP JUMPDEST PUSH1 0x3 DUP8 ADD DUP1 SLOAD PUSH1 0xFF PUSH1 0xA0 SHL NOT AND PUSH1 0x3 PUSH1 0xA0 SHL OR SWAP1 SSTORE PUSH1 0x40 DUP1 MLOAD DUP11 DUP2 MSTORE CALLER PUSH1 0x20 DUP3 ADD MSTORE PUSH32 0x22369BA22944AADF9E9D6F4C51462417A50EA7876B9C62C7C46B5522E9C672CC SWAP2 ADD JUMPDEST PUSH1 0x40 MLOAD DUP1 SWAP2 SUB SWAP1 LOG1 POP POP POP POP POP POP POP POP PUSH2 0x2FE2 PUSH1 0x1 DUP1 SSTORE JUMP JUMPDEST PUSH2 0x34FE PUSH2 0x3F93 JUMP JUMPDEST PUSH0 DUP2 DUP2 MSTORE PUSH1 0x7 PUSH1 0x20 SWAP1 DUP2 MSTORE PUSH1 0x40 DUP1 DUP4 KECCAK256 DUP1 SLOAD DUP5 MSTORE PUSH1 0x5 DUP4 MSTORE DUP2 DUP5 KECCAK256 PUSH1 0x1 DUP1 DUP3 ADD SLOAD DUP7 MSTORE PUSH1 0x4 SWAP1 SWAP5 MSTORE SWAP2 SWAP1 SWAP4 KECCAK256 SWAP2 DUP3 ADD SLOAD SWAP1 SWAP2 SWAP1 PUSH1 0x1 PUSH1 0x98 SHL SWAP1 DIV PUSH1 0xFF AND PUSH1 0x3 EQ PUSH2 0x355A JUMPI PUSH1 0x40 MLOAD PUSH3 0x461BCD PUSH1 0xE5 SHL DUP2 MSTORE PUSH1 0x4 ADD PUSH2 0xFE1 SWAP1 PUSH2 0x4FAF JUMP JUMPDEST DUP1 SLOAD PUSH2 0x357E SWAP1 PUSH6 0xFFFFFFFFFFFF PUSH1 0x1 PUSH1 0xD0 SHL DUP3 DIV DUP2 AND SWAP2 PUSH1 0x1 PUSH1 0xA0 SHL SWAP1 DIV AND PUSH2 0x50A1 JUMP JUMPDEST PUSH6 0xFFFFFFFFFFFF AND TIMESTAMP GT PUSH2 0x35D4 JUMPI PUSH1 0x40 MLOAD PUSH3 0x461BCD PUSH1 0xE5 SHL DUP2 MSTORE PUSH1 0x20 PUSH1 0x4 DUP3 ADD MSTORE PUSH1 0x1B PUSH1 0x24 DUP3 ADD MSTORE PUSH32 0x536574746C696E672054696D65204E6F7420456E646564205965740000000000 PUSH1 0x44 DUP3 ADD MSTORE PUSH1 0x64 ADD PUSH2 0xFE1 JUMP JUMPDEST PUSH1 0x3 DUP4 ADD SLOAD PUSH1 0x1 PUSH1 0xA0 SHL SWAP1 DIV PUSH1 0xFF AND PUSH1 0x1 EQ PUSH2 0x3602 JUMPI PUSH1 0x40 MLOAD PUSH3 0x461BCD PUSH1 0xE5 SHL DUP2 MSTORE PUSH1 0x4 ADD PUSH2 0xFE1 SWAP1 PUSH2 0x4FD7 JUMP JUMPDEST PUSH1 0x3 DUP4 ADD SLOAD PUSH1 0x1 PUSH1 0x1 PUSH1 0xA0 SHL SUB AND CALLER EQ DUP1 PUSH2 0x362F JUMPI POP PUSH2 0x362F PUSH0 DUP1 MLOAD PUSH1 0x20 PUSH2 0x522B DUP4 CODECOPY DUP2 MLOAD SWAP2 MSTORE CALLER PUSH2 0x29AA JUMP JUMPDEST PUSH2 0x3674 JUMPI PUSH1 0x40 MLOAD PUSH3 0x461BCD PUSH1 0xE5 SHL DUP2 MSTORE PUSH1 0x20 PUSH1 0x4 DUP3 ADD MSTORE PUSH1 0x16 PUSH1 0x24 DUP3 ADD MSTORE PUSH22 0x4275796572206F72204F70657261746F72204F6E6C79 PUSH1 0x50 SHL PUSH1 0x44 DUP3 ADD MSTORE PUSH1 0x64 ADD PUSH2 0xFE1 JUMP JUMPDEST PUSH1 0x2 DUP3 ADD SLOAD PUSH0 SWAP1 PUSH1 0x1 PUSH1 0x1 PUSH1 0xA0 SHL SUB AND PUSH2 0x3690 JUMPI POP PUSH1 0x12 PUSH2 0x3709 JUMP JUMPDEST DUP3 PUSH1 0x2 ADD PUSH0 SWAP1 SLOAD SWAP1 PUSH2 0x100 EXP SWAP1 DIV PUSH1 0x1 PUSH1 0x1 PUSH1 0xA0 SHL SUB AND PUSH1 0x1 PUSH1 0x1 PUSH1 0xA0 SHL SUB AND PUSH4 0x313CE567 PUSH1 0x40 MLOAD DUP2 PUSH4 0xFFFFFFFF AND PUSH1 0xE0 SHL DUP2 MSTORE PUSH1 0x4 ADD PUSH1 0x20 PUSH1 0x40 MLOAD DUP1 DUP4 SUB DUP2 DUP7 GAS STATICCALL ISZERO DUP1 ISZERO PUSH2 0x36E2 JUMPI RETURNDATASIZE PUSH0 DUP1 RETURNDATACOPY RETURNDATASIZE PUSH0 REVERT JUMPDEST POP POP POP POP PUSH1 0x40 MLOAD RETURNDATASIZE PUSH1 0x1F NOT PUSH1 0x1F DUP3 ADD AND DUP3 ADD DUP1 PUSH1 0x40 MSTORE POP DUP2 ADD SWAP1 PUSH2 0x3706 SWAP2 SWAP1 PUSH2 0x4F94 JUMP JUMPDEST SWAP1 POP JUMPDEST PUSH0 PUSH2 0x3726 DUP5 PUSH1 0x3 ADD SLOAD DUP6 PUSH1 0x5 ADD SLOAD DUP8 PUSH1 0x1 ADD SLOAD PUSH2 0x16B2 SWAP2 SWAP1 PUSH2 0x4EE0 JUMP JUMPDEST SWAP1 POP PUSH0 PUSH2 0x3745 DUP6 PUSH1 0x3 ADD SLOAD DUP7 PUSH1 0x4 ADD SLOAD DUP9 PUSH1 0x1 ADD SLOAD PUSH2 0x16E3 SWAP2 SWAP1 PUSH2 0x4EE0 JUMP JUMPDEST SWAP1 POP PUSH0 PUSH3 0xF4240 PUSH1 0x9 PUSH1 0x2 ADD SLOAD DUP5 PUSH2 0x375D SWAP2 SWAP1 PUSH2 0x4EE0 JUMP JUMPDEST PUSH2 0x3768 SWAP1 PUSH1 0x2 PUSH2 0x4EE0 JUMP JUMPDEST PUSH2 0x3772 SWAP2 SWAP1 PUSH2 0x4F0B JUMP JUMPDEST SWAP1 POP PUSH0 DUP2 PUSH2 0x3780 DUP6 DUP6 PUSH2 0x4F1E JUMP JUMPDEST PUSH2 0x378A SWAP2 SWAP1 PUSH2 0x4E3D JUMP JUMPDEST PUSH1 0x2 DUP9 ADD SLOAD SWAP1 SWAP2 POP PUSH1 0x1 PUSH1 0x1 PUSH1 0xA0 SHL SUB AND PUSH2 0x3877 JUMPI PUSH1 0x3 DUP9 ADD SLOAD PUSH1 0x40 MLOAD PUSH0 SWAP2 PUSH1 0x1 PUSH1 0x1 PUSH1 0xA0 SHL SUB AND SWAP1 DUP4 SWAP1 DUP4 DUP2 DUP2 DUP2 DUP6 DUP8 GAS CALL SWAP3 POP POP POP RETURNDATASIZE DUP1 PUSH0 DUP2 EQ PUSH2 0x37EB JUMPI PUSH1 0x40 MLOAD SWAP2 POP PUSH1 0x1F NOT PUSH1 0x3F RETURNDATASIZE ADD AND DUP3 ADD PUSH1 0x40 MSTORE RETURNDATASIZE DUP3 MSTORE RETURNDATASIZE PUSH0 PUSH1 0x20 DUP5 ADD RETURNDATACOPY PUSH2 0x37F0 JUMP JUMPDEST PUSH1 0x60 SWAP2 POP JUMPDEST POP POP PUSH1 0xC SLOAD PUSH1 0x40 MLOAD SWAP2 SWAP3 POP PUSH0 SWAP2 PUSH1 0x1 PUSH1 0x1 PUSH1 0xA0 SHL SUB SWAP1 SWAP2 AND SWAP1 DUP6 SWAP1 DUP4 DUP2 DUP2 DUP2 DUP6 DUP8 GAS CALL SWAP3 POP POP POP RETURNDATASIZE DUP1 PUSH0 DUP2 EQ PUSH2 0x3841 JUMPI PUSH1 0x40 MLOAD SWAP2 POP PUSH1 0x1F NOT PUSH1 0x3F RETURNDATASIZE ADD AND DUP3 ADD PUSH1 0x40 MSTORE RETURNDATASIZE DUP3 MSTORE RETURNDATASIZE PUSH0 PUSH1 0x20 DUP5 ADD RETURNDATACOPY PUSH2 0x3846 JUMP JUMPDEST PUSH1 0x60 SWAP2 POP JUMPDEST POP POP SWAP1 POP DUP2 DUP1 ISZERO PUSH2 0x3854 JUMPI POP DUP1 JUMPDEST PUSH2 0x3870 JUMPI PUSH1 0x40 MLOAD PUSH3 0x461BCD PUSH1 0xE5 SHL DUP2 MSTORE PUSH1 0x4 ADD PUSH2 0xFE1 SWAP1 PUSH2 0x5005 JUMP JUMPDEST POP POP PUSH2 0x38B6 JUMP JUMPDEST PUSH1 0x2 DUP8 ADD SLOAD PUSH1 0x3 DUP10 ADD SLOAD PUSH1 0x1 PUSH1 0x1 PUSH1 0xA0 SHL SUB SWAP2 DUP3 AND SWAP2 PUSH2 0x389A SWAP2 DUP4 SWAP2 AND DUP5 PUSH2 0x44B8 JUMP JUMPDEST PUSH1 0xC SLOAD PUSH2 0x38B4 SWAP1 PUSH1 0x1 PUSH1 0x1 PUSH1 0xA0 SHL SUB DUP4 DUP2 AND SWAP2 AND DUP6 PUSH2 0x44B8 JUMP JUMPDEST POP JUMPDEST PUSH1 0x3 DUP9 ADD DUP1 SLOAD PUSH1 0xFF PUSH1 0xA0 SHL NOT AND PUSH1 0x3 PUSH1 0xA0 SHL OR SWAP1 SSTORE PUSH32 0x6353C0CE500C8EA1F1026C8F39A6E0C2D1B2F17034FCD8A4B021C72E6E293E51 DUP10 DUP3 DUP5 CALLER PUSH1 0x40 MLOAD PUSH2 0x34DD SWAP5 SWAP4 SWAP3 SWAP2 SWAP1 PUSH2 0x4BDF JUMP JUMPDEST PUSH2 0x3908 PUSH2 0x3F93 JUMP JUMPDEST PUSH0 DUP2 DUP2 MSTORE PUSH1 0x5 PUSH1 0x20 MSTORE PUSH1 0x40 SWAP1 KECCAK256 PUSH1 0x7 DUP2 ADD SLOAD PUSH1 0x1 PUSH1 0x1 PUSH1 0xA0 SHL SUB PUSH2 0x100 SWAP1 SWAP2 DIV AND CALLER EQ PUSH2 0x396A JUMPI PUSH1 0x40 MLOAD PUSH3 0x461BCD PUSH1 0xE5 SHL DUP2 MSTORE PUSH1 0x20 PUSH1 0x4 DUP3 ADD MSTORE PUSH1 0x10 PUSH1 0x24 DUP3 ADD MSTORE PUSH16 0x4F66666572204F776E6572204F6E6C79 PUSH1 0x80 SHL PUSH1 0x44 DUP3 ADD MSTORE PUSH1 0x64 ADD PUSH2 0xFE1 JUMP JUMPDEST PUSH1 0x7 DUP2 ADD SLOAD PUSH1 0xFF AND PUSH1 0x1 EQ PUSH2 0x3991 JUMPI PUSH1 0x40 MLOAD PUSH3 0x461BCD PUSH1 0xE5 SHL DUP2 MSTORE PUSH1 0x4 ADD PUSH2 0xFE1 SWAP1 PUSH2 0x4DA5 JUMP JUMPDEST PUSH0 DUP2 PUSH1 0x6 ADD SLOAD DUP3 PUSH1 0x3 ADD SLOAD PUSH2 0x39A6 SWAP2 SWAP1 PUSH2 0x4E3D JUMP JUMPDEST SWAP1 POP PUSH0 DUP2 GT PUSH2 0x39C7 JUMPI PUSH1 0x40 MLOAD PUSH3 0x461BCD PUSH1 0xE5 SHL DUP2 MSTORE PUSH1 0x4 ADD PUSH2 0xFE1 SWAP1 PUSH2 0x4E50 JUMP JUMPDEST PUSH1 0x2 DUP3 ADD SLOAD PUSH0 SWAP1 PUSH1 0x1 PUSH1 0x1 PUSH1 0xA0 SHL SUB AND PUSH2 0x39E3 JUMPI POP PUSH1 0x12 PUSH2 0x3A5C JUMP JUMPDEST DUP3 PUSH1 0x2 ADD PUSH0 SWAP1 SLOAD SWAP1 PUSH2 0x100 EXP SWAP1 DIV PUSH1 0x1 PUSH1 0x1 PUSH1 0xA0 SHL SUB AND PUSH1 0x1 PUSH1 0x1 PUSH1 0xA0 SHL SUB AND PUSH4 0x313CE567 PUSH1 0x40 MLOAD DUP2 PUSH4 0xFFFFFFFF AND PUSH1 0xE0 SHL DUP2 MSTORE PUSH1 0x4 ADD PUSH1 0x20 PUSH1 0x40 MLOAD DUP1 DUP4 SUB DUP2 DUP7 GAS STATICCALL ISZERO DUP1 ISZERO PUSH2 0x3A35 JUMPI RETURNDATASIZE PUSH0 DUP1 RETURNDATACOPY RETURNDATASIZE PUSH0 REVERT JUMPDEST POP POP POP POP PUSH1 0x40 MLOAD RETURNDATASIZE PUSH1 0x1F NOT PUSH1 0x1F DUP3 ADD AND DUP3 ADD DUP1 PUSH1 0x40 MSTORE POP DUP2 ADD SWAP1 PUSH2 0x3A59 SWAP2 SWAP1 PUSH2 0x4F94 JUMP JUMPDEST SWAP1 POP JUMPDEST DUP3 SLOAD PUSH0 SWAP1 PUSH1 0xFF AND PUSH0 NOT ADD PUSH2 0x3A89 JUMPI PUSH2 0x3A82 DUP5 PUSH1 0x3 ADD SLOAD DUP6 PUSH1 0x4 ADD SLOAD DUP6 PUSH2 0x16B2 SWAP2 SWAP1 PUSH2 0x4EE0 JUMP JUMPDEST SWAP1 POP PUSH2 0x3AA4 JUMP JUMPDEST PUSH2 0x3AA1 DUP5 PUSH1 0x3 ADD SLOAD DUP6 PUSH1 0x5 ADD SLOAD DUP6 PUSH2 0x16B2 SWAP2 SWAP1 PUSH2 0x4EE0 JUMP JUMPDEST SWAP1 POP JUMPDEST PUSH1 0xA SLOAD PUSH0 SWAP1 PUSH3 0xF4240 SWAP1 PUSH2 0x3AB8 SWAP1 DUP5 PUSH2 0x4EE0 JUMP JUMPDEST PUSH2 0x3AC2 SWAP2 SWAP1 PUSH2 0x4F0B JUMP JUMPDEST SWAP1 POP PUSH2 0x3ACE DUP2 DUP4 PUSH2 0x4E3D JUMP JUMPDEST PUSH1 0x2 DUP7 ADD SLOAD SWAP1 SWAP3 POP PUSH1 0x1 PUSH1 0x1 PUSH1 0xA0 SHL SUB AND PUSH2 0x3BC0 JUMPI PUSH1 0x7 DUP6 ADD SLOAD PUSH1 0x40 MLOAD PUSH0 SWAP2 PUSH2 0x100 SWAP1 DIV PUSH1 0x1 PUSH1 0x1 PUSH1 0xA0 SHL SUB AND SWAP1 DUP5 SWAP1 DUP4 DUP2 DUP2 DUP2 DUP6 DUP8 GAS CALL SWAP3 POP POP POP RETURNDATASIZE DUP1 PUSH0 DUP2 EQ PUSH2 0x3B34 JUMPI PUSH1 0x40 MLOAD SWAP2 POP PUSH1 0x1F NOT PUSH1 0x3F RETURNDATASIZE ADD AND DUP3 ADD PUSH1 0x40 MSTORE RETURNDATASIZE DUP3 MSTORE RETURNDATASIZE PUSH0 PUSH1 0x20 DUP5 ADD RETURNDATACOPY PUSH2 0x3B39 JUMP JUMPDEST PUSH1 0x60 SWAP2 POP JUMPDEST POP POP PUSH1 0xC SLOAD PUSH1 0x40 MLOAD SWAP2 SWAP3 POP PUSH0 SWAP2 PUSH1 0x1 PUSH1 0x1 PUSH1 0xA0 SHL SUB SWAP1 SWAP2 AND SWAP1 DUP5 SWAP1 DUP4 DUP2 DUP2 DUP2 DUP6 DUP8 GAS CALL SWAP3 POP POP POP RETURNDATASIZE DUP1 PUSH0 DUP2 EQ PUSH2 0x3B8A JUMPI PUSH1 0x40 MLOAD SWAP2 POP PUSH1 0x1F NOT PUSH1 0x3F RETURNDATASIZE ADD AND DUP3 ADD PUSH1 0x40 MSTORE RETURNDATASIZE DUP3 MSTORE RETURNDATASIZE PUSH0 PUSH1 0x20 DUP5 ADD RETURNDATACOPY PUSH2 0x3B8F JUMP JUMPDEST PUSH1 0x60 SWAP2 POP JUMPDEST POP POP SWAP1 POP DUP2 DUP1 ISZERO PUSH2 0x3B9D JUMPI POP DUP1 JUMPDEST PUSH2 0x3BB9 JUMPI PUSH1 0x40 MLOAD PUSH3 0x461BCD PUSH1 0xE5 SHL DUP2 MSTORE PUSH1 0x4 ADD PUSH2 0xFE1 SWAP1 PUSH2 0x5005 JUMP JUMPDEST POP POP PUSH2 0x3C05 JUMP JUMPDEST PUSH1 0x2 DUP6 ADD SLOAD PUSH1 0x7 DUP7 ADD SLOAD PUSH1 0x1 PUSH1 0x1 PUSH1 0xA0 SHL SUB SWAP2 DUP3 AND SWAP2 PUSH2 0x3BE9 SWAP2 DUP4 SWAP2 PUSH2 0x100 SWAP1 SWAP2 DIV AND DUP6 PUSH2 0x44B8 JUMP JUMPDEST PUSH1 0xC SLOAD PUSH2 0x3C03 SWAP1 PUSH1 0x1 PUSH1 0x1 PUSH1 0xA0 SHL SUB DUP4 DUP2 AND SWAP2 AND DUP5 PUSH2 0x44B8 JUMP JUMPDEST POP JUMPDEST PUSH1 0x7 DUP6 ADD DUP1 SLOAD PUSH1 0xFF NOT AND PUSH1 0x3 OR SWAP1 SSTORE PUSH32 0xF65E543D34C6936603A3741B3EACE109133F172D25637C2445B95C1F3288E937 DUP7 DUP4 DUP4 PUSH2 0x3C3F CALLER SWAP1 JUMP JUMPDEST PUSH1 0x40 MLOAD PUSH2 0x3C4F SWAP5 SWAP4 SWAP3 SWAP2 SWAP1 PUSH2 0x4BDF JUMP JUMPDEST PUSH1 0x40 MLOAD DUP1 SWAP2 SUB SWAP1 LOG1 POP POP POP POP POP PUSH2 0x2FE2 PUSH1 0x1 DUP1 SSTORE JUMP JUMPDEST PUSH0 DUP1 MLOAD PUSH1 0x20 PUSH2 0x522B DUP4 CODECOPY DUP2 MLOAD SWAP2 MSTORE PUSH2 0x3C7C DUP2 PUSH2 0x445A JUMP JUMPDEST PUSH3 0x15180 DUP3 PUSH6 0xFFFFFFFFFFFF AND LT ISZERO PUSH2 0x3CE5 JUMPI PUSH1 0x40 MLOAD PUSH3 0x461BCD PUSH1 0xE5 SHL DUP2 MSTORE PUSH1 0x20 PUSH1 0x4 DUP3 ADD MSTORE PUSH1 0x25 PUSH1 0x24 DUP3 ADD MSTORE PUSH32 0x637265617465546F6B656E3A204D696E696D756D2032346820666F7220736574 PUSH1 0x44 DUP3 ADD MSTORE PUSH5 0x746C696E67 PUSH1 0xD8 SHL PUSH1 0x64 DUP3 ADD MSTORE PUSH1 0x84 ADD PUSH2 0xFE1 JUMP JUMPDEST PUSH0 DUP4 DUP2 MSTORE PUSH1 0x3 PUSH1 0x20 MSTORE PUSH1 0x40 SWAP1 KECCAK256 SLOAD PUSH1 0xFF AND ISZERO PUSH2 0x3D4D JUMPI PUSH1 0x40 MLOAD PUSH3 0x461BCD PUSH1 0xE5 SHL DUP2 MSTORE PUSH1 0x20 PUSH1 0x4 DUP3 ADD MSTORE PUSH1 0x21 PUSH1 0x24 DUP3 ADD MSTORE PUSH32 0x637265617465546F6B656E3A20546F6B656E20616C7265616479206578697374 PUSH1 0x44 DUP3 ADD MSTORE PUSH1 0x73 PUSH1 0xF8 SHL PUSH1 0x64 DUP3 ADD MSTORE PUSH1 0x84 ADD PUSH2 0xFE1 JUMP JUMPDEST PUSH0 DUP4 DUP2 MSTORE PUSH1 0x3 PUSH1 0x20 SWAP1 DUP2 MSTORE PUSH1 0x40 DUP1 DUP4 KECCAK256 DUP1 SLOAD PUSH1 0xFF NOT AND PUSH1 0x1 SWAP1 DUP2 OR SWAP1 SWAP2 SSTORE PUSH1 0x4 DUP4 MSTORE SWAP3 DUP2 SWAP1 KECCAK256 DUP1 SLOAD PUSH6 0xFFFFFFFFFFFF DUP8 AND PUSH1 0x1 PUSH1 0xD0 SHL DUP2 MUL PUSH1 0x1 PUSH1 0x1 PUSH1 0xD0 SHL SUB SWAP1 SWAP3 AND SWAP2 SWAP1 SWAP2 OR DUP3 SSTORE SWAP4 DUP2 ADD DUP1 SLOAD PUSH1 0xFF PUSH1 0x98 SHL NOT AND PUSH1 0x1 PUSH1 0x98 SHL OR SWAP1 SSTORE DUP2 MLOAD DUP8 DUP2 MSTORE SWAP3 DUP4 ADD SWAP4 SWAP1 SWAP4 MSTORE PUSH32 0x1DA02FE9181848BF1B401DDE762D155F0DA084C24DB69129A3C7479F970DDBCC SWAP2 ADD PUSH1 0x40 MLOAD DUP1 SWAP2 SUB SWAP1 LOG1 POP POP POP POP JUMP JUMPDEST PUSH2 0x3DEF PUSH2 0x3F93 JUMP JUMPDEST PUSH0 DUP5 DUP2 MSTORE PUSH1 0x4 PUSH1 0x20 MSTORE PUSH1 0x40 SWAP1 KECCAK256 PUSH1 0x1 DUP1 DUP3 ADD SLOAD PUSH1 0x1 PUSH1 0x98 SHL SWAP1 DIV PUSH1 0xFF AND EQ PUSH2 0x3E49 JUMPI PUSH1 0x40 MLOAD PUSH3 0x461BCD PUSH1 0xE5 SHL DUP2 MSTORE PUSH1 0x20 PUSH1 0x4 DUP3 ADD MSTORE PUSH1 0xD PUSH1 0x24 DUP3 ADD MSTORE PUSH13 0x24B73B30B634B2102A37B5B2B7 PUSH1 0x99 SHL PUSH1 0x44 DUP3 ADD MSTORE PUSH1 0x64 ADD PUSH2 0xFE1 JUMP JUMPDEST PUSH0 DUP5 GT DUP1 ISZERO PUSH2 0x3E57 JUMPI POP PUSH0 DUP4 GT JUMPDEST PUSH2 0x3E9D JUMPI PUSH1 0x40 MLOAD PUSH3 0x461BCD PUSH1 0xE5 SHL DUP2 MSTORE PUSH1 0x20 PUSH1 0x4 DUP3 ADD MSTORE PUSH1 0x17 PUSH1 0x24 DUP3 ADD MSTORE PUSH23 0x496E76616C696420416D6F756E74206F722056616C7565 PUSH1 0x48 SHL PUSH1 0x44 DUP3 ADD MSTORE PUSH1 0x64 ADD PUSH2 0xFE1 JUMP JUMPDEST PUSH1 0x9 SLOAD PUSH0 SWAP1 PUSH3 0xF4240 SWAP1 PUSH2 0x3EB1 SWAP1 DUP7 PUSH2 0x4EE0 JUMP JUMPDEST PUSH2 0x3EBB SWAP2 SWAP1 PUSH2 0x4F0B JUMP JUMPDEST SWAP1 POP PUSH0 PUSH1 0xFF DUP9 AND PUSH1 0x1 EQ PUSH2 0x3ECF JUMPI DUP2 PUSH2 0x3ED1 JUMP JUMPDEST DUP5 JUMPDEST SWAP1 POP CALLVALUE DUP2 GT ISZERO PUSH2 0x3EF3 JUMPI PUSH1 0x40 MLOAD PUSH3 0x461BCD PUSH1 0xE5 SHL DUP2 MSTORE PUSH1 0x4 ADD PUSH2 0xFE1 SWAP1 PUSH2 0x4F31 JUMP JUMPDEST DUP1 CALLVALUE GT ISZERO PUSH2 0x3F71 JUMPI PUSH0 PUSH2 0x3F06 DUP3 CALLVALUE PUSH2 0x4E3D JUMP JUMPDEST PUSH1 0x40 MLOAD SWAP1 SWAP2 POP PUSH0 SWAP1 CALLER SWAP1 DUP4 SWAP1 DUP4 DUP2 DUP2 DUP2 DUP6 DUP8 GAS CALL SWAP3 POP POP POP RETURNDATASIZE DUP1 PUSH0 DUP2 EQ PUSH2 0x3F48 JUMPI PUSH1 0x40 MLOAD SWAP2 POP PUSH1 0x1F NOT PUSH1 0x3F RETURNDATASIZE ADD AND DUP3 ADD PUSH1 0x40 MSTORE RETURNDATASIZE DUP3 MSTORE RETURNDATASIZE PUSH0 PUSH1 0x20 DUP5 ADD RETURNDATACOPY PUSH2 0x3F4D JUMP JUMPDEST PUSH1 0x60 SWAP2 POP JUMPDEST POP POP SWAP1 POP DUP1 PUSH2 0x3F6E JUMPI PUSH1 0x40 MLOAD PUSH3 0x461BCD PUSH1 0xE5 SHL DUP2 MSTORE PUSH1 0x4 ADD PUSH2 0xFE1 SWAP1 PUSH2 0x4F5D JUMP JUMPDEST POP POP JUMPDEST PUSH2 0x3F80 DUP9 DUP9 PUSH0 DUP10 DUP10 DUP8 DUP11 PUSH2 0x428E JUMP JUMPDEST POP POP POP PUSH2 0x3F8C PUSH1 0x1 DUP1 SSTORE JUMP JUMPDEST POP POP POP POP POP JUMP JUMPDEST PUSH1 0x2 PUSH1 0x1 SLOAD SUB PUSH2 0x3FE5 JUMPI PUSH1 0x40 MLOAD PUSH3 0x461BCD PUSH1 0xE5 SHL DUP2 MSTORE PUSH1 0x20 PUSH1 0x4 DUP3 ADD MSTORE PUSH1 0x1F PUSH1 0x24 DUP3 ADD MSTORE PUSH32 0x5265656E7472616E637947756172643A207265656E7472616E742063616C6C00 PUSH1 0x44 DUP3 ADD MSTORE PUSH1 0x64 ADD PUSH2 0xFE1 JUMP JUMPDEST PUSH1 0x2 PUSH1 0x1 SSTORE JUMP JUMPDEST PUSH0 PUSH1 0x5 PUSH0 DUP7 DUP2 MSTORE PUSH1 0x20 ADD SWAP1 DUP2 MSTORE PUSH1 0x20 ADD PUSH0 KECCAK256 SWAP1 POP PUSH1 0x40 MLOAD DUP1 PUSH1 0xA0 ADD PUSH1 0x40 MSTORE DUP1 DUP7 DUP2 MSTORE PUSH1 0x20 ADD DUP6 DUP2 MSTORE PUSH1 0x20 ADD DUP4 PUSH1 0x1 PUSH1 0x1 PUSH1 0xA0 SHL SUB AND DUP2 MSTORE PUSH1 0x20 ADD DUP5 PUSH1 0x1 PUSH1 0x1 PUSH1 0xA0 SHL SUB AND DUP2 MSTORE PUSH1 0x20 ADD PUSH1 0x1 PUSH1 0xFF AND DUP2 MSTORE POP PUSH1 0x7 PUSH0 PUSH1 0x8 PUSH0 DUP2 SLOAD PUSH2 0x404E SWAP1 PUSH2 0x50C7 JUMP JUMPDEST SWAP2 DUP3 SWAP1 SSTORE POP DUP2 MSTORE PUSH1 0x20 DUP1 DUP3 ADD SWAP3 SWAP1 SWAP3 MSTORE PUSH1 0x40 SWAP1 DUP2 ADD PUSH0 SWAP1 DUP2 KECCAK256 DUP5 MLOAD DUP2 SSTORE SWAP3 DUP5 ADD MLOAD PUSH1 0x1 DUP5 ADD SSTORE SWAP1 DUP4 ADD MLOAD PUSH1 0x2 DUP4 ADD DUP1 SLOAD PUSH1 0x1 PUSH1 0x1 PUSH1 0xA0 SHL SUB SWAP3 DUP4 AND PUSH1 0x1 PUSH1 0x1 PUSH1 0xA0 SHL SUB NOT SWAP1 SWAP2 AND OR SWAP1 SSTORE PUSH1 0x60 DUP5 ADD MLOAD PUSH1 0x3 SWAP1 SWAP4 ADD DUP1 SLOAD PUSH1 0x80 SWAP1 SWAP6 ADD MLOAD PUSH1 0xFF AND PUSH1 0x1 PUSH1 0xA0 SHL MUL PUSH1 0x1 PUSH1 0x1 PUSH1 0xA8 SHL SUB NOT SWAP1 SWAP6 AND SWAP4 SWAP1 SWAP2 AND SWAP3 SWAP1 SWAP3 OR SWAP3 SWAP1 SWAP3 OR SWAP1 SSTORE PUSH1 0x6 DUP3 ADD DUP1 SLOAD DUP7 SWAP3 SWAP1 PUSH2 0x40E1 SWAP1 DUP5 SWAP1 PUSH2 0x4F1E JUMP JUMPDEST SWAP1 SWAP2 SSTORE POP POP PUSH1 0x3 DUP2 ADD SLOAD PUSH1 0x6 DUP3 ADD SLOAD SUB PUSH2 0x413D JUMPI PUSH1 0x7 DUP2 ADD DUP1 SLOAD PUSH1 0xFF NOT AND PUSH1 0x2 OR SWAP1 SSTORE PUSH1 0x40 DUP1 MLOAD DUP7 DUP2 MSTORE PUSH0 PUSH1 0x20 DUP3 ADD MSTORE PUSH32 0x37A30D6E3FCAEC3144B11D51892B9EADBB0EC4D2A8A813D64BB6065C3ADFCFFA SWAP2 ADD PUSH1 0x40 MLOAD DUP1 SWAP2 SUB SWAP1 LOG1 JUMPDEST PUSH1 0x8 SLOAD PUSH1 0x40 DUP1 MLOAD SWAP2 DUP3 MSTORE PUSH1 0x20 DUP3 ADD DUP8 SWAP1 MSTORE DUP2 ADD DUP6 SWAP1 MSTORE PUSH1 0x1 PUSH1 0x1 PUSH1 0xA0 SHL SUB DUP1 DUP5 AND PUSH1 0x60 DUP4 ADD MSTORE DUP5 AND PUSH1 0x80 DUP3 ADD MSTORE PUSH32 0xDC3EFFD7F2B46D1989F8B9EC5ABBA2E3C07EAA9CAA9511C8AF3C9444ECBB52F2 SWAP1 PUSH1 0xA0 ADD PUSH2 0x1C63 JUMP JUMPDEST PUSH0 DUP2 PUSH1 0xFF AND DUP4 PUSH1 0xFF AND SUB PUSH2 0x41A9 JUMPI POP DUP3 PUSH2 0x4220 JUMP JUMPDEST DUP2 PUSH1 0xFF AND DUP4 PUSH1 0xFF AND LT ISZERO PUSH2 0x41DD JUMPI PUSH2 0x41C1 DUP4 DUP4 PUSH2 0x50DF JUMP JUMPDEST PUSH2 0x41CC SWAP1 PUSH1 0xA PUSH2 0x51D8 JUMP JUMPDEST PUSH2 0x41D6 SWAP1 DUP6 PUSH2 0x4EE0 JUMP JUMPDEST SWAP1 POP PUSH2 0x4220 JUMP JUMPDEST PUSH0 PUSH2 0x41E8 DUP4 DUP6 PUSH2 0x50DF JUMP JUMPDEST PUSH2 0x41F3 SWAP1 PUSH1 0xA PUSH2 0x51D8 JUMP JUMPDEST SWAP1 POP PUSH2 0x41FF DUP2 DUP7 PUSH2 0x4F0B JUMP JUMPDEST SWAP2 POP PUSH2 0x420B DUP2 DUP7 PUSH2 0x51E6 JUMP JUMPDEST ISZERO PUSH2 0x421E JUMPI PUSH2 0x421B PUSH1 0x1 DUP4 PUSH2 0x4F1E JUMP JUMPDEST SWAP2 POP JUMPDEST POP JUMPDEST SWAP4 SWAP3 POP POP POP JUMP JUMPDEST PUSH1 0x40 MLOAD PUSH1 0x1 PUSH1 0x1 PUSH1 0xA0 SHL SUB DUP5 DUP2 AND PUSH1 0x24 DUP4 ADD MSTORE DUP4 DUP2 AND PUSH1 0x44 DUP4 ADD MSTORE PUSH1 0x64 DUP3 ADD DUP4 SWAP1 MSTORE PUSH2 0x1D0B SWAP2 DUP7 SWAP2 DUP3 AND SWAP1 PUSH4 0x23B872DD SWAP1 PUSH1 0x84 ADD JUMPDEST PUSH1 0x40 MLOAD PUSH1 0x20 DUP2 DUP4 SUB SUB DUP2 MSTORE SWAP1 PUSH1 0x40 MSTORE SWAP2 POP PUSH1 0xE0 SHL PUSH1 0x20 DUP3 ADD DUP1 MLOAD PUSH1 0x1 PUSH1 0x1 PUSH1 0xE0 SHL SUB DUP4 DUP2 DUP4 AND OR DUP4 MSTORE POP POP POP POP PUSH2 0x45E1 JUMP JUMPDEST PUSH1 0x40 MLOAD DUP1 PUSH2 0x140 ADD PUSH1 0x40 MSTORE DUP1 DUP9 PUSH1 0xFF AND DUP2 MSTORE PUSH1 0x20 ADD DUP8 DUP2 MSTORE PUSH1 0x20 ADD DUP7 PUSH1 0x1 PUSH1 0x1 PUSH1 0xA0 SHL SUB AND DUP2 MSTORE PUSH1 0x20 ADD DUP6 DUP2 MSTORE PUSH1 0x20 ADD DUP5 DUP2 MSTORE PUSH1 0x20 ADD DUP4 DUP2 MSTORE PUSH1 0x20 ADD PUSH0 DUP2 MSTORE PUSH1 0x20 ADD PUSH1 0x1 PUSH1 0xFF AND DUP2 MSTORE PUSH1 0x20 ADD PUSH2 0x42E1 CALLER SWAP1 JUMP JUMPDEST PUSH1 0x1 PUSH1 0x1 PUSH1 0xA0 SHL SUB AND DUP2 MSTORE PUSH1 0x20 ADD DUP3 ISZERO ISZERO DUP2 MSTORE POP PUSH1 0x5 PUSH0 PUSH1 0x6 PUSH0 DUP2 SLOAD PUSH2 0x4306 SWAP1 PUSH2 0x50C7 JUMP JUMPDEST SWAP2 DUP3 SWAP1 SSTORE POP DUP2 MSTORE PUSH1 0x20 DUP1 DUP3 ADD SWAP3 SWAP1 SWAP3 MSTORE PUSH1 0x40 SWAP1 DUP2 ADD PUSH0 KECCAK256 DUP4 MLOAD DUP2 SLOAD PUSH1 0xFF NOT AND PUSH1 0xFF SWAP2 DUP3 AND OR DUP3 SSTORE SWAP3 DUP5 ADD MLOAD PUSH1 0x1 DUP3 ADD SSTORE SWAP1 DUP4 ADD MLOAD PUSH1 0x2 DUP3 ADD DUP1 SLOAD PUSH1 0x1 PUSH1 0x1 PUSH1 0xA0 SHL SUB NOT AND PUSH1 0x1 PUSH1 0x1 PUSH1 0xA0 SHL SUB SWAP3 DUP4 AND OR SWAP1 SSTORE PUSH1 0x60 DUP5 ADD MLOAD PUSH1 0x3 DUP4 ADD SSTORE PUSH1 0x80 DUP5 ADD MLOAD PUSH1 0x4 DUP4 ADD SSTORE PUSH1 0xA0 DUP5 ADD MLOAD PUSH1 0x5 DUP4 ADD SSTORE PUSH1 0xC0 DUP5 ADD MLOAD PUSH1 0x6 DUP1 DUP5 ADD SWAP2 SWAP1 SWAP2 SSTORE PUSH1 0xE0 DUP6 ADD MLOAD PUSH1 0x7 SWAP1 SWAP4 ADD DUP1 SLOAD PUSH2 0x100 DUP1 DUP9 ADD MLOAD PUSH2 0x120 SWAP1 SWAP9 ADD MLOAD SWAP6 SWAP1 SWAP7 AND PUSH1 0x1 PUSH1 0x1 PUSH1 0xA8 SHL SUB NOT SWAP1 SWAP2 AND OR SWAP6 SWAP1 SWAP3 AND SWAP1 SWAP4 MUL SWAP4 SWAP1 SWAP4 OR PUSH1 0xFF PUSH1 0xA8 SHL NOT AND PUSH1 0x1 PUSH1 0xA8 SHL SWAP2 ISZERO ISZERO SWAP2 SWAP1 SWAP2 MUL OR SWAP1 SWAP2 SSTORE SLOAD PUSH32 0x8F8F88015929D8EEB82FCC5C324B9713DC52572EAE5CF9E6E80F7E2D81AE0898 SWAP1 DUP9 DUP9 DUP9 DUP9 DUP9 DUP9 DUP9 CALLER PUSH1 0x40 DUP1 MLOAD SWAP10 DUP11 MSTORE PUSH1 0xFF SWAP1 SWAP9 AND PUSH1 0x20 DUP11 ADD MSTORE SWAP7 DUP9 ADD SWAP6 SWAP1 SWAP6 MSTORE PUSH1 0x1 PUSH1 0x1 PUSH1 0xA0 SHL SUB SWAP4 DUP5 AND PUSH1 0x60 DUP9 ADD MSTORE PUSH1 0x80 DUP8 ADD SWAP3 SWAP1 SWAP3 MSTORE PUSH1 0xA0 DUP7 ADD MSTORE PUSH1 0xC0 DUP6 ADD MSTORE SWAP1 ISZERO ISZERO PUSH1 0xE0 DUP5 ADD MSTORE AND PUSH2 0x100 DUP3 ADD MSTORE PUSH2 0x120 ADD PUSH1 0x40 MLOAD DUP1 SWAP2 SUB SWAP1 LOG1 POP POP POP POP POP POP POP JUMP JUMPDEST PUSH2 0x2FE2 DUP2 CALLER PUSH2 0x4642 JUMP JUMPDEST PUSH0 DUP2 PUSH1 0xFF AND DUP4 PUSH1 0xFF AND SUB PUSH2 0x4479 JUMPI POP DUP3 PUSH2 0x4220 JUMP JUMPDEST DUP2 PUSH1 0xFF AND DUP4 PUSH1 0xFF AND LT ISZERO PUSH2 0x4491 JUMPI PUSH2 0x41C1 DUP4 DUP4 PUSH2 0x50DF JUMP JUMPDEST PUSH2 0x449B DUP3 DUP5 PUSH2 0x50DF JUMP JUMPDEST PUSH2 0x44A6 SWAP1 PUSH1 0xA PUSH2 0x51D8 JUMP JUMPDEST PUSH2 0x44B0 SWAP1 DUP6 PUSH2 0x4F0B JUMP JUMPDEST SWAP5 SWAP4 POP POP POP POP JUMP JUMPDEST PUSH1 0x40 MLOAD PUSH1 0x1 PUSH1 0x1 PUSH1 0xA0 SHL SUB DUP4 DUP2 AND PUSH1 0x24 DUP4 ADD MSTORE PUSH1 0x44 DUP3 ADD DUP4 SWAP1 MSTORE PUSH2 0x1CE2 SWAP2 DUP6 SWAP2 DUP3 AND SWAP1 PUSH4 0xA9059CBB SWAP1 PUSH1 0x64 ADD PUSH2 0x425C JUMP JUMPDEST PUSH0 PUSH2 0x44F4 DUP4 DUP4 PUSH2 0x29AA JUMP JUMPDEST PUSH2 0x4571 JUMPI PUSH0 DUP4 DUP2 MSTORE PUSH1 0x20 DUP2 DUP2 MSTORE PUSH1 0x40 DUP1 DUP4 KECCAK256 PUSH1 0x1 PUSH1 0x1 PUSH1 0xA0 SHL SUB DUP7 AND DUP5 MSTORE SWAP1 SWAP2 MSTORE SWAP1 KECCAK256 DUP1 SLOAD PUSH1 0xFF NOT AND PUSH1 0x1 OR SWAP1 SSTORE PUSH2 0x4529 CALLER SWAP1 JUMP JUMPDEST PUSH1 0x1 PUSH1 0x1 PUSH1 0xA0 SHL SUB AND DUP3 PUSH1 0x1 PUSH1 0x1 PUSH1 0xA0 SHL SUB AND DUP5 PUSH32 0x2F8788117E7EFF1D82E926EC794901D17C78024A50270940304540A733656F0D PUSH1 0x40 MLOAD PUSH1 0x40 MLOAD DUP1 SWAP2 SUB SWAP1 LOG4 POP PUSH1 0x1 PUSH2 0xFB2 JUMP JUMPDEST POP PUSH0 PUSH2 0xFB2 JUMP JUMPDEST PUSH0 PUSH2 0x4583 DUP4 DUP4 PUSH2 0x29AA JUMP JUMPDEST ISZERO PUSH2 0x4571 JUMPI PUSH0 DUP4 DUP2 MSTORE PUSH1 0x20 DUP2 DUP2 MSTORE PUSH1 0x40 DUP1 DUP4 KECCAK256 PUSH1 0x1 PUSH1 0x1 PUSH1 0xA0 SHL SUB DUP7 AND DUP1 DUP6 MSTORE SWAP3 MSTORE DUP1 DUP4 KECCAK256 DUP1 SLOAD PUSH1 0xFF NOT AND SWAP1 SSTORE MLOAD CALLER SWAP3 DUP7 SWAP2 PUSH32 0xF6391F5C32D9C69D2A47EA670B442974B53935D1EDC7FD64EB21E047A839171B SWAP2 SWAP1 LOG4 POP PUSH1 0x1 PUSH2 0xFB2 JUMP JUMPDEST PUSH0 PUSH2 0x45F5 PUSH1 0x1 PUSH1 0x1 PUSH1 0xA0 SHL SUB DUP5 AND DUP4 PUSH2 0x467B JUMP JUMPDEST SWAP1 POP DUP1 MLOAD PUSH0 EQ ISZERO DUP1 ISZERO PUSH2 0x4619 JUMPI POP DUP1 DUP1 PUSH1 0x20 ADD SWAP1 MLOAD DUP2 ADD SWAP1 PUSH2 0x4617 SWAP2 SWAP1 PUSH2 0x51F9 JUMP JUMPDEST ISZERO JUMPDEST ISZERO PUSH2 0x1CE2 JUMPI PUSH1 0x40 MLOAD PUSH4 0x5274AFE7 PUSH1 0xE0 SHL DUP2 MSTORE PUSH1 0x1 PUSH1 0x1 PUSH1 0xA0 SHL SUB DUP5 AND PUSH1 0x4 DUP3 ADD MSTORE PUSH1 0x24 ADD PUSH2 0xFE1 JUMP JUMPDEST PUSH2 0x464C DUP3 DUP3 PUSH2 0x29AA JUMP JUMPDEST PUSH2 0x12A3 JUMPI PUSH1 0x40 MLOAD PUSH4 0xE2517D3F PUSH1 0xE0 SHL DUP2 MSTORE PUSH1 0x1 PUSH1 0x1 PUSH1 0xA0 SHL SUB DUP3 AND PUSH1 0x4 DUP3 ADD MSTORE PUSH1 0x24 DUP2 ADD DUP4 SWAP1 MSTORE PUSH1 0x44 ADD PUSH2 0xFE1 JUMP JUMPDEST PUSH1 0x60 PUSH2 0x4220 DUP4 DUP4 PUSH0 DUP5 PUSH0 DUP1 DUP6 PUSH1 0x1 PUSH1 0x1 PUSH1 0xA0 SHL SUB AND DUP5 DUP7 PUSH1 0x40 MLOAD PUSH2 0x469F SWAP2 SWAP1 PUSH2 0x5214 JUMP JUMPDEST PUSH0 PUSH1 0x40 MLOAD DUP1 DUP4 SUB DUP2 DUP6 DUP8 GAS CALL SWAP3 POP POP POP RETURNDATASIZE DUP1 PUSH0 DUP2 EQ PUSH2 0x46D9 JUMPI PUSH1 0x40 MLOAD SWAP2 POP PUSH1 0x1F NOT PUSH1 0x3F RETURNDATASIZE ADD AND DUP3 ADD PUSH1 0x40 MSTORE RETURNDATASIZE DUP3 MSTORE RETURNDATASIZE PUSH0 PUSH1 0x20 DUP5 ADD RETURNDATACOPY PUSH2 0x46DE JUMP JUMPDEST PUSH1 0x60 SWAP2 POP JUMPDEST POP SWAP2 POP SWAP2 POP PUSH2 0x46EE DUP7 DUP4 DUP4 PUSH2 0x46F8 JUMP JUMPDEST SWAP7 SWAP6 POP POP POP POP POP POP JUMP JUMPDEST PUSH1 0x60 DUP3 PUSH2 0x470D JUMPI PUSH2 0x4708 DUP3 PUSH2 0x4754 JUMP JUMPDEST PUSH2 0x4220 JUMP JUMPDEST DUP2 MLOAD ISZERO DUP1 ISZERO PUSH2 0x4724 JUMPI POP PUSH1 0x1 PUSH1 0x1 PUSH1 0xA0 SHL SUB DUP5 AND EXTCODESIZE ISZERO JUMPDEST ISZERO PUSH2 0x474D JUMPI PUSH1 0x40 MLOAD PUSH4 0x9996B315 PUSH1 0xE0 SHL DUP2 MSTORE PUSH1 0x1 PUSH1 0x1 PUSH1 0xA0 SHL SUB DUP6 AND PUSH1 0x4 DUP3 ADD MSTORE PUSH1 0x24 ADD PUSH2 0xFE1 JUMP JUMPDEST POP DUP1 PUSH2 0x4220 JUMP JUMPDEST DUP1 MLOAD ISZERO PUSH2 0x4764 JUMPI DUP1 MLOAD DUP1 DUP3 PUSH1 0x20 ADD REVERT JUMPDEST PUSH1 0x40 MLOAD PUSH4 0xA12F521 PUSH1 0xE1 SHL DUP2 MSTORE PUSH1 0x4 ADD PUSH1 0x40 MLOAD DUP1 SWAP2 SUB SWAP1 REVERT JUMPDEST PUSH0 PUSH1 0x20 DUP3 DUP5 SUB SLT ISZERO PUSH2 0x478D JUMPI PUSH0 DUP1 REVERT JUMPDEST DUP2 CALLDATALOAD PUSH1 0x1 PUSH1 0x1 PUSH1 0xE0 SHL SUB NOT DUP2 AND DUP2 EQ PUSH2 0x4220 JUMPI PUSH0 DUP1 REVERT JUMPDEST PUSH4 0x4E487B71 PUSH1 0xE0 SHL PUSH0 MSTORE PUSH1 0x41 PUSH1 0x4 MSTORE PUSH1 0x24 PUSH0 REVERT JUMPDEST PUSH1 0x40 MLOAD PUSH1 0x1F DUP3 ADD PUSH1 0x1F NOT AND DUP2 ADD PUSH8 0xFFFFFFFFFFFFFFFF DUP2 GT DUP3 DUP3 LT OR ISZERO PUSH2 0x47E1 JUMPI PUSH2 0x47E1 PUSH2 0x47A4 JUMP JUMPDEST PUSH1 0x40 MSTORE SWAP2 SWAP1 POP JUMP JUMPDEST PUSH0 PUSH8 0xFFFFFFFFFFFFFFFF DUP3 GT ISZERO PUSH2 0x4802 JUMPI PUSH2 0x4802 PUSH2 0x47A4 JUMP JUMPDEST POP PUSH1 0x5 SHL PUSH1 0x20 ADD SWAP1 JUMP JUMPDEST PUSH0 DUP3 PUSH1 0x1F DUP4 ADD SLT PUSH2 0x481B JUMPI PUSH0 DUP1 REVERT JUMPDEST DUP2 CALLDATALOAD PUSH1 0x20 PUSH2 0x4830 PUSH2 0x482B DUP4 PUSH2 0x47E9 JUMP JUMPDEST PUSH2 0x47B8 JUMP JUMPDEST DUP1 DUP4 DUP3 MSTORE PUSH1 0x20 DUP3 ADD SWAP2 POP PUSH1 0x20 DUP5 PUSH1 0x5 SHL DUP8 ADD ADD SWAP4 POP DUP7 DUP5 GT ISZERO PUSH2 0x4851 JUMPI PUSH0 DUP1 REVERT JUMPDEST PUSH1 0x20 DUP7 ADD JUMPDEST DUP5 DUP2 LT ISZERO PUSH2 0x486D JUMPI DUP1 CALLDATALOAD DUP4 MSTORE SWAP2 DUP4 ADD SWAP2 DUP4 ADD PUSH2 0x4856 JUMP JUMPDEST POP SWAP7 SWAP6 POP POP POP POP POP POP JUMP JUMPDEST PUSH0 DUP1 PUSH1 0x40 DUP4 DUP6 SUB SLT ISZERO PUSH2 0x4889 JUMPI PUSH0 DUP1 REVERT JUMPDEST DUP3 CALLDATALOAD PUSH8 0xFFFFFFFFFFFFFFFF DUP1 DUP3 GT ISZERO PUSH2 0x48A0 JUMPI PUSH0 DUP1 REVERT JUMPDEST PUSH2 0x48AC DUP7 DUP4 DUP8 ADD PUSH2 0x480C JUMP JUMPDEST SWAP4 POP PUSH1 0x20 DUP6 ADD CALLDATALOAD SWAP2 POP DUP1 DUP3 GT ISZERO PUSH2 0x48C1 JUMPI PUSH0 DUP1 REVERT JUMPDEST POP PUSH2 0x48CE DUP6 DUP3 DUP7 ADD PUSH2 0x480C JUMP JUMPDEST SWAP2 POP POP SWAP3 POP SWAP3 SWAP1 POP JUMP JUMPDEST PUSH1 0xFF DUP2 AND DUP2 EQ PUSH2 0x2FE2 JUMPI PUSH0 DUP1 REVERT JUMPDEST DUP1 CALLDATALOAD PUSH1 0x1 PUSH1 0x1 PUSH1 0xA0 SHL SUB DUP2 AND DUP2 EQ PUSH2 0x48FC JUMPI PUSH0 DUP1 REVERT JUMPDEST SWAP2 SWAP1 POP JUMP JUMPDEST DUP1 ISZERO ISZERO DUP2 EQ PUSH2 0x2FE2 JUMPI PUSH0 DUP1 REVERT JUMPDEST DUP1 CALLDATALOAD PUSH2 0x48FC DUP2 PUSH2 0x4901 JUMP JUMPDEST PUSH0 DUP1 PUSH0 DUP1 PUSH0 DUP1 PUSH1 0xC0 DUP8 DUP10 SUB SLT ISZERO PUSH2 0x492E JUMPI PUSH0 DUP1 REVERT JUMPDEST DUP7 CALLDATALOAD PUSH2 0x4939 DUP2 PUSH2 0x48D8 JUMP JUMPDEST SWAP6 POP PUSH1 0x20 DUP8 ADD CALLDATALOAD SWAP5 POP PUSH1 0x40 DUP8 ADD CALLDATALOAD SWAP4 POP PUSH1 0x60 DUP8 ADD CALLDATALOAD SWAP3 POP PUSH2 0x495C PUSH1 0x80 DUP9 ADD PUSH2 0x48E6 JUMP JUMPDEST SWAP2 POP PUSH1 0xA0 DUP8 ADD CALLDATALOAD PUSH2 0x496C DUP2 PUSH2 0x4901 JUMP JUMPDEST DUP1 SWAP2 POP POP SWAP3 SWAP6 POP SWAP3 SWAP6 POP SWAP3 SWAP6 JUMP JUMPDEST PUSH0 DUP1 PUSH1 0x40 DUP4 DUP6 SUB SLT ISZERO PUSH2 0x498B JUMPI PUSH0 DUP1 REVERT JUMPDEST POP POP DUP1 CALLDATALOAD SWAP3 PUSH1 0x20 SWAP1 SWAP2 ADD CALLDATALOAD SWAP2 POP JUMP JUMPDEST PUSH0 PUSH1 0x20 DUP3 DUP5 SUB SLT ISZERO PUSH2 0x49AA JUMPI PUSH0 DUP1 REVERT JUMPDEST DUP2 CALLDATALOAD PUSH8 0xFFFFFFFFFFFFFFFF DUP2 GT ISZERO PUSH2 0x49C0 JUMPI PUSH0 DUP1 REVERT JUMPDEST PUSH2 0x44B0 DUP5 DUP3 DUP6 ADD PUSH2 0x480C JUMP JUMPDEST PUSH0 PUSH1 0x20 DUP3 DUP5 SUB SLT ISZERO PUSH2 0x49DC JUMPI PUSH0 DUP1 REVERT JUMPDEST POP CALLDATALOAD SWAP2 SWAP1 POP JUMP JUMPDEST PUSH0 DUP1 PUSH0 DUP1 PUSH1 0x80 DUP6 DUP8 SUB SLT ISZERO PUSH2 0x49F6 JUMPI PUSH0 DUP1 REVERT JUMPDEST PUSH2 0x49FF DUP6 PUSH2 0x48E6 JUMP JUMPDEST SWAP7 PUSH1 0x20 DUP7 ADD CALLDATALOAD SWAP7 POP PUSH1 0x40 DUP7 ADD CALLDATALOAD SWAP6 PUSH1 0x60 ADD CALLDATALOAD SWAP5 POP SWAP3 POP POP POP JUMP JUMPDEST PUSH0 DUP1 PUSH1 0x40 DUP4 DUP6 SUB SLT ISZERO PUSH2 0x4A2A JUMPI PUSH0 DUP1 REVERT JUMPDEST DUP3 CALLDATALOAD SWAP2 POP PUSH1 0x20 DUP4 ADD CALLDATALOAD PUSH6 0xFFFFFFFFFFFF DUP2 AND DUP2 EQ PUSH2 0x4A46 JUMPI PUSH0 DUP1 REVERT JUMPDEST DUP1 SWAP2 POP POP SWAP3 POP SWAP3 SWAP1 POP JUMP JUMPDEST PUSH0 DUP1 PUSH1 0x40 DUP4 DUP6 SUB SLT ISZERO PUSH2 0x4A62 JUMPI PUSH0 DUP1 REVERT JUMPDEST DUP3 CALLDATALOAD PUSH8 0xFFFFFFFFFFFFFFFF DUP1 DUP3 GT ISZERO PUSH2 0x4A79 JUMPI PUSH0 DUP1 REVERT JUMPDEST PUSH2 0x4A85 DUP7 DUP4 DUP8 ADD PUSH2 0x480C JUMP JUMPDEST SWAP4 POP PUSH1 0x20 SWAP2 POP DUP2 DUP6 ADD CALLDATALOAD DUP2 DUP2 GT ISZERO PUSH2 0x4A9B JUMPI PUSH0 DUP1 REVERT JUMPDEST DUP6 ADD SWAP1 POP PUSH1 0x1F DUP2 ADD DUP7 SGT PUSH2 0x4AAD JUMPI PUSH0 DUP1 REVERT JUMPDEST DUP1 CALLDATALOAD PUSH2 0x4ABB PUSH2 0x482B DUP3 PUSH2 0x47E9 JUMP JUMPDEST DUP2 DUP2 MSTORE PUSH1 0x5 SWAP2 SWAP1 SWAP2 SHL DUP3 ADD DUP4 ADD SWAP1 DUP4 DUP2 ADD SWAP1 DUP9 DUP4 GT ISZERO PUSH2 0x4AD9 JUMPI PUSH0 DUP1 REVERT JUMPDEST SWAP3 DUP5 ADD SWAP3 JUMPDEST DUP3 DUP5 LT ISZERO PUSH2 0x4AF7 JUMPI DUP4 CALLDATALOAD DUP3 MSTORE SWAP3 DUP5 ADD SWAP3 SWAP1 DUP5 ADD SWAP1 PUSH2 0x4ADE JUMP JUMPDEST DUP1 SWAP6 POP POP POP POP POP POP SWAP3 POP SWAP3 SWAP1 POP JUMP JUMPDEST PUSH0 DUP1 PUSH1 0x40 DUP4 DUP6 SUB SLT ISZERO PUSH2 0x4B17 JUMPI PUSH0 DUP1 REVERT JUMPDEST DUP3 CALLDATALOAD SWAP2 POP PUSH2 0x4B27 PUSH1 0x20 DUP5 ADD PUSH2 0x48E6 JUMP JUMPDEST SWAP1 POP SWAP3 POP SWAP3 SWAP1 POP JUMP JUMPDEST PUSH0 PUSH1 0x20 DUP3 DUP5 SUB SLT ISZERO PUSH2 0x4B40 JUMPI PUSH0 DUP1 REVERT JUMPDEST PUSH2 0x4220 DUP3 PUSH2 0x48E6 JUMP JUMPDEST DUP2 MLOAD PUSH1 0xFF AND DUP2 MSTORE PUSH2 0x140 DUP2 ADD PUSH1 0x20 DUP4 ADD MLOAD PUSH1 0x20 DUP4 ADD MSTORE PUSH1 0x40 DUP4 ADD MLOAD PUSH2 0x4B79 PUSH1 0x40 DUP5 ADD DUP3 PUSH1 0x1 PUSH1 0x1 PUSH1 0xA0 SHL SUB AND SWAP1 MSTORE JUMP JUMPDEST POP PUSH1 0x60 DUP4 ADD MLOAD PUSH1 0x60 DUP4 ADD MSTORE PUSH1 0x80 DUP4 ADD MLOAD PUSH1 0x80 DUP4 ADD MSTORE PUSH1 0xA0 DUP4 ADD MLOAD PUSH1 0xA0 DUP4 ADD MSTORE PUSH1 0xC0 DUP4 ADD MLOAD PUSH1 0xC0 DUP4 ADD MSTORE PUSH1 0xE0 DUP4 ADD MLOAD PUSH2 0x4BB6 PUSH1 0xE0 DUP5 ADD DUP3 PUSH1 0xFF AND SWAP1 MSTORE JUMP JUMPDEST POP PUSH2 0x100 DUP4 DUP2 ADD MLOAD PUSH1 0x1 PUSH1 0x1 PUSH1 0xA0 SHL SUB AND SWAP1 DUP4 ADD MSTORE PUSH2 0x120 SWAP3 DUP4 ADD MLOAD ISZERO ISZERO SWAP3 SWAP1 SWAP2 ADD SWAP2 SWAP1 SWAP2 MSTORE SWAP1 JUMP JUMPDEST SWAP4 DUP5 MSTORE PUSH1 0x20 DUP5 ADD SWAP3 SWAP1 SWAP3 MSTORE PUSH1 0x40 DUP4 ADD MSTORE PUSH1 0x1 PUSH1 0x1 PUSH1 0xA0 SHL SUB AND PUSH1 0x60 DUP3 ADD MSTORE PUSH1 0x80 ADD SWAP1 JUMP JUMPDEST PUSH0 DUP1 PUSH0 PUSH1 0x60 DUP5 DUP7 SUB SLT ISZERO PUSH2 0x4C15 JUMPI PUSH0 DUP1 REVERT JUMPDEST DUP4 CALLDATALOAD SWAP3 POP PUSH2 0x4C25 PUSH1 0x20 DUP6 ADD PUSH2 0x48E6 JUMP JUMPDEST SWAP2 POP PUSH1 0x40 DUP5 ADD CALLDATALOAD PUSH1 0x1 PUSH1 0x1 PUSH1 0x98 SHL SUB DUP2 AND DUP2 EQ PUSH2 0x4C40 JUMPI PUSH0 DUP1 REVERT JUMPDEST DUP1 SWAP2 POP POP SWAP3 POP SWAP3 POP SWAP3 JUMP JUMPDEST PUSH0 DUP1 PUSH1 0x40 DUP4 DUP6 SUB SLT ISZERO PUSH2 0x4C5C JUMPI PUSH0 DUP1 REVERT JUMPDEST DUP3 CALLDATALOAD PUSH8 0xFFFFFFFFFFFFFFFF DUP2 GT ISZERO PUSH2 0x4C72 JUMPI PUSH0 DUP1 REVERT JUMPDEST DUP4 ADD PUSH1 0x1F DUP2 ADD DUP6 SGT PUSH2 0x4C82 JUMPI PUSH0 DUP1 REVERT JUMPDEST DUP1 CALLDATALOAD PUSH1 0x20 PUSH2 0x4C92 PUSH2 0x482B DUP4 PUSH2 0x47E9 JUMP JUMPDEST DUP3 DUP2 MSTORE PUSH1 0x5 SWAP3 SWAP1 SWAP3 SHL DUP4 ADD DUP2 ADD SWAP2 DUP2 DUP2 ADD SWAP1 DUP9 DUP5 GT ISZERO PUSH2 0x4CB0 JUMPI PUSH0 DUP1 REVERT JUMPDEST SWAP4 DUP3 ADD SWAP4 JUMPDEST DUP4 DUP6 LT ISZERO PUSH2 0x4CD5 JUMPI PUSH2 0x4CC6 DUP6 PUSH2 0x48E6 JUMP JUMPDEST DUP3 MSTORE SWAP4 DUP3 ADD SWAP4 SWAP1 DUP3 ADD SWAP1 PUSH2 0x4CB5 JUMP JUMPDEST SWAP6 POP PUSH2 0x4CE4 SWAP1 POP DUP7 DUP3 ADD PUSH2 0x490E JUMP JUMPDEST SWAP4 POP POP POP POP SWAP3 POP SWAP3 SWAP1 POP JUMP JUMPDEST PUSH0 DUP1 PUSH1 0x40 DUP4 DUP6 SUB SLT ISZERO PUSH2 0x4D01 JUMPI PUSH0 DUP1 REVERT JUMPDEST PUSH2 0x4D0A DUP4 PUSH2 0x48E6 JUMP JUMPDEST SWAP2 POP PUSH2 0x4B27 PUSH1 0x20 DUP5 ADD PUSH2 0x48E6 JUMP JUMPDEST PUSH0 DUP1 PUSH0 DUP1 PUSH0 PUSH1 0xA0 DUP7 DUP9 SUB SLT ISZERO PUSH2 0x4D2C JUMPI PUSH0 DUP1 REVERT JUMPDEST DUP6 CALLDATALOAD PUSH2 0x4D37 DUP2 PUSH2 0x48D8 JUMP JUMPDEST SWAP5 POP PUSH1 0x20 DUP7 ADD CALLDATALOAD SWAP4 POP PUSH1 0x40 DUP7 ADD CALLDATALOAD SWAP3 POP PUSH1 0x60 DUP7 ADD CALLDATALOAD SWAP2 POP PUSH1 0x80 DUP7 ADD CALLDATALOAD PUSH2 0x4D5C DUP2 PUSH2 0x4901 JUMP JUMPDEST DUP1 SWAP2 POP POP SWAP3 SWAP6 POP SWAP3 SWAP6 SWAP1 SWAP4 POP JUMP JUMPDEST PUSH1 0x20 DUP1 DUP3 MSTORE PUSH1 0xD SWAP1 DUP3 ADD MSTORE PUSH13 0x125B9D985B1A5908125B9C1D5D PUSH1 0x9A SHL PUSH1 0x40 DUP3 ADD MSTORE PUSH1 0x60 ADD SWAP1 JUMP JUMPDEST PUSH4 0x4E487B71 PUSH1 0xE0 SHL PUSH0 MSTORE PUSH1 0x32 PUSH1 0x4 MSTORE PUSH1 0x24 PUSH0 REVERT JUMPDEST PUSH1 0x20 DUP1 DUP3 MSTORE PUSH1 0x14 SWAP1 DUP3 ADD MSTORE PUSH20 0x496E76616C6964204F6666657220537461747573 PUSH1 0x60 SHL PUSH1 0x40 DUP3 ADD MSTORE PUSH1 0x60 ADD SWAP1 JUMP JUMPDEST PUSH1 0x20 DUP1 DUP3 MSTORE PUSH1 0x14 SWAP1 DUP3 ADD MSTORE PUSH20 0x496E76616C696420746F6B656E20537461747573 PUSH1 0x60 SHL PUSH1 0x40 DUP3 ADD MSTORE PUSH1 0x60 ADD SWAP1 JUMP JUMPDEST PUSH1 0x20 DUP1 DUP3 MSTORE PUSH1 0xE SWAP1 DUP3 ADD MSTORE PUSH14 0x125B9D985B1A5908105B5BDD5B9D PUSH1 0x92 SHL PUSH1 0x40 DUP3 ADD MSTORE PUSH1 0x60 ADD SWAP1 JUMP JUMPDEST PUSH4 0x4E487B71 PUSH1 0xE0 SHL PUSH0 MSTORE PUSH1 0x11 PUSH1 0x4 MSTORE PUSH1 0x24 PUSH0 REVERT JUMPDEST DUP2 DUP2 SUB DUP2 DUP2 GT ISZERO PUSH2 0xFB2 JUMPI PUSH2 0xFB2 PUSH2 0x4E29 JUMP JUMPDEST PUSH1 0x20 DUP1 DUP3 MSTORE PUSH1 0x18 SWAP1 DUP3 ADD MSTORE PUSH32 0x496E73756666696369656E7420416C6C6F636174696F6E730000000000000000 PUSH1 0x40 DUP3 ADD MSTORE PUSH1 0x60 ADD SWAP1 JUMP JUMPDEST PUSH1 0x20 DUP1 DUP3 MSTORE PUSH1 0x12 SWAP1 DUP3 ADD MSTORE PUSH18 0x119D5B1B13585D18DA081C995C5D5A5C9959 PUSH1 0x72 SHL PUSH1 0x40 DUP3 ADD MSTORE PUSH1 0x60 ADD SWAP1 JUMP JUMPDEST PUSH1 0x20 DUP1 DUP3 MSTORE PUSH1 0x13 SWAP1 DUP3 ADD MSTORE PUSH19 0x24B73B30B634B21027B33332B9102A37B5B2B7 PUSH1 0x69 SHL PUSH1 0x40 DUP3 ADD MSTORE PUSH1 0x60 ADD SWAP1 JUMP JUMPDEST DUP1 DUP3 MUL DUP2 ISZERO DUP3 DUP3 DIV DUP5 EQ OR PUSH2 0xFB2 JUMPI PUSH2 0xFB2 PUSH2 0x4E29 JUMP JUMPDEST PUSH4 0x4E487B71 PUSH1 0xE0 SHL PUSH0 MSTORE PUSH1 0x12 PUSH1 0x4 MSTORE PUSH1 0x24 PUSH0 REVERT JUMPDEST PUSH0 DUP3 PUSH2 0x4F19 JUMPI PUSH2 0x4F19 PUSH2 0x4EF7 JUMP JUMPDEST POP DIV SWAP1 JUMP JUMPDEST DUP1 DUP3 ADD DUP1 DUP3 GT ISZERO PUSH2 0xFB2 JUMPI PUSH2 0xFB2 PUSH2 0x4E29 JUMP JUMPDEST PUSH1 0x20 DUP1 DUP3 MSTORE PUSH1 0x12 SWAP1 DUP3 ADD MSTORE PUSH18 0x496E73756666696369656E742046756E6473 PUSH1 0x70 SHL PUSH1 0x40 DUP3 ADD MSTORE PUSH1 0x60 ADD SWAP1 JUMP JUMPDEST PUSH1 0x20 DUP1 DUP3 MSTORE PUSH1 0x1B SWAP1 DUP3 ADD MSTORE PUSH32 0x526566756E64206F662065786365737320455448206661696C65640000000000 PUSH1 0x40 DUP3 ADD MSTORE PUSH1 0x60 ADD SWAP1 JUMP JUMPDEST PUSH0 PUSH1 0x20 DUP3 DUP5 SUB SLT ISZERO PUSH2 0x4FA4 JUMPI PUSH0 DUP1 REVERT JUMPDEST DUP2 MLOAD PUSH2 0x4220 DUP2 PUSH2 0x48D8 JUMP JUMPDEST PUSH1 0x20 DUP1 DUP3 MSTORE PUSH1 0xE SWAP1 DUP3 ADD MSTORE PUSH14 0x496E76616C696420537461747573 PUSH1 0x90 SHL PUSH1 0x40 DUP3 ADD MSTORE PUSH1 0x60 ADD SWAP1 JUMP JUMPDEST PUSH1 0x20 DUP1 DUP3 MSTORE PUSH1 0x14 SWAP1 DUP3 ADD MSTORE PUSH20 0x496E76616C6964204F7264657220537461747573 PUSH1 0x60 SHL PUSH1 0x40 DUP3 ADD MSTORE PUSH1 0x60 ADD SWAP1 JUMP JUMPDEST PUSH1 0x20 DUP1 DUP3 MSTORE PUSH1 0x13 SWAP1 DUP3 ADD MSTORE PUSH19 0x151C985B9CD9995C88119D5B991CC811985A5B PUSH1 0x6A SHL PUSH1 0x40 DUP3 ADD MSTORE PUSH1 0x60 ADD SWAP1 JUMP JUMPDEST PUSH1 0x40 DUP1 DUP3 MSTORE DUP4 MLOAD SWAP1 DUP3 ADD DUP2 SWAP1 MSTORE PUSH0 SWAP1 PUSH1 0x20 SWAP1 PUSH1 0x60 DUP5 ADD SWAP1 DUP3 DUP8 ADD DUP5 JUMPDEST DUP3 DUP2 LT ISZERO PUSH2 0x5073 JUMPI DUP2 MLOAD PUSH1 0x1 PUSH1 0x1 PUSH1 0xA0 SHL SUB AND DUP5 MSTORE SWAP3 DUP5 ADD SWAP3 SWAP1 DUP5 ADD SWAP1 PUSH1 0x1 ADD PUSH2 0x504E JUMP JUMPDEST POP POP POP DUP1 SWAP3 POP POP POP DUP3 ISZERO ISZERO PUSH1 0x20 DUP4 ADD MSTORE SWAP4 SWAP3 POP POP POP JUMP JUMPDEST PUSH0 PUSH1 0x20 DUP3 DUP5 SUB SLT ISZERO PUSH2 0x509A JUMPI PUSH0 DUP1 REVERT JUMPDEST POP MLOAD SWAP2 SWAP1 POP JUMP JUMPDEST PUSH6 0xFFFFFFFFFFFF DUP2 DUP2 AND DUP4 DUP3 AND ADD SWAP1 DUP1 DUP3 GT ISZERO PUSH2 0x50C0 JUMPI PUSH2 0x50C0 PUSH2 0x4E29 JUMP JUMPDEST POP SWAP3 SWAP2 POP POP JUMP JUMPDEST PUSH0 PUSH1 0x1 DUP3 ADD PUSH2 0x50D8 JUMPI PUSH2 0x50D8 PUSH2 0x4E29 JUMP JUMPDEST POP PUSH1 0x1 ADD SWAP1 JUMP JUMPDEST PUSH1 0xFF DUP3 DUP2 AND DUP3 DUP3 AND SUB SWAP1 DUP2 GT ISZERO PUSH2 0xFB2 JUMPI PUSH2 0xFB2 PUSH2 0x4E29 JUMP JUMPDEST PUSH1 0x1 DUP2 DUP2 JUMPDEST DUP1 DUP6 GT ISZERO PUSH2 0x5132 JUMPI DUP2 PUSH0 NOT DIV DUP3 GT ISZERO PUSH2 0x5118 JUMPI PUSH2 0x5118 PUSH2 0x4E29 JUMP JUMPDEST DUP1 DUP6 AND ISZERO PUSH2 0x5125 JUMPI SWAP2 DUP2 MUL SWAP2 JUMPDEST SWAP4 DUP5 SHR SWAP4 SWAP1 DUP1 MUL SWAP1 PUSH2 0x50FD JUMP JUMPDEST POP SWAP3 POP SWAP3 SWAP1 POP JUMP JUMPDEST PUSH0 DUP3 PUSH2 0x5148 JUMPI POP PUSH1 0x1 PUSH2 0xFB2 JUMP JUMPDEST DUP2 PUSH2 0x5154 JUMPI POP PUSH0 PUSH2 0xFB2 JUMP JUMPDEST DUP2 PUSH1 0x1 DUP2 EQ PUSH2 0x516A JUMPI PUSH1 0x2 DUP2 EQ PUSH2 0x5174 JUMPI PUSH2 0x5190 JUMP JUMPDEST PUSH1 0x1 SWAP2 POP POP PUSH2 0xFB2 JUMP JUMPDEST PUSH1 0xFF DUP5 GT ISZERO PUSH2 0x5185 JUMPI PUSH2 0x5185 PUSH2 0x4E29 JUMP JUMPDEST POP POP PUSH1 0x1 DUP3 SHL PUSH2 0xFB2 JUMP JUMPDEST POP PUSH1 0x20 DUP4 LT PUSH2 0x133 DUP4 LT AND PUSH1 0x4E DUP5 LT PUSH1 0xB DUP5 LT AND OR ISZERO PUSH2 0x51B3 JUMPI POP DUP2 DUP2 EXP PUSH2 0xFB2 JUMP JUMPDEST PUSH2 0x51BD DUP4 DUP4 PUSH2 0x50F8 JUMP JUMPDEST DUP1 PUSH0 NOT DIV DUP3 GT ISZERO PUSH2 0x51D0 JUMPI PUSH2 0x51D0 PUSH2 0x4E29 JUMP JUMPDEST MUL SWAP4 SWAP3 POP POP POP JUMP JUMPDEST PUSH0 PUSH2 0x4220 PUSH1 0xFF DUP5 AND DUP4 PUSH2 0x513A JUMP JUMPDEST PUSH0 DUP3 PUSH2 0x51F4 JUMPI PUSH2 0x51F4 PUSH2 0x4EF7 JUMP JUMPDEST POP MOD SWAP1 JUMP JUMPDEST PUSH0 PUSH1 0x20 DUP3 DUP5 SUB SLT ISZERO PUSH2 0x5209 JUMPI PUSH0 DUP1 REVERT JUMPDEST DUP2 MLOAD PUSH2 0x4220 DUP2 PUSH2 0x4901 JUMP JUMPDEST PUSH0 DUP3 MLOAD DUP1 PUSH1 0x20 DUP6 ADD DUP5 MCOPY PUSH0 SWAP3 ADD SWAP2 DUP3 MSTORE POP SWAP2 SWAP1 POP JUMP INVALID SWAP8 PUSH7 0x7070C54EF182B0 CREATE2 DUP6 DUP12 SUB 0x4B 0xEA 0xC1 0xB6 RETURN ADDMOD SWAP11 LOG2 0xD3 XOR DUP12 0xB1 0xE8 SWAP3 SWAP16 0x4F 0xA9 0xB9 0x29 LOG2 PUSH5 0x6970667358 0x22 SLT KECCAK256 0xF9 0x2B 0x4E 0xED REVERT CREATE2 0xB8 SDIV PUSH26 0xD70C6D52A9FA98F6489C829451D522575F003B63FB9BE764736F PUSH13 0x63430008190033000000000000 "
		},
		"gasEstimates": {
			"creation": {
				"codeDepositCost": "4224000",
				"executionCost": "infinite",
				"totalCost": "infinite"
			},
			"external": {
				"DEFAULT_ADMIN_ROLE()": "305",
				"OPERATOR_ROLE()": "infinite",
				"acceptedTokens(address)": "2630",
				"cancelOffer(uint256)": "infinite",
				"cancelOffers(uint256[])": "infinite",
				"config()": "8804",
				"configInfo()": "9062",
				"createToken(bytes32,uint48)": "infinite",
				"fillOffer(uint256,uint256)": "infinite",
				"fillOfferETH(uint256,uint256)": "infinite",
				"fillOffers(uint256[],uint256[])": "infinite",
				"fillOffersETH(uint256[],uint256[])": "infinite",
				"forceCancelOrder(uint256)": "infinite",
				"forceCancelOrders(uint256[])": "infinite",
				"getRoleAdmin(bytes32)": "2512",
				"grantRole(bytes32,address)": "infinite",
				"hasRole(bytes32,address)": "2782",
				"isAcceptedToken(address)": "2626",
				"isBuyOffer(uint256)": "2576",
				"isSellOffer(uint256)": "2599",
				"lastOfferId()": "2362",
				"lastOfferIdInfo()": "2359",
				"lastOrderId()": "2406",
				"lastOrderIdInfo()": "2425",
				"newOffer(uint8,bytes32,uint256,uint256,address,bool)": "infinite",
				"newOfferETH(uint8,bytes32,uint256,uint256,bool)": "infinite",
				"offerAmount(uint256)": "2508",
				"offerAmountAvailable(uint256)": "infinite",
				"offerExToken(uint256)": "2547",
				"offerStatus(uint256)": "2559",
				"offerValue(uint256)": "2552",
				"offers(uint256)": "17661",
				"offersInfo(uint256)": "18234",
				"orderStatus(uint256)": "2597",
				"orders(uint256)": "9020",
				"ordersInfo(uint256)": "9390",
				"renounceRole(bytes32,address)": "29087",
				"revokeRole(bytes32,address)": "infinite",
				"setAcceptedTokens(address[],bool)": "infinite",
				"settle2Steps(uint256,bytes32)": "infinite",
				"settle2StepsBatch(uint256[],bytes32[])": "infinite",
				"settleCancelled(uint256)": "infinite",
				"settleCancelleds(uint256[])": "infinite",
				"settleFilled(uint256)": "infinite",
				"settleFilleds(uint256[])": "infinite",
				"supportsInterface(bytes4)": "470",
				"tokenCreated(bytes32)": "2568",
				"tokenForceCancelSettlePhase(bytes32)": "infinite",
				"tokenToSettlePhase(bytes32,address,uint152)": "infinite",
				"tokenToggleActivation(bytes32)": "infinite",
				"tokens(bytes32)": "4935",
				"tokensInfo(bytes32)": "5235",
				"updateConfig(address,uint256,uint256,uint256)": "infinite",
				"updateSettleDuration(bytes32,uint48)": "infinite",
				"withdrawStuckToken(address,address)": "infinite"
			},
			"internal": {
				"_fillOffer(uint256,uint256,address,address)": "infinite",
				"_newOffer(uint8,bytes32,address,uint256,uint256,uint256,bool)": "infinite",
				"convertDecimals(uint256,uint8,uint8)": "infinite",
				"convertDecimalsCeil(uint256,uint8,uint8)": "infinite"
			}
		},
		"methodIdentifiers": {
			"DEFAULT_ADMIN_ROLE()": "a217fddf",
			"OPERATOR_ROLE()": "f5b541a6",
			"acceptedTokens(address)": "82dc4a05",
			"cancelOffer(uint256)": "ef706adf",
			"cancelOffers(uint256[])": "4ae25a86",
			"config()": "79502c55",
			"configInfo()": "670017f4",
			"createToken(bytes32,uint48)": "f1ee8fdd",
			"fillOffer(uint256,uint256)": "78447e7f",
			"fillOfferETH(uint256,uint256)": "81cc37b2",
			"fillOffers(uint256[],uint256[])": "75b5908a",
			"fillOffersETH(uint256[],uint256[])": "06f13da9",
			"forceCancelOrder(uint256)": "deb2ec6a",
			"forceCancelOrders(uint256[])": "cfcdeb7e",
			"getRoleAdmin(bytes32)": "248a9ca3",
			"grantRole(bytes32,address)": "2f2ff15d",
			"hasRole(bytes32,address)": "91d14854",
			"isAcceptedToken(address)": "3b6e750f",
			"isBuyOffer(uint256)": "5d3473e3",
			"isSellOffer(uint256)": "18b4f367",
			"lastOfferId()": "643268c9",
			"lastOfferIdInfo()": "4a99533b",
			"lastOrderId()": "5662ecc7",
			"lastOrderIdInfo()": "31a37c1e",
			"newOffer(uint8,bytes32,uint256,uint256,address,bool)": "0b8aacb9",
			"newOfferETH(uint8,bytes32,uint256,uint256,bool)": "f564f0ae",
			"offerAmount(uint256)": "e7a75949",
			"offerAmountAvailable(uint256)": "a1bd91e1",
			"offerExToken(uint256)": "dc8beea9",
			"offerStatus(uint256)": "d843b2c7",
			"offerValue(uint256)": "e3df748a",
			"offers(uint256)": "8a72ea6a",
			"offersInfo(uint256)": "3baf6784",
			"orderStatus(uint256)": "bff49450",
			"orders(uint256)": "a85c38ef",
			"ordersInfo(uint256)": "7857f9fb",
			"renounceRole(bytes32,address)": "36568abe",
			"revokeRole(bytes32,address)": "d547741f",
			"setAcceptedTokens(address[],bool)": "985a7c1d",
			"settle2Steps(uint256,bytes32)": "16b4cdb2",
			"settle2StepsBatch(uint256[],bytes32[])": "2d670584",
			"settleCancelled(uint256)": "e4cb62c0",
			"settleCancelleds(uint256[])": "1f4846d8",
			"settleFilled(uint256)": "aaab596a",
			"settleFilleds(uint256[])": "17b137ba",
			"supportsInterface(bytes4)": "01ffc9a7",
			"tokenCreated(bytes32)": "ffb12676",
			"tokenForceCancelSettlePhase(bytes32)": "7400f52d",
			"tokenToSettlePhase(bytes32,address,uint152)": "86aa7db0",
			"tokenToggleActivation(bytes32)": "6a951f20",
			"tokens(bytes32)": "904194a3",
			"tokensInfo(bytes32)": "f0170150",
			"updateConfig(address,uint256,uint256,uint256)": "1f25a2d8",
			"updateSettleDuration(bytes32,uint48)": "21146fa2",
			"withdrawStuckToken(address,address)": "bc205ad3"
		}
	},
	"abi": [
		{
			"inputs": [
				{
					"internalType": "address",
					"name": "adminAddress",
					"type": "address"
				},
				{
					"internalType": "address",
					"name": "feeWalletAddress",
					"type": "address"
				}
			],
			"stateMutability": "nonpayable",
			"type": "constructor"
		},
		{
			"inputs": [],
			"name": "AccessControlBadConfirmation",
			"type": "error"
		},
		{
			"inputs": [
				{
					"internalType": "address",
					"name": "account",
					"type": "address"
				},
				{
					"internalType": "bytes32",
					"name": "neededRole",
					"type": "bytes32"
				}
			],
			"name": "AccessControlUnauthorizedAccount",
			"type": "error"
		},
		{
			"inputs": [
				{
					"internalType": "address",
					"name": "target",
					"type": "address"
				}
			],
			"name": "AddressEmptyCode",
			"type": "error"
		},
		{
			"inputs": [
				{
					"internalType": "address",
					"name": "account",
					"type": "address"
				}
			],
			"name": "AddressInsufficientBalance",
			"type": "error"
		},
		{
			"inputs": [],
			"name": "FailedInnerCall",
			"type": "error"
		},
		{
			"inputs": [
				{
					"internalType": "address",
					"name": "token",
					"type": "address"
				}
			],
			"name": "SafeERC20FailedOperation",
			"type": "error"
		},
		{
			"anonymous": false,
			"inputs": [
				{
					"indexed": false,
					"internalType": "uint256",
					"name": "offerId",
					"type": "uint256"
				},
				{
					"indexed": false,
					"internalType": "uint256",
					"name": "refundValue",
					"type": "uint256"
				},
				{
					"indexed": false,
					"internalType": "uint256",
					"name": "refundFee",
					"type": "uint256"
				},
				{
					"indexed": false,
					"internalType": "address",
					"name": "doer",
					"type": "address"
				}
			],
			"name": "CancelOffer",
			"type": "event"
		},
		{
			"anonymous": false,
			"inputs": [
				{
					"indexed": false,
					"internalType": "uint256",
					"name": "orderId",
					"type": "uint256"
				},
				{
					"indexed": false,
					"internalType": "address",
					"name": "doer",
					"type": "address"
				}
			],
			"name": "CancelOrder",
			"type": "event"
		},
		{
			"anonymous": false,
			"inputs": [
				{
					"indexed": false,
					"internalType": "uint256",
					"name": "offerId",
					"type": "uint256"
				},
				{
					"indexed": false,
					"internalType": "uint256",
					"name": "refundAmount",
					"type": "uint256"
				}
			],
			"name": "CloseOffer",
			"type": "event"
		},
		{
			"anonymous": false,
			"inputs": [
				{
					"indexed": false,
					"internalType": "uint256",
					"name": "id",
					"type": "uint256"
				},
				{
					"indexed": false,
					"internalType": "uint8",
					"name": "offerType",
					"type": "uint8"
				},
				{
					"indexed": false,
					"internalType": "bytes32",
					"name": "tokenId",
					"type": "bytes32"
				},
				{
					"indexed": false,
					"internalType": "address",
					"name": "exToken",
					"type": "address"
				},
				{
					"indexed": false,
					"internalType": "uint256",
					"name": "amount",
					"type": "uint256"
				},
				{
					"indexed": false,
					"internalType": "uint256",
					"name": "value",
					"type": "uint256"
				},
				{
					"indexed": false,
					"internalType": "uint256",
					"name": "collateral",
					"type": "uint256"
				},
				{
					"indexed": false,
					"internalType": "bool",
					"name": "fullMatch",
					"type": "bool"
				},
				{
					"indexed": false,
					"internalType": "address",
					"name": "doer",
					"type": "address"
				}
			],
			"name": "NewOffer",
			"type": "event"
		},
		{
			"anonymous": false,
			"inputs": [
				{
					"indexed": false,
					"internalType": "uint256",
					"name": "id",
					"type": "uint256"
				},
				{
					"indexed": false,
					"internalType": "uint256",
					"name": "offerId",
					"type": "uint256"
				},
				{
					"indexed": false,
					"internalType": "uint256",
					"name": "amount",
					"type": "uint256"
				},
				{
					"indexed": false,
					"internalType": "address",
					"name": "seller",
					"type": "address"
				},
				{
					"indexed": false,
					"internalType": "address",
					"name": "buyer",
					"type": "address"
				}
			],
			"name": "NewOrder",
			"type": "event"
		},
		{
			"anonymous": false,
			"inputs": [
				{
					"indexed": false,
					"internalType": "bytes32",
					"name": "tokenId",
					"type": "bytes32"
				},
				{
					"indexed": false,
					"internalType": "uint256",
					"name": "settleDuration",
					"type": "uint256"
				}
			],
			"name": "NewToken",
			"type": "event"
		},
		{
			"anonymous": false,
			"inputs": [
				{
					"indexed": true,
					"internalType": "bytes32",
					"name": "role",
					"type": "bytes32"
				},
				{
					"indexed": true,
					"internalType": "bytes32",
					"name": "previousAdminRole",
					"type": "bytes32"
				},
				{
					"indexed": true,
					"internalType": "bytes32",
					"name": "newAdminRole",
					"type": "bytes32"
				}
			],
			"name": "RoleAdminChanged",
			"type": "event"
		},
		{
			"anonymous": false,
			"inputs": [
				{
					"indexed": true,
					"internalType": "bytes32",
					"name": "role",
					"type": "bytes32"
				},
				{
					"indexed": true,
					"internalType": "address",
					"name": "account",
					"type": "address"
				},
				{
					"indexed": true,
					"internalType": "address",
					"name": "sender",
					"type": "address"
				}
			],
			"name": "RoleGranted",
			"type": "event"
		},
		{
			"anonymous": false,
			"inputs": [
				{
					"indexed": true,
					"internalType": "bytes32",
					"name": "role",
					"type": "bytes32"
				},
				{
					"indexed": true,
					"internalType": "address",
					"name": "account",
					"type": "address"
				},
				{
					"indexed": true,
					"internalType": "address",
					"name": "sender",
					"type": "address"
				}
			],
			"name": "RoleRevoked",
			"type": "event"
		},
		{
			"anonymous": false,
			"inputs": [
				{
					"indexed": false,
					"internalType": "uint256",
					"name": "orderId",
					"type": "uint256"
				},
				{
					"indexed": false,
					"internalType": "bytes32",
					"name": "hash",
					"type": "bytes32"
				},
				{
					"indexed": false,
					"internalType": "address",
					"name": "doer",
					"type": "address"
				}
			],
			"name": "Settle2Steps",
			"type": "event"
		},
		{
			"anonymous": false,
			"inputs": [
				{
					"indexed": false,
					"internalType": "uint256",
					"name": "orderId",
					"type": "uint256"
				},
				{
					"indexed": false,
					"internalType": "uint256",
					"name": "value",
					"type": "uint256"
				},
				{
					"indexed": false,
					"internalType": "uint256",
					"name": "fee",
					"type": "uint256"
				},
				{
					"indexed": false,
					"internalType": "address",
					"name": "doer",
					"type": "address"
				}
			],
			"name": "SettleCancelled",
			"type": "event"
		},
		{
			"anonymous": false,
			"inputs": [
				{
					"indexed": false,
					"internalType": "uint256",
					"name": "orderId",
					"type": "uint256"
				},
				{
					"indexed": false,
					"internalType": "uint256",
					"name": "value",
					"type": "uint256"
				},
				{
					"indexed": false,
					"internalType": "uint256",
					"name": "fee",
					"type": "uint256"
				},
				{
					"indexed": false,
					"internalType": "address",
					"name": "doer",
					"type": "address"
				}
			],
			"name": "SettleFilled",
			"type": "event"
		},
		{
			"anonymous": false,
			"inputs": [
				{
					"indexed": false,
					"internalType": "bytes32",
					"name": "tokenId",
					"type": "bytes32"
				}
			],
			"name": "TokenForceCancelSettlePhase",
			"type": "event"
		},
		{
			"anonymous": false,
			"inputs": [
				{
					"indexed": false,
					"internalType": "bytes32",
					"name": "tokenId",
					"type": "bytes32"
				},
				{
					"indexed": false,
					"internalType": "address",
					"name": "token",
					"type": "address"
				},
				{
					"indexed": false,
					"internalType": "uint256",
					"name": "settleRate",
					"type": "uint256"
				},
				{
					"indexed": false,
					"internalType": "uint256",
					"name": "settleTime",
					"type": "uint256"
				}
			],
			"name": "TokenToSettlePhase",
			"type": "event"
		},
		{
			"anonymous": false,
			"inputs": [
				{
					"indexed": false,
					"internalType": "address[]",
					"name": "tokens",
					"type": "address[]"
				},
				{
					"indexed": false,
					"internalType": "bool",
					"name": "isAccepted",
					"type": "bool"
				}
			],
			"name": "UpdateAcceptedTokens",
			"type": "event"
		},
		{
			"anonymous": false,
			"inputs": [
				{
					"indexed": false,
					"internalType": "address",
					"name": "oldFeeWallet",
					"type": "address"
				},
				{
					"indexed": false,
					"internalType": "uint256",
					"name": "oldFeeSettle",
					"type": "uint256"
				},
				{
					"indexed": false,
					"internalType": "uint256",
					"name": "oldFeeRefund",
					"type": "uint256"
				},
				{
					"indexed": false,
					"internalType": "uint256",
					"name": "oldPledgeRate",
					"type": "uint256"
				},
				{
					"indexed": false,
					"internalType": "address",
					"name": "newFeeWallet",
					"type": "address"
				},
				{
					"indexed": false,
					"internalType": "uint256",
					"name": "newFeeSettle",
					"type": "uint256"
				},
				{
					"indexed": false,
					"internalType": "uint256",
					"name": "newFeeRefund",
					"type": "uint256"
				},
				{
					"indexed": false,
					"internalType": "uint256",
					"name": "newPledgeRate",
					"type": "uint256"
				}
			],
			"name": "UpdateConfig",
			"type": "event"
		},
		{
			"anonymous": false,
			"inputs": [
				{
					"indexed": false,
					"internalType": "bytes32",
					"name": "tokenId",
					"type": "bytes32"
				},
				{
					"indexed": false,
					"internalType": "uint48",
					"name": "oldValue",
					"type": "uint48"
				},
				{
					"indexed": false,
					"internalType": "uint48",
					"name": "newValue",
					"type": "uint48"
				}
			],
			"name": "UpdateTokenSettleDuration",
			"type": "event"
		},
		{
			"anonymous": false,
			"inputs": [
				{
					"indexed": false,
					"internalType": "bytes32",
					"name": "tokenId",
					"type": "bytes32"
				},
				{
					"indexed": false,
					"internalType": "uint8",
					"name": "oldValue",
					"type": "uint8"
				},
				{
					"indexed": false,
					"internalType": "uint8",
					"name": "newValue",
					"type": "uint8"
				}
			],
			"name": "UpdateTokenStatus",
			"type": "event"
		},
		{
			"inputs": [],
			"name": "DEFAULT_ADMIN_ROLE",
			"outputs": [
				{
					"internalType": "bytes32",
					"name": "",
					"type": "bytes32"
				}
			],
			"stateMutability": "view",
			"type": "function"
		},
		{
			"inputs": [],
			"name": "OPERATOR_ROLE",
			"outputs": [
				{
					"internalType": "bytes32",
					"name": "",
					"type": "bytes32"
				}
			],
			"stateMutability": "view",
			"type": "function"
		},
		{
			"inputs": [
				{
					"internalType": "address",
					"name": "",
					"type": "address"
				}
			],
			"name": "acceptedTokens",
			"outputs": [
				{
					"internalType": "bool",
					"name": "",
					"type": "bool"
				}
			],
			"stateMutability": "view",
			"type": "function"
		},
		{
			"inputs": [
				{
					"internalType": "uint256",
					"name": "offerId",
					"type": "uint256"
				}
			],
			"name": "cancelOffer",
			"outputs": [],
			"stateMutability": "nonpayable",
			"type": "function"
		},
		{
			"inputs": [
				{
					"internalType": "uint256[]",
					"name": "offerIds",
					"type": "uint256[]"
				}
			],
			"name": "cancelOffers",
			"outputs": [],
			"stateMutability": "nonpayable",
			"type": "function"
		},
		{
			"inputs": [],
			"name": "config",
			"outputs": [
				{
					"internalType": "uint256",
					"name": "pledgeRate",
					"type": "uint256"
				},
				{
					"internalType": "uint256",
					"name": "feeRefund",
					"type": "uint256"
				},
				{
					"internalType": "uint256",
					"name": "feeSettle",
					"type": "uint256"
				},
				{
					"internalType": "address",
					"name": "feeWallet",
					"type": "address"
				}
			],
			"stateMutability": "view",
			"type": "function"
		},
		{
			"inputs": [],
			"name": "configInfo",
			"outputs": [
				{
					"components": [
						{
							"internalType": "uint256",
							"name": "pledgeRate",
							"type": "uint256"
						},
						{
							"internalType": "uint256",
							"name": "feeRefund",
							"type": "uint256"
						},
						{
							"internalType": "uint256",
							"name": "feeSettle",
							"type": "uint256"
						},
						{
							"internalType": "address",
							"name": "feeWallet",
							"type": "address"
						}
					],
					"internalType": "struct Config",
					"name": "",
					"type": "tuple"
				}
			],
			"stateMutability": "view",
			"type": "function"
		},
		{
			"inputs": [
				{
					"internalType": "bytes32",
					"name": "tokenId",
					"type": "bytes32"
				},
				{
					"internalType": "uint48",
					"name": "settleDuration",
					"type": "uint48"
				}
			],
			"name": "createToken",
			"outputs": [],
			"stateMutability": "nonpayable",
			"type": "function"
		},
		{
			"inputs": [
				{
					"internalType": "uint256",
					"name": "offerId",
					"type": "uint256"
				},
				{
					"internalType": "uint256",
					"name": "amount",
					"type": "uint256"
				}
			],
			"name": "fillOffer",
			"outputs": [],
			"stateMutability": "nonpayable",
			"type": "function"
		},
		{
			"inputs": [
				{
					"internalType": "uint256",
					"name": "offerId",
					"type": "uint256"
				},
				{
					"internalType": "uint256",
					"name": "amount",
					"type": "uint256"
				}
			],
			"name": "fillOfferETH",
			"outputs": [],
			"stateMutability": "payable",
			"type": "function"
		},
		{
			"inputs": [
				{
					"internalType": "uint256[]",
					"name": "offerIds",
					"type": "uint256[]"
				},
				{
					"internalType": "uint256[]",
					"name": "amounts",
					"type": "uint256[]"
				}
			],
			"name": "fillOffers",
			"outputs": [],
			"stateMutability": "nonpayable",
			"type": "function"
		},
		{
			"inputs": [
				{
					"internalType": "uint256[]",
					"name": "offerIds",
					"type": "uint256[]"
				},
				{
					"internalType": "uint256[]",
					"name": "amounts",
					"type": "uint256[]"
				}
			],
			"name": "fillOffersETH",
			"outputs": [],
			"stateMutability": "payable",
			"type": "function"
		},
		{
			"inputs": [
				{
					"internalType": "uint256",
					"name": "orderId",
					"type": "uint256"
				}
			],
			"name": "forceCancelOrder",
			"outputs": [],
			"stateMutability": "nonpayable",
			"type": "function"
		},
		{
			"inputs": [
				{
					"internalType": "uint256[]",
					"name": "orderIds",
					"type": "uint256[]"
				}
			],
			"name": "forceCancelOrders",
			"outputs": [],
			"stateMutability": "nonpayable",
			"type": "function"
		},
		{
			"inputs": [
				{
					"internalType": "bytes32",
					"name": "role",
					"type": "bytes32"
				}
			],
			"name": "getRoleAdmin",
			"outputs": [
				{
					"internalType": "bytes32",
					"name": "",
					"type": "bytes32"
				}
			],
			"stateMutability": "view",
			"type": "function"
		},
		{
			"inputs": [
				{
					"internalType": "bytes32",
					"name": "role",
					"type": "bytes32"
				},
				{
					"internalType": "address",
					"name": "account",
					"type": "address"
				}
			],
			"name": "grantRole",
			"outputs": [],
			"stateMutability": "nonpayable",
			"type": "function"
		},
		{
			"inputs": [
				{
					"internalType": "bytes32",
					"name": "role",
					"type": "bytes32"
				},
				{
					"internalType": "address",
					"name": "account",
					"type": "address"
				}
			],
			"name": "hasRole",
			"outputs": [
				{
					"internalType": "bool",
					"name": "",
					"type": "bool"
				}
			],
			"stateMutability": "view",
			"type": "function"
		},
		{
			"inputs": [
				{
					"internalType": "address",
					"name": "token",
					"type": "address"
				}
			],
			"name": "isAcceptedToken",
			"outputs": [
				{
					"internalType": "bool",
					"name": "",
					"type": "bool"
				}
			],
			"stateMutability": "view",
			"type": "function"
		},
		{
			"inputs": [
				{
					"internalType": "uint256",
					"name": "offerId",
					"type": "uint256"
				}
			],
			"name": "isBuyOffer",
			"outputs": [
				{
					"internalType": "bool",
					"name": "",
					"type": "bool"
				}
			],
			"stateMutability": "view",
			"type": "function"
		},
		{
			"inputs": [
				{
					"internalType": "uint256",
					"name": "offerId",
					"type": "uint256"
				}
			],
			"name": "isSellOffer",
			"outputs": [
				{
					"internalType": "bool",
					"name": "",
					"type": "bool"
				}
			],
			"stateMutability": "view",
			"type": "function"
		},
		{
			"inputs": [],
			"name": "lastOfferId",
			"outputs": [
				{
					"internalType": "uint256",
					"name": "",
					"type": "uint256"
				}
			],
			"stateMutability": "view",
			"type": "function"
		},
		{
			"inputs": [],
			"name": "lastOfferIdInfo",
			"outputs": [
				{
					"internalType": "uint256",
					"name": "",
					"type": "uint256"
				}
			],
			"stateMutability": "view",
			"type": "function"
		},
		{
			"inputs": [],
			"name": "lastOrderId",
			"outputs": [
				{
					"internalType": "uint256",
					"name": "",
					"type": "uint256"
				}
			],
			"stateMutability": "view",
			"type": "function"
		},
		{
			"inputs": [],
			"name": "lastOrderIdInfo",
			"outputs": [
				{
					"internalType": "uint256",
					"name": "",
					"type": "uint256"
				}
			],
			"stateMutability": "view",
			"type": "function"
		},
		{
			"inputs": [
				{
					"internalType": "uint8",
					"name": "offerType",
					"type": "uint8"
				},
				{
					"internalType": "bytes32",
					"name": "tokenId",
					"type": "bytes32"
				},
				{
					"internalType": "uint256",
					"name": "amount",
					"type": "uint256"
				},
				{
					"internalType": "uint256",
					"name": "value",
					"type": "uint256"
				},
				{
					"internalType": "address",
					"name": "exToken",
					"type": "address"
				},
				{
					"internalType": "bool",
					"name": "fullMatch",
					"type": "bool"
				}
			],
			"name": "newOffer",
			"outputs": [],
			"stateMutability": "nonpayable",
			"type": "function"
		},
		{
			"inputs": [
				{
					"internalType": "uint8",
					"name": "offerType",
					"type": "uint8"
				},
				{
					"internalType": "bytes32",
					"name": "tokenId",
					"type": "bytes32"
				},
				{
					"internalType": "uint256",
					"name": "amount",
					"type": "uint256"
				},
				{
					"internalType": "uint256",
					"name": "value",
					"type": "uint256"
				},
				{
					"internalType": "bool",
					"name": "fullMatch",
					"type": "bool"
				}
			],
			"name": "newOfferETH",
			"outputs": [],
			"stateMutability": "payable",
			"type": "function"
		},
		{
			"inputs": [
				{
					"internalType": "uint256",
					"name": "offerId",
					"type": "uint256"
				}
			],
			"name": "offerAmount",
			"outputs": [
				{
					"internalType": "uint256",
					"name": "",
					"type": "uint256"
				}
			],
			"stateMutability": "view",
			"type": "function"
		},
		{
			"inputs": [
				{
					"internalType": "uint256",
					"name": "offerId",
					"type": "uint256"
				}
			],
			"name": "offerAmountAvailable",
			"outputs": [
				{
					"internalType": "uint256",
					"name": "",
					"type": "uint256"
				}
			],
			"stateMutability": "view",
			"type": "function"
		},
		{
			"inputs": [
				{
					"internalType": "uint256",
					"name": "offerId",
					"type": "uint256"
				}
			],
			"name": "offerExToken",
			"outputs": [
				{
					"internalType": "address",
					"name": "",
					"type": "address"
				}
			],
			"stateMutability": "view",
			"type": "function"
		},
		{
			"inputs": [
				{
					"internalType": "uint256",
					"name": "offerId",
					"type": "uint256"
				}
			],
			"name": "offerStatus",
			"outputs": [
				{
					"internalType": "uint256",
					"name": "",
					"type": "uint256"
				}
			],
			"stateMutability": "view",
			"type": "function"
		},
		{
			"inputs": [
				{
					"internalType": "uint256",
					"name": "offerId",
					"type": "uint256"
				}
			],
			"name": "offerValue",
			"outputs": [
				{
					"internalType": "uint256",
					"name": "",
					"type": "uint256"
				}
			],
			"stateMutability": "view",
			"type": "function"
		},
		{
			"inputs": [
				{
					"internalType": "uint256",
					"name": "",
					"type": "uint256"
				}
			],
			"name": "offers",
			"outputs": [
				{
					"internalType": "uint8",
					"name": "offerType",
					"type": "uint8"
				},
				{
					"internalType": "bytes32",
					"name": "tokenId",
					"type": "bytes32"
				},
				{
					"internalType": "address",
					"name": "exToken",
					"type": "address"
				},
				{
					"internalType": "uint256",
					"name": "amount",
					"type": "uint256"
				},
				{
					"internalType": "uint256",
					"name": "value",
					"type": "uint256"
				},
				{
					"internalType": "uint256",
					"name": "collateral",
					"type": "uint256"
				},
				{
					"internalType": "uint256",
					"name": "filledAmount",
					"type": "uint256"
				},
				{
					"internalType": "uint8",
					"name": "status",
					"type": "uint8"
				},
				{
					"internalType": "address",
					"name": "offeredBy",
					"type": "address"
				},
				{
					"internalType": "bool",
					"name": "fullMatch",
					"type": "bool"
				}
			],
			"stateMutability": "view",
			"type": "function"
		},
		{
			"inputs": [
				{
					"internalType": "uint256",
					"name": "id",
					"type": "uint256"
				}
			],
			"name": "offersInfo",
			"outputs": [
				{
					"components": [
						{
							"internalType": "uint8",
							"name": "offerType",
							"type": "uint8"
						},
						{
							"internalType": "bytes32",
							"name": "tokenId",
							"type": "bytes32"
						},
						{
							"internalType": "address",
							"name": "exToken",
							"type": "address"
						},
						{
							"internalType": "uint256",
							"name": "amount",
							"type": "uint256"
						},
						{
							"internalType": "uint256",
							"name": "value",
							"type": "uint256"
						},
						{
							"internalType": "uint256",
							"name": "collateral",
							"type": "uint256"
						},
						{
							"internalType": "uint256",
							"name": "filledAmount",
							"type": "uint256"
						},
						{
							"internalType": "uint8",
							"name": "status",
							"type": "uint8"
						},
						{
							"internalType": "address",
							"name": "offeredBy",
							"type": "address"
						},
						{
							"internalType": "bool",
							"name": "fullMatch",
							"type": "bool"
						}
					],
					"internalType": "struct Offer",
					"name": "",
					"type": "tuple"
				}
			],
			"stateMutability": "view",
			"type": "function"
		},
		{
			"inputs": [
				{
					"internalType": "uint256",
					"name": "orderId",
					"type": "uint256"
				}
			],
			"name": "orderStatus",
			"outputs": [
				{
					"internalType": "uint256",
					"name": "",
					"type": "uint256"
				}
			],
			"stateMutability": "view",
			"type": "function"
		},
		{
			"inputs": [
				{
					"internalType": "uint256",
					"name": "",
					"type": "uint256"
				}
			],
			"name": "orders",
			"outputs": [
				{
					"internalType": "uint256",
					"name": "offerId",
					"type": "uint256"
				},
				{
					"internalType": "uint256",
					"name": "amount",
					"type": "uint256"
				},
				{
					"internalType": "address",
					"name": "seller",
					"type": "address"
				},
				{
					"internalType": "address",
					"name": "buyer",
					"type": "address"
				},
				{
					"internalType": "uint8",
					"name": "status",
					"type": "uint8"
				}
			],
			"stateMutability": "view",
			"type": "function"
		},
		{
			"inputs": [
				{
					"internalType": "uint256",
					"name": "id",
					"type": "uint256"
				}
			],
			"name": "ordersInfo",
			"outputs": [
				{
					"components": [
						{
							"internalType": "uint256",
							"name": "offerId",
							"type": "uint256"
						},
						{
							"internalType": "uint256",
							"name": "amount",
							"type": "uint256"
						},
						{
							"internalType": "address",
							"name": "seller",
							"type": "address"
						},
						{
							"internalType": "address",
							"name": "buyer",
							"type": "address"
						},
						{
							"internalType": "uint8",
							"name": "status",
							"type": "uint8"
						}
					],
					"internalType": "struct Order",
					"name": "",
					"type": "tuple"
				}
			],
			"stateMutability": "view",
			"type": "function"
		},
		{
			"inputs": [
				{
					"internalType": "bytes32",
					"name": "role",
					"type": "bytes32"
				},
				{
					"internalType": "address",
					"name": "callerConfirmation",
					"type": "address"
				}
			],
			"name": "renounceRole",
			"outputs": [],
			"stateMutability": "nonpayable",
			"type": "function"
		},
		{
			"inputs": [
				{
					"internalType": "bytes32",
					"name": "role",
					"type": "bytes32"
				},
				{
					"internalType": "address",
					"name": "account",
					"type": "address"
				}
			],
			"name": "revokeRole",
			"outputs": [],
			"stateMutability": "nonpayable",
			"type": "function"
		},
		{
			"inputs": [
				{
					"internalType": "address[]",
					"name": "tokenAddresses",
					"type": "address[]"
				},
				{
					"internalType": "bool",
					"name": "isAccepted",
					"type": "bool"
				}
			],
			"name": "setAcceptedTokens",
			"outputs": [],
			"stateMutability": "nonpayable",
			"type": "function"
		},
		{
			"inputs": [
				{
					"internalType": "uint256",
					"name": "orderId",
					"type": "uint256"
				},
				{
					"internalType": "bytes32",
					"name": "hash",
					"type": "bytes32"
				}
			],
			"name": "settle2Steps",
			"outputs": [],
			"stateMutability": "nonpayable",
			"type": "function"
		},
		{
			"inputs": [
				{
					"internalType": "uint256[]",
					"name": "orderIds",
					"type": "uint256[]"
				},
				{
					"internalType": "bytes32[]",
					"name": "hashes",
					"type": "bytes32[]"
				}
			],
			"name": "settle2StepsBatch",
			"outputs": [],
			"stateMutability": "nonpayable",
			"type": "function"
		},
		{
			"inputs": [
				{
					"internalType": "uint256",
					"name": "orderId",
					"type": "uint256"
				}
			],
			"name": "settleCancelled",
			"outputs": [],
			"stateMutability": "nonpayable",
			"type": "function"
		},
		{
			"inputs": [
				{
					"internalType": "uint256[]",
					"name": "orderIds",
					"type": "uint256[]"
				}
			],
			"name": "settleCancelleds",
			"outputs": [],
			"stateMutability": "nonpayable",
			"type": "function"
		},
		{
			"inputs": [
				{
					"internalType": "uint256",
					"name": "orderId",
					"type": "uint256"
				}
			],
			"name": "settleFilled",
			"outputs": [],
			"stateMutability": "nonpayable",
			"type": "function"
		},
		{
			"inputs": [
				{
					"internalType": "uint256[]",
					"name": "orderIds",
					"type": "uint256[]"
				}
			],
			"name": "settleFilleds",
			"outputs": [],
			"stateMutability": "nonpayable",
			"type": "function"
		},
		{
			"inputs": [
				{
					"internalType": "bytes4",
					"name": "interfaceId",
					"type": "bytes4"
				}
			],
			"name": "supportsInterface",
			"outputs": [
				{
					"internalType": "bool",
					"name": "",
					"type": "bool"
				}
			],
			"stateMutability": "view",
			"type": "function"
		},
		{
			"inputs": [
				{
					"internalType": "bytes32",
					"name": "",
					"type": "bytes32"
				}
			],
			"name": "tokenCreated",
			"outputs": [
				{
					"internalType": "bool",
					"name": "",
					"type": "bool"
				}
			],
			"stateMutability": "view",
			"type": "function"
		},
		{
			"inputs": [
				{
					"internalType": "bytes32",
					"name": "tokenId",
					"type": "bytes32"
				}
			],
			"name": "tokenForceCancelSettlePhase",
			"outputs": [],
			"stateMutability": "nonpayable",
			"type": "function"
		},
		{
			"inputs": [
				{
					"internalType": "bytes32",
					"name": "tokenId",
					"type": "bytes32"
				},
				{
					"internalType": "address",
					"name": "tokenAddress",
					"type": "address"
				},
				{
					"internalType": "uint152",
					"name": "settleRate",
					"type": "uint152"
				}
			],
			"name": "tokenToSettlePhase",
			"outputs": [],
			"stateMutability": "nonpayable",
			"type": "function"
		},
		{
			"inputs": [
				{
					"internalType": "bytes32",
					"name": "tokenId",
					"type": "bytes32"
				}
			],
			"name": "tokenToggleActivation",
			"outputs": [],
			"stateMutability": "nonpayable",
			"type": "function"
		},
		{
			"inputs": [
				{
					"internalType": "bytes32",
					"name": "",
					"type": "bytes32"
				}
			],
			"name": "tokens",
			"outputs": [
				{
					"internalType": "address",
					"name": "token",
					"type": "address"
				},
				{
					"internalType": "uint48",
					"name": "settleTime",
					"type": "uint48"
				},
				{
					"internalType": "uint48",
					"name": "settleDuration",
					"type": "uint48"
				},
				{
					"internalType": "uint152",
					"name": "settleRate",
					"type": "uint152"
				},
				{
					"internalType": "uint8",
					"name": "status",
					"type": "uint8"
				}
			],
			"stateMutability": "view",
			"type": "function"
		},
		{
			"inputs": [
				{
					"internalType": "bytes32",
					"name": "id",
					"type": "bytes32"
				}
			],
			"name": "tokensInfo",
			"outputs": [
				{
					"components": [
						{
							"internalType": "address",
							"name": "token",
							"type": "address"
						},
						{
							"internalType": "uint48",
							"name": "settleTime",
							"type": "uint48"
						},
						{
							"internalType": "uint48",
							"name": "settleDuration",
							"type": "uint48"
						},
						{
							"internalType": "uint152",
							"name": "settleRate",
							"type": "uint152"
						},
						{
							"internalType": "uint8",
							"name": "status",
							"type": "uint8"
						}
					],
					"internalType": "struct Token",
					"name": "tokenInfo",
					"type": "tuple"
				}
			],
			"stateMutability": "view",
			"type": "function"
		},
		{
			"inputs": [
				{
					"internalType": "address",
					"name": "feeWallet_",
					"type": "address"
				},
				{
					"internalType": "uint256",
					"name": "feeSettle_",
					"type": "uint256"
				},
				{
					"internalType": "uint256",
					"name": "feeRefund_",
					"type": "uint256"
				},
				{
					"internalType": "uint256",
					"name": "pledgeRate_",
					"type": "uint256"
				}
			],
			"name": "updateConfig",
			"outputs": [],
			"stateMutability": "nonpayable",
			"type": "function"
		},
		{
			"inputs": [
				{
					"internalType": "bytes32",
					"name": "tokenId",
					"type": "bytes32"
				},
				{
					"internalType": "uint48",
					"name": "newValue",
					"type": "uint48"
				}
			],
			"name": "updateSettleDuration",
			"outputs": [],
			"stateMutability": "nonpayable",
			"type": "function"
		},
		{
			"inputs": [
				{
					"internalType": "address",
					"name": "_token",
					"type": "address"
				},
				{
					"internalType": "address",
					"name": "_to",
					"type": "address"
				}
			],
			"name": "withdrawStuckToken",
			"outputs": [],
			"stateMutability": "nonpayable",
			"type": "function"
		}
	]
}